:020000040800F2
:20000000886C002081020008692F00088B020008712E000855080008893600080000000039
:20002000000000000000000000000000C101000857080008000000001D0200089D2F000894
:200040009B0200089B0200089B0200089B0200089B0200089B0200089B0200089B02000878
:200060009B0200089B020008790800089B0200089B0200089B0200089B0200089B02000874
:200080009B0200089B0200089B0200089B0200089B0200089B0200089B0200089B02000838
:2000A0009B0200089B0200089B0200089B02000859300008653000089B0200089B02000834
:2000C0009B0200089B0200089B0200089B0200089B020008113400081D34000829340008DC
:2000E000710800089B0200089B0200089B0200089B0200089B0200089B0200089B020008FC
:200100009B0200089B0200089B0200089B02000839310008453100089B0200089B02000811
:200120009B0200089B0200089B0200089B0200089B02000859080008650800089B02000803
:200140009B0200089B0200089B0200089B0200089B0200089B0200089B0200089B02000877
:200160009B0200089B0200089B0200089B0200089B0200089B0200089B02000800000000FC
:200180009B0200089B0200089B020008513100089B0200089B0200089B0200089B02000852
:2001A00000000000000000009B020008DFF80CD000F02CFB00480047DD400008886C002008
:2001C0002C4B19680868B0E8F04F80F30988BFF36F8F4FF0000080F311887047000000002A
:2001E00008480068006880F308884FF0000080F3148862B661B6BFF34F8FBFF36F8F00DF40
:2002000000BF00BF08ED00E0DFF80C00016841F470010160704700BF88ED00E0EFF3098002
:20022000BFF36F8F134B1A681EF0100F08BF20ED108A20E9F04F106009B44FF0500080F31C
:200240001188BFF34F8FBFF36F8F04F053FA4FF0000080F3118809BC19680868B0E8F04FAC
:200260001EF0100F08BFB0EC108A80F30988BFF36F8F704728000020EFF305807047000083
:200280000648804706480047FEE7FEE7FEE7FEE7FEE7FEE7FEE7FEE7FEE7FEE73D3000084D
:2002A000AD0100082DE9F05F0546002092469B4688460646814640241BE02846414647463D
:2002C000224600F05FF953465A46C01A914110D311461846224600F046F92D1A67EB0108B8
:2002E0004F4622460120002100F03DF917EB00094E41201EA4F10104DFDC484631462A46F7
:200300004346BDE8F09F10B5431A934209D28318881803E010F8011D03F8011D521EF9D2B6
:2003200010BD40EA01039B0703D009E008C9121F08C0042AFAD203E011F8013B00F8013B44
:20034000521EF9D210BDD2B201E000F8012B491EFBD270470022F6E710B513460A4604466A
:200360001946FFF7F0FF204610BD421C10F8011B0029FBD1801A70472DE9FE4F81EA030469
:2003800004F0004421F0004100944FF0000B23F0004350EA01045ED052EA03045BD0C3F30E
:2003A0000A54C1F30A552C44A4F2F3340194A0FB0254C1F3130141F48011C3F3130343F488
:2003C000801301FB024400FB034E840A970A44EA815447EA8357A4FB076802958D0A05FB83
:2003E00007854FEA932C04FB0C542705029D4FEA065847EA1637B5EB08056EEB070C870E8C
:20040000920E47EA811742EA8312A7FB0201B6EB0B0164EB00042B0D43EA0C335E1844EBC4
:200420001C50DA465146E7FB0201C5F313044FEA0B3343EA14534FEA0432019C43EA060398
:20044000A4F10C040294009CCDE900B400F0B9F803B0BDE8F08F00200146F9E72DE9F04D49
:2004600081EA030404F0004B21F0004514464FF0000A23F0004150EA050220D054EA01020C
:200480001DD0C5F30A570246C5F31303C1F31300C1F30A5640F4801543F48013A7EB060832
:2004A000101BD64608F2FD3873EB050002D308F1010801E092185B41B8F1000F03DA0020B0
:2004C0000146BDE8F08D00204FF48011064684460EE0171B73EB050705D3121B63EB0503C4
:2004E00006434CEA010C49084FEA300092185B4150EA0107EDD152EA030012D082EA0400DF
:2005000083EA0501084305D0101BAB4106D20122002306E000224FF0004302E06FF0010245
:2005200053101AEB06004CEB085110EB0A0041EB0B01BDE8F04D00F035B830B50B46014644
:2005400000202022012409E021FA02F59D4205D303FA02F5491B04FA02F52844151EA2F1E3
:200560000102F1DC30BD202A04DB203A00FA02F1002070479140C2F1200320FA03F3194364
:2005800090407047202A04DB203A21FA02F00021704721FA02F3D040C2F12002914008435B
:2005A0001946704710B5141E73F1000408DA401C41F1000192185B411A4301D120F00100CF
:2005C00010BD2DE9F04D92469B4611B1B1FA81F202E0B0FA80F220329046FFF7C4FF044639
:2005E0000F4640EA0A0041EA0B0153465A46084313D0114653EA010019D0C8F140025046C5
:20060000FFF7C0FF05460E46504659464246FFF7AAFF084305D0012004E020463946BDE87B
:20062000F08D0020054346EAE0762C4337430A986305E40AA0EB08000022FD0A44EA4754E9
:200640000A3002D500200146E9E7010510196941DDE9084500196941BDE8F04DA2E72DE922
:20066000FE4F804681EA0300C00F0C46009021F0004123F00045B8EB0200A94105D24046B2
:20068000214690461C460B46024623F00040104347D0270DC7F30A00C3F30A510290401A70
:2006A000019040286BDAC3F3130040F4801B0098924620B10023D2EB030A63EB0B0B019839
:2006C0005946C0F140025046FFF74DFF06460D4650465946019A00F0ABF810EB0800614109
:2006E000002487EA115284EAE7731A4340D0009A62B3019A012A4FEA075215DC001B61EB6E
:2007000002014FF0004202EA0752CDE90042001C41F5801132462B46FFF753FF03B0BDE8AC
:20072000F08F40462146F9E7001B61EB0201001C41F5801300185B412018A2F5001747EB52
:20074000030140EAD570B6196D4111E06D084FEA360645EAC0754FEA0752001B61EB02016E
:20076000001C41F5801149084FEA30000019514132462B4603B0BDE8F04FFFF713BF009851
:20078000012240000023D0EB020263EBE073009821464FEAE074B8EB000061EB0401E9E723
:2007A00083F000435BE781F0004158E7C1F30A52C1F3130140F2FF3341F480119A4202DA96
:2007C00000200146704740F233439A42A2F2334202DC5242FFF7D6BEFFF7C5BE30B5041EF2
:2007E00071F1000404DB4FF00044404264EB0101141E73F1000405DB1C464FF0004352426C
:2008000063EB0403994208BF904230BD064C074D06E0E06840F0010394E807009847103474
:20082000AC42F6D3FFF7C6FCAC4C0008CC4C0008202A06DBCB17203A41FA02F043EAE07315
:2008400006E041FA02F3D040C2F120029140084319467047FEE77047014800F0F8B90000E5
:2008600064310020014800F0F2B90000643100204FF4804000F0A4BB102000F0A1BB00005C
:20088000012809D002280FD0032809D004280FD10849094802F0EDBA06480849401CF9E727
:2008A00006480749401CF5E705480649401CF1E770470000FFFF010800000108FFFF0508C0
:2008C000FFFF0908FFFF0D0870470000002229B101291DD002291ED04FF440720B2800D912
:2008E000001D0E490B6823F440730B600B6813430B600A6822F0F8020A600A68022303EB3B
:20090000C00002430A60086840F48030086070474FF48072E2E74FF40072DFE7103C0240EE
:200920001348016889050FD5016821F400710160016841F400610160016821F40061016091
:20094000016841F400710160016849050FD5016821F480610160016841F480510160016893
:2009600021F480510160016841F4806101607047003C02400E4A136823F4407313600329DF
:200980000DD0012911680FD041F40041116011684FF4803343EA0020014311607047116870
:2009A00048F204031943F1E741F00401EEE70000103C0240064A136823F4407313601368A6
:2009C0001360136843F001031360017070470000103C0240094910B50C6824F440740C6006
:2009E0000C6844F440740C600C6844F001040C600260BFF36F8F436010BD0000103C024002
:200A0000074A136823F440731360136843F480731360136843F00103136001807047000058
:200A2000103C0240074A136823F440731360136843F400731360136843F001031360016001
:200A400070470000103C02401C490868C2061C4805D5C26942F01002C26110220A600A68D6
:200A6000920605D5C26942F00802C26120220A600A68520605D5C26942F00402C261402242
:200A80000A600A68120605D5C26942F00202C26180220A600A68D20506D5C26942F0010274
:200AA000C2614FF480720A600A68920705D5C26942F02002C2610220086070470C3C024022
:200AC000D43A002070B5114904460020C86100F079FB06460E4D09E0601C07D024B100F0CA
:200AE00071FB801BA04201D9032070BD2868C003F2D42868C00701D001202860286810F465
:200B0000F970F2D0FFF7A0FF012070BDD43A00200C3C02400021A0F100634FF48042934220
:200B20003FD321490144914201D2012139E01F490144914201D2022133E01D49014491420C
:200B400001D203212DE01B490144B1F5803F01D2042126E0184942184FF400318A4201D2B7
:200B600005211EE0154A02448A4201D2062118E0134A02448A4201D2072112E0114A0244F1
:200B80008A4201D208210CE00F4A02448A4201D2092106E00D4A1044884201D20A2100E000
:200BA0000B2108467047000000C0FFF70080FFF70040FFF70000FFF70000FEF70000FCF7C4
:200BC0000000FAF70000F8F70000F6F70000F4F790F83510022903D0802141650120704773
:200BE000052180F835100068016821F001010160002070470B4A10B54FF0FF3010600021DD
:200C00001160121D10601160064A103A10601160121D10601160121D1060116000F03AFB93
:200C2000002010BD2038024070B5044600F0CAFA0546601C02D004480078044400F0C2FAB9
:200C4000401BA042FAD370BD18000020704770B50446006800F5805041694FF00005490695
:200C60004FF0010608D5204600F02EF82068402100F58050416109E04069C0070AD02046EC
:200C800000F028F8206800F58050466184F8446084F8455020684FF4803100F5805041613C
:200CA000206800F58050406900040CD52046FFF7CDFF20684FF4004100F58050416184F842
:200CC000446084F8455070BD0148006803F06EBA04000020704700002DE9F0470446234889
:200CE0000F46017E01290AD00121804601764CF250394846FFF7E6FE020003D030E0022087
:200D0000BDE8F0874FF0FF3038602068184D012801D0A6681DE0207C6168FFF72BFE4846AD
:200D2000FFF7D0FE0246286848F204018843286014E0217C3046FFF7C9FD4846FFF7C2FE7E
:200D40000200286820F0FA00286001D03E6005E0761CD4E902100844B042EAD8FFF7E0FDE7
:200D6000002188F818101046CAE70000D43A0020103C02400348016841F000410160002040
:200D800070470000103C02402DE9F0471B4E05461446307E1F468946012808D00120307609
:200DA0004CF250384046FFF78DFE18B114E00220BDE8F0879DB1012D16D0022D19D0224689
:200DC0003B464846FFF706FE4046FFF77BFE0C490A6822F001020A6000213176E8E7E1B2A5
:200DE0004846FFF7E7FDEFE7A1B24846FFF708FEEAE721464846FFF715FEE5E7D43A00200F
:200E0000103C0240074900200A68002A09DA054A054B0C3A1360054B13600968002900DAC6
:200E200001207047103C024023016745AB89EFCD2DE9F04F0022DFF854B101264FF00F09BB
:200E400006FA02F401EA0403A3427DD122F003075F44D7F808C895074FEA157809FA08FAB2
:200E60000AEA0C05DFF828C1604502D14FF0000C40E0DFF820C1604502D14FF0010C39E035
:200E8000DFF814C1604502D14FF0020C32E0DFF80CC1604502D14FF0030C2BE0DFF800C1C2
:200EA000604502D14FF0040C24E0DFF8F8C0604502D14FF0050C1DE0DFF8ECC0604502D118
:200EC0004FF0060C16E0DFF8E4C0604502D14FF0070C0FE0DFF8D8C0604502D14FF0080C5D
:200EE00008E0DFF8D0C0604502D14FF0090C01E04FF00A0C0CFA08FCAC4522D12E4DD5F86B
:200F000000C02CEA030CC5F800C005F1040CDCF800509D43CCF800500CF10405D5F800C0BE
:200F20002CEA030CC5F800C02D1DD5F800C02CEA030CC5F800C0D7F8085825EA0A05C7F88A
:200F400008580568570000E01AE00323BB409D430560D50800EB8505D5F820C057074FEA97
:200F6000D76809FA08F72CEA070CC5F820C0C5689D43C5604568A543456084689C4384604F
:200F8000521C102AFFF45CAFBDE8F08F00300140000002400004024000080240000C0240F6
:200FA000001002400014024000180240001C02400020024000240240003C014070470000D5
:200FC000044910B50A68024202D00860FFF7F6FF10BD0000143C01402DE9F84F00224FF008
:200FE000010803254FF00F0E0B6808FA02F42340A3426ED14E68012E05D0022E03D0112E76
:2010000001D0122E12D186684FEA420C05FA0CF7BE43CF6807FA0CF7374387604668A64331
:201020000C79C4F30014944034434460C668570005FA07FC8C6826EA0C06BC403443C4603D
:201040004C68022C01D0122C13D1D40800EB8404A346D4F8209054074FEAD46A0EFA0AF62D
:2010600029EA06090E6906FA0AF646EA0906CBF8206004680E7924EA0C0406F00306BE4047
:20108000264306604C68E4006FD53B4C266846F480462660246822F0030604F48044009413
:2010A000364C3444A446D4F808489607360F0EFA06F7BC43324FB84201D100272EE0314F48
:2010C000B84201D1012729E02F4FB84202D1022724E04AE02D4FB84201D103271EE02C4F86
:2010E000B84201D1042719E02A4FB84201D1052714E0294FB84201D106270FE0274FB842CB
:2011000001D107270AE0264FB84201D1082705E0244FB84201D1092700E00A27B7402743AF
:20112000CCF80878204E34684F689C43FF0300D51C4334601C4E361D34684F689C43BF0350
:2011400000D51C433460184E083634684F689C43FF0200D51C433460134E0C3634684F6832
:201160009C43BF0200D51C433460521C102AFFF43BAFBDE8F88F0000443802400030014027
:20118000000002400004024000080240000C0240001002400014024000180240001C0240CF
:2011A0000020024000240240003C0140426931EA020200D10904816170470AB18161704755
:2011C0000904FBE701488068704700001800002000684AF6AA210160002070470248816822
:2011E0000278114481607047180000200B4810B5016841F400710160016841F480610160E8
:20120000016841F480710160032000F09FF8002000F006F800F040F8002010BD003C024093
:2012200010B5014688B000221C2000F06FF81C2000F05FF814480024016841F001010160B5
:20124000006805A900F001000690684600F02AF900F048F90D494000B0FBF1F10C484FF049
:201260008042491E026040F2E732C0E90324C0E9011400F039FB10B1012008B010BD044833
:2012800000F06CFBF9E700004038024040420F00943A0020704700000C4882B0016841F403
:2012A00080410160006800F4804000900748001F016841F0805101600068002200F08050DC
:2012C00000900F21901E02B000F020B84438024000280DDB00F01F0201219140400980008B
:2012E00000F1E020C0F88011BFF34F8FBFF36F8F7047002809DB00F01F0201219140400964
:20130000800000F1E020C0F800117047F0B40E4B1B680C46C3F30223C3F10705042D00D965
:201320000425191D072901D2002300E0DB1E012606FA05F1491E214099409E40761E1640C9
:201340003143F0BC02F0B4B90CED00E0064900F0070208684FF6FF03184040EA0220034A45
:2013600010430860704700000CED00E00000FA052DE9F0470E46050065D0DFF81481D8F80C
:201380000000F7B200F00F00B04207D288F80070D8F8000000F00F00B04254D128683D4CEB
:2013A000810712D5400703D5206840F4E05020602878000703D5206840F460402060206850
:2013C000A96820F0F000084320602878C0072DD0304968680839012812D0022813D0032800
:2013E00011D00968890700292DDA216821F0030101432160FFF7E6FE814641F2883A0EE0F4
:2014000009688903EFE709688901ECE7FFF7DAFEA0EB0901514502D90320BDE8F087206890
:20142000696800F00C00B0EB810FEFD1D8F80010404601F00F01B14207D90770006800F0EB
:201440000F00B04201D00120E7E72878400705D52068E96820F4E05008432060287800077B
:2014600006D52068296920F4604040EAC100206000F058F82168084AC1F30311515CC840C0
:201480000649086006480068FFF7CAFE0020C4E7003C024008380240944C0008240000202A
:2014A0001C0000200F2202600C4A136803F003034360136803F0F0038360136803F4E05307
:2014C000C36012684FF4E05303EAD20202610448006800F00F000860704700000838024081
:2014E000003C02400448054900680968044AC1F38221515CC8407047240000200838024024
:20150000A44C00080448054900680968044AC1F34231515CC84070472400002008380240B9
:20152000A44C0008154810B5006810F00C02144813D01449042A0FD0082A0ED10F4C241FC3
:201540002268236802F03F025B0207D52068C0F38810A0FB010106E0084610BD2168C1F35C
:201560008811A1FB00010023FEF79CFE2168C1F30141491C4900B0FBF1F010BD083802407B
:201580000024F40040787D012DE9F84F04006ED02078DFF83C93C007A9F104054AD009F1A2
:2015A00004000168C1F38101012908D00068C0F3810002280AD1D9F80000400206D5286867
:2015C000800337D560680028E1D033E06068B0F5803F10D0B0F5A02F286810D020F4803014
:2015E0002860286820F4802028606068A8B1FFF7E9FD06460DE0286840F48030F4E740F4DE
:2016000080202860F7E700BFFFF7DCFD801B642873D828688003F7D50CE0FFF7D3FD0646E7
:2016200005E000BFFFF7CEFD801B6428F0D828688003F7D42078DFF89C8280074FF0000A1B
:201640003ED5A348001D016811F00C0F08D00068C0F3810002280BD1D9F80000400207D482
:201660002868800716D5E068012800D112E02BE1E068B8B10120C8F80000FFF7A3FD0646B4
:2016800005E000BFFFF79EFD801B0228C0D828688007F7D52868216920F0F80040EAC100C8
:2016A00028600DE0C8F800A0FFF78CFD064604E0FFF788FD801B02281FD828688007F7D48D
:2016C0002078000722D5824E83486169703671B101210160FFF776FD074604E0FFF772FDC5
:2016E000C01B022809D830688007F7D50EE0C0F800A0FFF767FD074605E082E0FFF762FD90
:20170000C01B02287DD830688007F7D42078400768D5DFF8BCB100270BF13C0BDBF80000E8
:20172000C0000BD4DBF8001041F08051CBF80010DBF80000012700F080500090674E3068BA
:20174000C00510D4306840F480703060FFF73AFD009005E0FFF736FD0099401A022850D884
:201760003068C005F6D55A4EA0686C3601280FD00528306810D020F001003060306820F0F9
:2017800004003060A068B8B1FFF71CFD00900FE0306840F00100F4E740F004003060F7E770
:2017A000FFF710FD0099411A41F28830814266D830688007F4D50EE0FFF704FD009007E002
:2017C000FFF700FD0099411A41F28830814256D830688007F4D42FB1DBF8001021F08051BA
:2017E000CBF80010A069C8B33949091D0968C1F3810102294AD00228504607D0C8F8600047
:2018000000E03CE0FFF7DEFC04463BE04746C8F86000FFF7D7FC064605E000BFFFF7D2FC6D
:20182000801B02282BD828688001F7D4D4E907010843A16A2A4A490802EB0141626A41EAFE
:201840008211084394F82C1040EA0161C9F8001001203866FFF7B6FC044606E036E000BF19
:20186000FFF7B0FC001B022809D828688001F7D52CE000BFFFF7A6FC001B022802D903201D
:20188000BDE8F88F28688001F4D41FE00128F7D0D9F80000E26900F48001914214D1226A7F
:2018A00000F03F0191420FD147F6C071626A0140914209D1A26A00F44031914204D1E16AB9
:2018C00000F07060884201D00120D9E70020D7E70438024000004742800E47420070004020
:2018E0000000FFFF7047704710B5040003D094F83D0010B107E0012010BD002084F83C00A9
:20190000204600F00DF8022084F83D00211D206801F0AEFB012084F83D00002010BD00006A
:2019200008B500680B49884212D10B48016841F0020101600068002200F0020000900521FE
:201940001D20FFF7E3FCBDE808401D20FFF7D1BC08BD000000040040403802400168CA686A
:2019600042F00102CA600068816801F00701062903D0016841F00101016000207047704731
:2019800070B50446006801694FF00005C943890715D4C168C943890711D4E91E0161012009
:2019A0002077206880698007204602D0FFF7E7FF04E000F098F8204600F096F82577206818
:2019C0000169C943490717D4C168C943490713D46FF004010161022020772068806910F4F6
:2019E000407F204602D0FFF7CAFF04E000F07BF8204600F079F8257720680169C943090779
:201A000016D4C168C943090712D46FF008010161042020772068C0698007204602D0FFF7C6
:201A2000AEFF04E000F05FF8204600F05DF8257720680169C943C90617D4C168C943C906CB
:201A400013D46FF010010161082020772068C06910F4407F204602D0FFF791FF04E000F008
:201A600042F8204600F040F8257720680169C943C90708D1C168C943C90704D1891E016178
:201A8000204600F032F820680169C943090609D4C168C943090605D46FF080010161204617
:201AA000FFF720FF20680169C943490609D4C168C943490605D46FF040010161204600F032
:201AC0001BF820680169C94389060BD4C168C943890607D46FF0200101612046BDE870404B
:201AE000FFF701BF70BD704770470068B0F1804F01D1FFF773BB7047704710B5040013D0AD
:201B0000242084F839002068C16821F40051C160204600F0C9F80020E06384F8390084F8E9
:201B20003A0084F8380010BD012010BD7047000070B5026804461068D168536910F00F0FE1
:201B400052D003F0010501F490762E435FD0C20705D0CA0503D5E26B42F00102E26342077A
:201B600005D5DA0703D0E26B42F00202E263820705D5DA0703D0E26B42F00402E263020725
:201B800007D501F020022A4303D0E26B42F00802E263E26B002A33D0800604D5880602D50A
:201BA000204601F0F1FA20684069E16BC0F38010090700D428B3204601F0D8FA2068416909
:201BC00049061AD5416921F040014161606BA0B11B490165606BFEF7FBFF002810D0606BB6
:201BE000016DBDE870400847830610D58B060ED52046BDE8704001F0C7BA2046FFF796FFD3
:201C000070BD2046FFF792FF0020E06370BD030606D50B0604D52046BDE8704001F094BB51
:201C20004006F3D54806F1D5D168204621F04001D160202184F8391000F043FB70BD0000FF
:201C40005D31000870B5040004D094F83900002510B106E0012070BD84F83850204600F0B8
:201C6000B9F8242084F839002068C16821F40051C160204601F0D4FA2068016921F4904185
:201C800001612068416921F02A0141612068C16841F40051C160E563202084F8390084F8C1
:201CA0003A00002070BD00002DE9F0413D4900683D4A3E4BCD143E4C88420DD1106820F4B9
:201CC0000020106001211846FFF7B2F829462046FFF7AEF834205EE03649374E88420DD1A5
:201CE000106820F48010106089142046FFF7A0F804213046FFF79CF835204CE02F49304F2A
:201D000088420AD1106820F0804010604FF4C0713846FFF78DF852203DE02A49884209D153
:201D2000106820F00040106003213846FFF780F8532030E0244988420CD11B48001D0168DB
:201D400021F0100101604FF4C0611846FFF770F8252020E01D4988420DD1106820F40030D1
:201D6000106008211846FFF763F820213046FFF75FF826200FE01649884210D1106820F44C
:201D80008020106009152046FFF752F829462046FFF74EF82720BDE8F041FFF799BABDE853
:201DA000F0810000004C004040380240000002400008024000500040000C0240007800404A
:201DC00000100240007C00400010014000440040004800402DE9F04F87B0044614216846DF
:201DE000FEF7B8FAAD49DFF8B0C22368AB4A10390127022403250826A948DFF8A8A24FF03F
:201E000000084FF40069634530D1136843F400231360126802F4002205920A6842F001024D
:201E20000A600A6802F0010205920A6842F004020A600968CDE9007401F00401CDE904617A
:201E4000CDE902756946FFF7C7F8CDF80090CDE90147CDE9035669465046FFF7BDF800227D
:201E600005213420FFF752FA342034E0DFF838C2634535D1106840F480101060106800F4A7
:201E800080100590086840F004000860086800F004000590086840F00800086008686946E9
:201EA00000F0080005904FF480508DE89100CDE903565046FFF790F804208DE89100CDE979
:201EC000035669467948FFF787F8002205213520FFF71CFA3520FFF70CFA07B0BDE8F08FEF
:201EE000DFF8CCC1DFF8CCB1634520D1106840F080401060106800F080400590086840F05C
:201F0000100008600868694600F0100005904FF4C0708DE89100CDE903565846FFF75CF825
:201F2000002205215220FFF7F1F95220D3E7DFF888C163451FD1106840F000401060106853
:201F400000F000400590086840F0100008600868CDE9005400F01000CDE90460CDE90275E3
:201F600069465846FFF738F8002205215320FFF7CDF95320AFE7DFF844C10727634521D1CA
:201F8000464A121D136843F010031360126802F0100205920A6842F001020A60096801F0C6
:201FA000010105914FF4C0618DE81201CDE903576946FFF711F8002205212520FFF7A6F9BD
:201FC000252088E7DFF8F8C063452FD1136843F400331360126802F4003205920A6842F0E1
:201FE00001020A600A6802F0010205920A6842F008020A600968CDE9028501F00801CDE900
:202000000471CDE900646946FEF7E6FF20208DE81101CDE9035769462448FEF7DDFF0022C3
:2020200005212620FFF772F9262054E7254883427FF453AF106840F480201060106800F483
:2020400080200590086840F002000860086800F002000590086840F004000860086869461F
:2020600000F00400059018158DE81101CDE903575046FEF7B1FFCDF80090CDE90148CDE9CE
:20208000035769465046FEF7A7FF002205212720FFF73CF927201EE7004C004040380240BA
:2020A000000002400008024000500040000C02400078004000100240007C0040001001409F
:2020C000004400400048004090F83A30202B22D1F9B1F2B190F83830012B1CD08162828585
:2020E000C2850021C163222280F83A2080F838100168CA6842F48072CA6001684A6942F043
:2021000001024A610068C16841F02001C160002070470120704702207047000010B52F4C45
:202120000368A11500222E48A34218D10378FE2B10D002708388FF2B07D982802948FEF7A5
:2021400009F929A001F096FB04E0264AC178D1545B1C838022490122C91C264838E0264C9B
:20216000A34219D14378FE2B10D04270C388FF2B07D9C2802148FEF7EDF81BA001F07AFB1F
:2021800004E01E4AC178D1545B1CC380144919480122C91C40301BE0194CA3421CD1837878
:2021A000FE2B10D082700389FF2B07D902811548FEF7D0F80CA001F05DFB04E0114AC17884
:2021C000D1545B1C038106490A480122C91C4038BDE81040FFF778BF10BD0000001001407E
:2021E00008000020EC310020CAFDBEDDD2E7B3F6000000002C35002000480040EC3200206F
:2022000000780040EC3300202DE9F843044690F839001F4616460D46202850D1B5B1AEB129
:2022200094F8380001284AD0012084F838004FF00008C4F83C80212084F83900FEF7C2FF57
:20224000A6848146E68484F8388026E00120BDE8F883E08C401EE084A0684B46B0F5805F5D
:202260004FF000024FF080012046009703D001F09CF8E8B90DE001F098F8C8B9288821683F
:20228000C0F308004860206908B16D1C05E0AD1C03E0216815F8010B4860E08C0028D8D1F8
:2022A0004B46002240212046009701F07EF808B10320CCE7202084F839000020C7E7022032
:2022C000C5E7704710B541680822B2EB116F39D101681D4A1140B1F1005F33D144680068A2
:2022E00080F3088819A001F0C5FA1C48FFF705FCFEF780FC1A48016821F0010101600168FE
:2023000021F002010160016821F004010160016821F008010160016821F01001016001682F
:2023200021F020010160016821F0800101600C481030016821F48011016072B6A446BDE8F3
:202340001040604710BD00000000F02F0D0A6A756D7020746F206170700D0A00D43900201F
:2023600030380240F0B5374D87B017226946284600F092F8684601F095FA9DF81400002488
:20238000314E324F012807D031A001F073FA9DF81500012831D04CE030A001F06BFA01F0F7
:2023A00049F810B101280CD01CE08DF814408DF815408DF8164017226946304600F070F8D6
:2023C00017E001F0CFFF17226946384600F064F817226946304600F063F817226946284696
:2023E00000F05AF88DF8154001208DF814008DF8164017226946284619E09DF816000A2800
:202400001CD31AA001F036FA01F0ACFF8DF814408DF8164017226946284600F041F81722EA
:202420006946384600F038F817226946304600F037F814A001F01EFA07B0F0BD401C8DF8D0
:202440001600D6E700A0010800000108005001080D0A20CEDEB8FCD0C2A3A1000D0A20D327
:20246000D0B8FCD0C2CAFDBEDDA3A1000D0A20B8FCD0C2CAA7B0DC20CDCBBBD8B8FCD0C295
:20248000A3A100000D0A20CCF8D7AAB5BDD6F7B3CCD0F20001F0ECBD01F0EABD01F0E8BD34
:2024A0002DE9F0431E4D93B0904689460446172269462846FFF7F0FF1A4E172206A9304635
:2024C000FFF7EAFF184F17220CA93846FFF7E4FF0420FEF7D5F9AC4203D142464946684603
:2024E0000AE0B44203D14246494606A804E0BC4204D1424649460CA800F046FD17226946C6
:20250000284601F0C8FD172206A9304601F0C3FD17220CA9384601F0BEFD13B0BDE8F08395
:20252000000001080050010800A0010801F0B3BD10B5174C2068800102D516A001F09AF9ED
:202540002068400102D51BA001F094F92068000102D51FA001F08EF92068C00002D521A02B
:2025600001F088F92068800001D522A008E02068400001D526A003E02068002802DA2AA0C4
:2025800001F078F9206840F08070206010BD0000743802400D0AB7A2C9FA20504F522F5033
:2025A000445220B8B4CEBBBBF220424F5220B8B4CEBB00000D0AB7A2C9FAC0B4D7D4204EEB
:2025C00052535420D2FDBDC5B5C4B8B4CEBB00000D0AB7A2C9FA20504F522F50445220B8F2
:2025E000B4CEBB000D0AB7A2C9FAC8EDBCFEB8B4CEBB00000D0AB7A2C9FAC0B4D7D4B6C03F
:20260000C1A2BFB4C3C5B9B7B8B4CEBB000000000D0AB7A2C9FAB4B0BFDABFB4C3C5B9B75C
:20262000B8B4CEBB000000000D0AB7A2C9FAB5CDB9A6BAC4B9DCC0EDB8B4CEBB00000000DC
:2026400070B50024234608E0CD181B1DEE782D6866F31F6540F82450641C9342F4D370BDF6
:2026600070B500231C4611E011F82350055531F823502E0A05196E7051F82360360CAE70ED
:2026800051F823605B1C360EEE70241D9442EBD370BD00007CB5044600880E46C0F3C50084
:2026A000382802D2C0F1380501E0C0F17805082221466846FFF7D4FF2A460849204600F0CA
:2026C0007FFB08226946204600F07AFB102204F108013046FFF7C4FF7CBD000078000020AC
:2026E000002101604160054981600549C1600349C94301610249C9434161704701234567DF
:2027000089ABCDEF2DE9F0410446C0B054F8048B402294E8E0006846241FFFF791FF05EAC9
:20272000060027EA05010843FE49009A014402EB0800084405EB706000EA050126EA000208
:202740001143F94A1144019A3A44114400EB315303EA000125EA03021143F44A1144029A2B
:202760003244114403EBF13101EA030220EA01063243EF4E3244039E35442A4401EBB2220D
:2027800002EA010523EA02063543EA4E3544049E3044284402EB706000EA020521EA0006C8
:2027A0003543E54E3544059E33442B4400EB335303EA000522EA03063543E04E3544069E31
:2027C0003144294403EBF13101EA030520EA01063543DB4E3544079E32442A4401EBB222A0
:2027E00002EA010523EA02063543D64E3544089E3044284402EB706505EA020021EA05066E
:202800003043D14E3044099E3344184405EB305000EA050322EA000633430A9EA3F52443A7
:2028200031444F3B194400EBF13303EA000125EA03063143C54E31440B9E3244114403EBC9
:20284000B12101EA030220EA01063243C04E32440C9E35442A4401EB726202EA010523EA5C
:2028600002063543BB4E35440D9E3044284402EB305505EA020021EA05063043B64E304467
:202880000E9E3344184405EBF03000EA050322EA00063343B14E33440F9E3144194400EB4F
:2028A000B12101EA050320EA05063343AC4E3344019E32441A4401EBF26202EA000321EAAA
:2028C00000063343A74E3344069E35442B4402EBF35303EA010522EA01063543A24E35446A
:2028E0000B9E3044284403EBB04000EA020523EA020635439D4E3544009E3144294400EB24
:20290000313101EA030520EA03063543984E3544059E32442A4401EBF26202EA000521EAB5
:2029200000063543934E35440A9E33442B4402EBF35303EA010522EA010635438E4E35442B
:202940000F9E3044284403EBB04000EA020523EA02063543894E3544049E3144294400EBCF
:20296000313101EA030520EA03063543844E3544099E32442A4401EBF26202EA000521EA65
:20298000000635437F4E35440E9E33442B4402EBF35303EA010522EA010635437A4E3544EF
:2029A000039E3044284403EBB04000EA020523EA02063543754E3544089E3144294400EB8B
:2029C000313101EA030520EA03063543704E35440D9E32442A4401EBF26202EA000521EA15
:2029E000000635436B4E3544029E33442B4402EBF35303EA010522EA01063543664E3544C3
:202A0000079E3044284403EBB04000EA020523EA02063543614E35440C9E31442944059D7F
:202A200000EB3131154481EA00025D4E5A4032442A44089D01EB32721D4482EA01034340D1
:202A4000584E33442B440B9D02EB7353054483EA0200554E48403044284403EB30450E98C3
:202A6000524E014485EA030050403044084405EB70260198811886EA05004D4A58401044FF
:202A8000084406EB30720498C11882EA0600494B684018440844079902EB70504B1980EA71
:202AA0000201454D7140294419440A9B00EB31419D1981EA0003414E534033442B440D9D2E
:202AC00001EB7323154483EA01023D4E424032442A44009D03EB3272054482EA0300394E4C
:202AE00048403044284402EB70550398364E014485EA020058403044084405EB3041069890
:202B0000324E034481EA0500504030441844099B01EB7020134480EA01022D4E6A4032449F
:202B20001A4457E078A46AD756B7C7E8DB702024EECEBDC1AF0F7CF52AC68747134630A800
:202B4000019546FDD8988069AFF7448BBED75C892211906B937198FD8E4379A62108B44977
:202B600062251EF640B340C0515A5E26AAC7B6E95D102FD65314440281E6A1D8C8FBD3E70C
:202B8000E6CDE121D60737C3870DD5F4ED145A4505E9E3A9F8A3EFFCD9026F678A4C2A8D6E
:202BA0004239FAFF81F6718722619D6D0C38E5FD44EABEA4A9CFDE4B604BBBF670BCBFBE49
:202BC000C67E9B28FA27A1EA8530EFD4051D880439D0D4D90C9B00EB32721D4482EA000360
:202BE000644E4B4033442B440F9D02EB73530D4483EA0201604E414031442944029D03EBF4
:202C00003141054481EA03005C4E50403044284401EB702500985A4E024465EA0300484090
:202C200030441044079A05EBB060134460EA0102544E6A4032441A440E9B00EBB2520B4480
:202C400062EA0501504E414031441944059B02EB71411D4461EA00034C4E534033442B4430
:202C600001EBF3250C9B4A4E034465EA020048403044184405EBB0660398464B024466EA59
:202C8000010068401844104406EBB0530A98014463EA0500404A704010440844019903EB4C
:202CA00070404A1960EA06013C4D594029441144089A00EBF121951961EA0302384E424027
:202CC00032442A440F9D01EBB2621D4462EA0003344E4B4033442B44069D02EBB3530544E2
:202CE00063EA0100304E50403044284403EB70450D982E4E014465EA0200584030440844E6
:202D0000049905EBF0200A4460EA0301284E6940314411440B9A00EBB161134461EA050246
:202D2000244E424032441A4401EBB253029A224E154463EA00024A4032442A44099D03EB24
:202D40007242054462EA01001C4E584030442844256802EBF02029442160616808446060FA
:202D6000A0681044A060E0681844E06040B0BDE8F0810000E599DBE6F87CA21F6556ACC46E
:202D8000442229F497FF2A43A72394AB39A093FCC3595B6592CC0C8F7DF4EFFFD15D8485D1
:202DA0004F7EA86FE0E62CFE144301A3A111084E827E53F735F23ABDBBD2D72A91D386EB71
:202DC0002DE9F047054616462A680F46C2F3C50102EBC60200202A60B2EBC60F6A68C1F148
:202DE000400401D2521C6A6002EB56726A60A64218D36818224639461830FDF784FA05F11B
:202E0000080005F118018146FFF77CFC204604E039184846FFF776FC404600F14008B04521
:202E2000F6D90021321A3B186818BDE8F04719461830FDF768BA00000C4810B50A4901601D
:202E40004FF4E1314160002181600C22C160C0E904128161C161FEF7F5FE002803D0BDE8E0
:202E60001040FDF731BD10BD004800406C350020FEE730B5044687B00D46012080F3108840
:202E800000F022F82046FDF745FE04460020009002942846FDF73EFE001B401C0390022031
:202EA000049005A96846FDF717FF38B1FDF762FF002080F31088012007B030BDFDF75AFF9D
:202EC000002080F31088F7E710B5FDF79BFF0249F320086010BD00000C3C02402DE9F05F14
:202EE000904600268B4605463746044600EB080A35E000BFAAEB0400012815D0022819D068
:202F000003281ED0601B1BF800205844D0F8010042EA002081460246A91900230220FDF72F
:202F200033FFA8B101271CE0611B1BF8010060F0FF00EFE7611B01EB0B000088A0F58030ED
:202F4000E8E7611B01EB0B00006840F07F40E1E7A959494501D0022703E0241D361D464584
:202F6000C8D33846BDE8F09F704730B5002307E0C45CCD5CAC4201D0002030BD5B1C9BB285
:202F80009342F5D3012030BD10B5002303E0CC5CC4545B1C9BB29342F9D310BD10B5502014
:202FA00080F31188BFF34F8FBFF36F8F01F024FD18B104494FF080500860002080F31188FA
:202FC00010BD000004ED00E010B592B030216846FDF7C0F914210CA8FDF7BCF9154800248D
:202FE000016841F080510160006800F0805011901148016821F4404141F480410160006825
:20300000069400F4404011900220009001200390102004906846FEF7B7FA0F20CDE90C048E
:203020000E940F9400210CA81094FEF7A1F912B010BD000040380240007000400548016894
:2030400041F47001016003494FF00060803908607047000088ED00E00148FEF791BC0000C6
:20306000943A00200148FEF78BBC0000AC310020F0B50268254C264D264E274F274B4FF052
:20308000804CA04209D0604507D0A84205D0B04203D0B84201D0984204D122F0700E4A68ED
:2030A00042EA0E02A0421BD0604519D0A84217D0B04215D0B84213D0984211D0184DA842EA
:2030C0000ED0184DA8420BD0174DA84208D0174DA84205D0164DA84202D0164DA84203D15F
:2030E00022F44075CA682A434D6922F080022A4302608A68C2620A688262A04201D0984254
:2031000001D10969016301214161F0BD000001400004004000080040000C00400004014038
:2031200000400140004401400048014000180040001C0040002000400148FEF7F9BC0000F9
:20314000943900200148FEF7F3BC0000D43900200148FEF7EDBC0000143A002010B5806B63
:203160000021C185C184FEF7E1FC10BD0168CA6822F49072CA6001684A6922F001024A614B
:20318000202180F83A10704710B590F83A10222901D0022010BD8168B1F5805F11D001691A
:2031A000002901681FD0496801F07F03816A4A1C82620B70C18D491E0904090CC18518D0B5
:2031C0002BE00269816A002A0268526805D0D2B20A80816A491C8162ECE7C2F308020A800E
:2031E000816A891CF7E74A68816A4B1C83620A70E0E70168CA6822F02002CA600168CA68A3
:2032000022F48072CA6001684A6922F001024A61202180F83A10FEF781FF002010BD00003B
:203220002DE9F041044600680169E26821F44051114301612169A068E2690843616911433F
:2032400008432168CA6849F20C639A430243CA6020684169A26921F4407111434161E06930
:20326000192764253226B0F5004F354A354920684FF0000806D0884201D0904236D1FEF72E
:2032800041F935E0884201D0904202D1FEF73AF901E0FEF727F961684A18A0FB070148EB80
:2032A0000803FCF7FFFF0146B0FBF5F00201B1FBF5F06FF01803584301EB800006EBC00075
:2032C000B0FBF5F000F0F80002EB4002B1FBF5F0584301EB800006EBC000B0FBF5F000F07E
:2032E0000700216810448860BDE8F081FEF7FAF861688B0F8A00A0FB0701FCF7D3FF014669
:20330000B0FBF5F06FF01802504301EB800006EB0010B0FBF5F000F0F002B1FBF5F002EBB4
:203320000012B1FBF5F06FF01803584301EB800006EB0010B0FBF5F000F00F00D1E7000021
:20334000001401400010014090F83910212901D0022070478168B1F5805F016A0BD04A1CE8
:203360000262026809785160C18C491E0904090CC1840ED017E009880268C1F308015160F4
:2033800001690029016A02D0491C0162ECE7891CFBE70168CA6822F08002CA600068C16851
:2033A00041F04001C160002070472DE9F041984617460E460446069D1DE0681C1BD02DB196
:2033C000FDF700FFA0EB0800A84214D92068C16821F4D071C1602068416921F00101416181
:2033E000202084F8390084F83A00002084F838000320BDE8F0812068006836EA000004D031
:203400000020B842D9D00020F3E70120F9E700000148FEF78DBB00002C3500200148FEF7A9
:2034200087BB0000543A00200148FEF781BB00006C3500202DE9F04FA9B000272397249717
:2034400025972697189719971A9768461B97FFF747F917221DA94D48FFF720F84CA000F0CF
:2034600009FA1DA800F01EFA1D981EAD00BA20F0FF049DF87700044395E80F0023AD85E813
:203480000F00601C39D0DFF81881224641466846FFF796FC18A96846FFF7FCF841A000F0D9
:2034A000E9F9002518AE44A0715D00F0E3F96D1CADB2102DF7D3102218A923A8FFF755FDCC
:2034C00000281FD03EA000F0D5F90120FDF7D8F9C4F34F36E00401D0761CB6B2C4F30C02A3
:2034E00031463EA000F0C6F94148C14600254FF4005A80464FF0320B28E021463DA000F0F8
:20350000B9F902E044A000F0B5F9022029B0BDE8F08F00BF09EB453052464C49FEF7BEFF6F
:203520004B48FDF755FE08EB453052464749FEF7FDFFB5FBFBF10BFB115010B945A000F08F
:2035400099F945A000F096F96D1CADB2B542E1D3189719971A9768461B97FFF7C1F822465B
:2035600041466846FFF72CFC18A96846FFF792F8102218A923A8FFF7F8FC08B10020C5E7DC
:2035800036A000F077F90120C0E7000000A001080D0A20B8FCD0C2C7F8D0C5CFA2A1FD00A4
:2035A00000000A080D0A20B8FCD0C2C7F8BCC6CBE36D64353A00000025303278000000004E
:2035C0000D0A20D5FDD4DAB2C1B3FDD5FBB8F6415050B3CCD0F2C7F8000000000D0A20D0AB
:2035E000B4C8EBB0FCCAFD25642E256400000000000002080D0A204552524F523AB8FCD028
:20360000C2C7F8CAFDBEDDB3A4B6C8B2BBB6D43A30782530387800000D0A204552524F5253
:203620003AB8FCD0C2D0C5CFA2C7F8C0EF6D6435BACD464C415348B6C1B3F6BCC6CBE3B596
:20364000C46D6435B2BBCFE0CDAC0000843C0020B80000200D0A00003E0000000D0A204582
:2036600052524F523AB8FCD0C2BAF3B5C46D6435BACDB8FCD0C2D0C5CFA2C7F8C0EF6D6447
:2036800035B2BBCDAC000000FEE7000037B514460846064B6A46214600F04EF904466946FE
:2036A000002000F0E0FC20463EBD0000674000080907090E002804DB00F1E02080F8001463
:2036C000704700F00F0000F1E02080F8141D704702E008C8121F08C1002AFAD170477047D4
:2036E000002001E001C1121F002AFBD1704700002DE9FF5F82B00021DDE90430020DDDF884
:2037000040B0034318D044F61050A2F2FF3242431514119801281FD0A5EB0B00401C5FEA7D
:20372000000A4FF000064E4FDFF83891B046504615D5CAF1000413E0119801244AA30128F1
:2037400001D16FEA0B010298119AC0E90031C0E9024206B0BDE8F09FCBF10000DFE7044670
:203760000021404A491842EB0450CDE9001012E0E00707D032463B4640464946FCF7FCFD4C
:203780008046894632463B4610461946FCF7F4FD06460F466410002CEAD1DDE90401DDE975
:2037A0000023BAF1000F06DAFCF7E6FD42464B46FCF7E2FD05E0FCF751FE42464B46FCF758
:2037C0004DFE04460E460022284BFDF707F803D84FF0FF30014607E00022254B2046314692
:2037E000FCF73DFFFCF7E2FF102409E0002C0ADB0A220023FCF756FD039B30321A55641E12
:2038000050EA0102F2D1641C039AC4F111031444119A012A03D0012208430DD10AE0084340
:2038200004D000204FF0110B119072E7A3EB0B056D1E0DE05B4504DD4FF0000205F101056B
:2038400004E003DA4FF00002A5F10105002AECD002981199C0E90231C0E9004579E7000076
:20386000000014400000F03F300000000000F0430000E03F0FB40A4810B503AA0299FFF72B
:2038800005FF0748FCF771FD054982B24FF48053A1F14000FEF7B8FC10BC5DF814FB000031
:2038A000AC35002070B50546006801BA0EA0FFF7E1FF11A0FFF7DEFF00242819017911A0DC
:2038C000FFF7D8FF641CE4B2102CF6D3297D0FA0FFF7D0FF697D10A0FFF7CCFFA97DBDE8C4
:2038E000704010A0FFF7C6BF0D0A20CEC4BCFEB3A4B6C83A257500000D0A20CEC4BCFE4DF1
:2039000044353A0025303278000000000D0A20B1EACAB6313A2575000D0A20B1EACAB6321A
:203920003A2575000D0A20B8B4CEBBB4CECAFDA3BA25750D0A0000002DE9FF4F95B09B46A6
:203940008946064600250FE2252877D100242746F84A0121059400E0044316F8013F203B43
:2039600001FA03F01042F7D130782A2811D06FF02F033078A0F13002092A16D8059A44F074
:20398000020402EB820203EB42021044761C0590EFE759F8042B0592002A03DA504244F445
:2039A0000054059044F00204761C30782E2816D116F8010F44F004042A280DD06FF02F0254
:2039C0003078A0F13003092B09D807EB870302EB4303C718761CF3E759F8047B761C307862
:2039E0006C280FD006DC4C2817D068280DD06A2814D104E0742810D07A280FD10DE044F42C
:203A000000140AE044F4801401E044F440147278824202D104F58014761C761C3078662807
:203A20000BD013DC582877D009DC002875D04528F6D04628F4D047281AD19DE118E06328E3
:203A400035D0642879D0652812D195E1702873D008DC6728F1D069286FD06E280DD06F28BD
:203A600006D1B5E073282CD0752875D0782874D05A46179990476D1C75E1C4F30250022844
:203A800009D003280DD0D9F8001004280DD00D6009F1040967E1D9F80010EA17C1E90052C1
:203AA000F6E7D9F800100D80F2E70D70F0E719F8041B8DF8001000208DF80100EA460120D2
:203AC00003E059F804AB4FF0FF3061074FF0000102D40DE008F101018846B9420FDA8045B8
:203AE000F8DB1AF808100029F4D108E008F1010188468142FADB1AF808100029F6D10598DB
:203B00005B46A0EB080721463846179A00F094FA284400EB080507E04DE029E10DE01AF8D5
:203B2000010B5A4617999047B8F10108F7D25B4621463846179A13E142E00A220092C4F315
:203B400002524FF0000A022A08D059F804CB032A4FEAEC710AD00DE029E02AE009F1070105
:203B600021F00702F2E802C1914609E00FFA8CFC4FEAEC71042A03D14FFA8CFC4FEAEC713E
:203B8000002907DA0A460021DCF1000C61EB02012D2202E0220504D52B228DF80420012238
:203BA00003E0E20701D02022F7E7904659E00A2102E010220DE010214FF0000A00910BE017
:203BC00010224FF0000A44F004040827009203E008224FF0000A0092C4F30252022A05D079
:203BE00059F804CB0021032A08D009E009F1070121F00702F2E802C1914605E01FFA8CFC80
:203C0000042A01D10CF0FF0C4FF00008220728D5702806D0009B83F0100353EA0A0305D082
:203C20000EE040228DF80420012208E05CEA010206D030228DF804208DF8050002229046E2
:203C4000009B83F0080353EA0A030AD15CEA010201D1620705D530228DF804204FF0010885
:203C60007F1E582804D034A003900EA802900DE036A0F9E753466046009AFCF713FB84465D
:203C80000398825C0298401E029002705CEA0100F0D1029806A9081A00F1200A600702D5E3
:203CA00024F4803400E00127574502DDA7EB0A0000E0002000EB0A01009005984144401A17
:203CC0000590E00306D45B462146179A059800F0B3F90544002706E001A85A46C05D179934
:203CE00090476D1C7F1C4745F6DBE0030CD55B462146179A059800F09FF9054404E030204D
:203D00005A46179990476D1C0099481E00900029F5DC08E0029802995A460078491C02913D
:203D2000179990476D1CBAF10001AAF1010AF1DC65E1000009280100303132333435363740
:203D40003839616263646566000000003031323334353637383941424344454600000000FB
:203D600000F058F90544761C307800287FF4ECAD19B02846BDE8F08F620700D4062709F18C
:203D8000070222F0070CFCE80223E14603F000485FEA080C02D00FF2702C0DE05FEA045C28
:203DA00002D50FF2682C07E05FEAC47C02D00FF2602C01E0AFF2700C4FF0FF3823F00043FE
:203DC000CDF850C065280CD006DC452809D046281DD047283DD13DE0662818D067287ED134
:203DE00038E00021112F01DB112000E0781CCDE9000106A90EA8FFF77BFCDDE90F010E9AC2
:203E000003910021009207F1010A04914DE04FF000400097CDE9011006A90EA8FFF768FCFA
:203E2000DDE90F0203920E9B11990022DDF80CA00093049211B9791C00EB010AB7EB0A00F6
:203E400004D4C0F1FF3007F1010A0490AAEB0700019044E0012F00DA01270021112F01DD51
:203E6000112000E03846CDE9000106A90EA8FFF73FFCDDE90F010E9A03910021049100920C
:203E8000BA4621070CD40399514500DA8A46BAF1010F05DD009AAAF10101515C302908D08C
:203EA000B84202DA10F1040F06DA0121CDE9011015E0AAF10101E9E7002805DC0499014402
:203EC0000491AAEB000102E0411C514500DD8A460499401A401C01904FF000400290200719
:203EE00004D40198504501DBCDF8048000208DF84F0002980DF14F07B0F1004F25D02B2085
:203F00000E9002984FF0020800280CDA404202902D200E9007E00A210298FCF70EFB30310A
:203F2000029007F8011DB8F10001A8F10108F2DC02980028EFD1791E0E980870307800F0E9
:203F4000200040F0450007F8020D12A8C01B00F107081498007800B1012000EB0A010198A4
:203F600001EBE07105984144401A401E0590E00306D45B462146179A059800F05DF80544F4
:203F80001498007818B15A46179990476D1CE00324D55B462146179A059800F04DF80544D4
:203FA0001CE00498002807DBDDE90301884203DD0098405C179901E0179930205A469047AF
:203FC000049805F10105401C04900198401E019004D12E205A46179990476D1CBAF1000152
:203FE000AAF1010ADDDC05E017F8010B5A46179990476D1CB8F10001A8F10108F4DC5B46F5
:204000002146179A0598ABE62D0000002B000000200000002DE9F041044600251E4617466B
:20402000880404D405E039462020B0476D1C641EF9D52846BDE8F0812DE9F041044600256E
:204040001E469046C80301D5302700E02027880404D505E041463846B0476D1C641EF9D5E8
:204060002846BDE8F0810A68531C0B601070704710B58318B3F1016F02D80AB1002306E027
:20408000012010BD10F8014B01F8014B5B1C9342F8D3002010BD70B51446054620440E4613
:2040A000B0F1016F01D9012070BD74B1012080F31088FEF709FF224631462846FEF70EFF2A
:2040C000FCF758FE002080F31088002070BDEFF30580002800D001207047000086B014217D
:2040E0006846FCF737F9FDF781F8FEF76DFF0120009001900020164C029003906946204623
:20410000FCF76AFF012211462046FDF756F8FEF793FE10A0FFF7AEFBFEF70AFA14A0FFF7A9
:20412000A9FBFEF71FF901212046FDF73FF81B4D2846FEF7C7F86420FCF776FD012120461F
:20414000FDF734F816A0FFF795FB00F00BF9EFE7000402400D0A5573657220556172742061
:20416000496E697420737563636573730D0A00000D0A2A2A2A2A2A2A2A2A2A2A2A2A2A2A18
:204180002A2A2A2A2A2A426F6F742A2A2A2A2A2A2A2A2A2A2A2A2A2A2A2A000000000208E5
:2041A0000D0A4150502045727200000038B5002405460094FFF78BFF90B16946284600F000
:2041C00085FB012801D0FF2038BD009888B10A494FF080500860BFF34F8FBFF36F8F08E08E
:2041E00000231A461946284600F0C0FA012800D0FF24204638BD000004ED00E02DE9F04136
:20420000184C0F46054666692068001D00F0AEF938B9206890F82C1001208840A16981439B
:20422000A161681C07D137B12168BDE8F0410E48091D00F0C6B920683544B54245602168C8
:2042400005D2A068BDE8F041091D00F0A2B96068091D00F09EF9206B854200D22563BDE872
:20426000F081000028000020703C00202DE9F041856B174604460026026C82B1C7B1E06854
:20428000FCF741F8E168206C091AE1602268914202D2A168081AE060022F16D017E0206887
:2042A000A8B9A06800F00CFC06460020A0600EE06068FCF728F8216C606808446060A168FE
:2042C000884204D32068606001E005B16D1E6D1CA5633046BDE8F08106484168096829B174
:2042E0004168C968C9684968016370474FF0FF31FAE70000280000202DE9F041044600F0CE
:204300006DF994F9455004F1240609E0606A48B1304600F021FC08B100F0C6F96D1E6DB2B5
:20432000002DF3DC4FF0FF3684F8456000F076F900F054F994F9445004F1100709E02069B1
:2043400048B1384600F008FC08B100F0ADF96D1E6DB2002DF3DC84F84460BDE8F04100F017
:204360005DB900002DE9F043ADB0002013901490159012900E900F901090119016A8FEF7A2
:20438000AFF9172208A94348FEF786F842A0FFF771FA08A8FFF786FA09AC94E80F0012AC26
:2043A00084E80F00089800BA20F0FF049DF823000443601C10D03E4E082202A93046FEF7EE
:2043C00069F802993B480140B1F1005F07D00299014039A0FFF74EFA2DB0BDE8F0832246F5
:2043E000314616A8FEF7ECFC0EA916A8FEF752F93AA0FFF73FFA00250EAF3FA0795DFFF760
:2044000039FA6D1CADB2102DF7D310220EA912A8FEF7ABFD0128DFD139A0FFF72BFA42A08B
:20442000FFF728FA0120FCF72BFAC4F34F35C4F30C02E00401D06D1CADB2294641A0FFF748
:2044400019FA00244FF40057DFF80C814FF032091CE000BF06EB44303A464049FEF71AF87D
:204460003F48FCF7B5FE08EB44303A463B49FEF75DF8B4FBF9F109FB114010B939A0FFF7D4
:20448000F9F939A0FFF7F6F9641CA4B2AC42E1D3A2E70000005001080D0A20B1B8B7DDC717
:2044A000F8C4DAB5C4CAFDBEDDD0C5CFA2A1FD00000006080000F02F0D0A20B1B8B7DDC7BF
:2044C000F8C4DAB2BBCAC7D5FDC8B7B5C4B3CCD0F23A307825303878000000000D0A20BC63
:2044E000C6CBE3B1B8B7DDC7F8C4DAB5C4B3CCD0F24D4435A3BA0000253032780000000012
:204500000D0A20637263D5FDC8B7B8B4D6C6B1B8B7DDC7F8C4DAB3CCD0F2B5BDB3CCD0F285
:20452000D4CBD0D0C7F800000D0A20D5FDD4DAB2C1B3FDD5FBB8F6415050B3CCD0F2C7F844
:20454000000000000D0A20D0B4C8EBB0FCCAFD25642E25640000000000000208843C002050
:20456000B80000200D0A00003E000000D0E9013201699A60D0E901235A604A68824201D1DF
:2045800082684A60002202610868401E08600868704730B50B685A1C02D000F1080202E028
:2045A000026904E02246546825689D42FAD953684B6099608A60516008610168491C0160B7
:2045C00030BD42684A6093688B6093685960916008610168491C016070470000502080F3DD
:2045E0001188BFF34F8FBFF36F8F0A494868401C486001280CD10848006810F0FF0F07D038
:20460000502080F31188BFF34F8FBFF36F8FFEE7704700006C00002004ED00E008494868E4
:2046200028B1401E486001D180F311887047502080F31188BFF34F8FBFF36F8FFEE7000065
:204640006C00002010B5FBF717FE114910280ED300F1E02090F8F0030A78904207D2502086
:2046600080F31188BFF34F8FBFF36F8FFEE709480068896800F4E060884207D9502080F39E
:204680001188BFF34F8FBFF36F8FFEE710BD00006C0000200CED00E002498A6A02604969D7
:2046A000416070472800002001490120486270472800002010B50C4650B109490968183122
:2046C000FFF767FF2046BDE810400121FFF796BD502080F31188BFF34F8FBFF36F8FFEE717
:2046E000280000200248816B491C816370470000280000201A4810B5816B11B1012141625A
:2047000010BD00214162174909680164C36B994204D90268CB1AD46C2344D364C1638169B1
:20472000114AB1FA81F1C1F11F0101EB810152F821306BB102EB810101F108034A68526832
:204740004A609A4201D152684A60D168016010BD502080F31188BFF34F8FBFF36F8FFEE795
:204760002800002000000020F43A00202DE9FF4782B01D468A464FF00008040003D0BAF1F9
:20478000000F08D011E0502080F31188BFF34F8FBFF36F8FFEE7206C38B1502080F31188AF
:2047A000BFF34F8FBFF36F8FFEE7022D0AD1E06B012807D0502080F31188BFF34F8FBFF3C1
:2047C0006F8FFEE700F00AF93F4F4FF000094FF0805648B9049838B1502080F31188BFF364
:2047E0004F8FBFF36F8FFEE7FFF7F8FEA06BE16B884207D3022D05D00498D0B1B8F1000F86
:204800001AD01EE02A4651462046FFF72FFD616A19B104F1240000F09FF920B13E60BFF3CA
:204820004F8FBFF36F8FFFF7F9FE012006B0BDE8F087FFF7F3FE22E06846FFF72DFF4FF012
:204840000108FFF7EBFEFFF74DFFFFF7C7FE94F94400401C01D184F8449094F94500401CF6
:2048600001D184F84590FFF7D9FE04A9684600F07BF830B12046FFF73FFD00F0A9F900205F
:20488000D4E7FFF7ABFEA06BE16B884213D1FFF7C5FE04F110000499FFF70CFF2046FFF701
:2048A0002BFD00F095F900289ED13E60BFF34F8FBFF36F8F98E7FFF7B1FE2046FFF71CFD44
:2048C00000F086F990E7000004ED00E070B50E46040009D0206C78B1502080F31188BFF3E8
:2048E0004F8FBFF36F8FFEE7502080F31188BFF34F8FBFF36F8FFEE7206848B9A06838B12A
:20490000502080F31188BFF34F8FBFF36F8FFEE7FFF798FE5020EFF3118580F31188BFF3C4
:204920004F8FBFF36F8FA16BE06B884218D994F94500491CA163411C04D0401C84F845004E
:2049400001200EE0606A0028FAD004F1240000F003F90028F4D0002EF2D001203060EFE724
:20496000002085F3118870BD2DE9F0410C46050011D0C4B1FFF732FE174B5A696E6820683C
:20498000911B471C17D02F689B6A9F4219D0964217D8012410E0502080F31188BFF34F8FD3
:2049A000BFF36F8FFEE7502080F31188BFF34F8FBFF36F8FFEE70024FFF730FE2046BDE86E
:2049C000F081884205D9401A20602846FFF764FEF1E700202060DCE7280000200548C16924
:2049E00019B1806B18B10020704701207047022070470000280000202DE9F0412E4C002781
:204A0000A06B40B1206A401C2062606A00B101273846BDE8F0816669761C666113D1606827
:204A2000006838B1502080F31188BFF34F8FBFF36F8FFEE76068A1686160A060A06A401C8C
:204A4000A062FFF749FC206BDFF87080864209D36068006880B16068C068C568686886420D
:204A60000DD220632068C06A00EB800158F821000128CAD90127C8E74FF0FF30F1E7281D17
:204A8000FFF774FDA86A18B105F11800FFF76EFDE86A0121A26981401143A16100EB800163
:204AA00008EB8100291DFFF78CFDE86A2168C96A8842CDD30127CBE728000020F43A0020D5
:204AC00070B504004FF0000140D0214D2868844207D0502080F31188BFF34F8FBFF36F8F06
:204AE000FEE7A06C38B1401EA064636CE26A9A422CD040B12AE0502080F31188BFF34F8F80
:204B0000BFF36F8FFEE7201DFFF730FD114A012150B9E06A00EB800352F8233023B9AB69D5
:204B200001FA00F08343AB61606CE062C0F10F00A061E06AAB6981401943A96100EB8000F9
:204B400002EB8000211DFFF73CFD0121084670BD28000020F43A00202DE9F041C068C468AD
:204B6000ACB104F118000746FFF700FD154DA86B0126A0B139461448FFF723FDE06A2968D2
:204B8000C96A88421BD901206E62BDE8F081502080F31188BFF34F8FBFF36F8FFEE7201D3F
:204BA000FFF7E4FCE16AAA6906FA01F01043A86101EB8100054901EB8000211DDCE700202C
:204BC000E3E7000028000020483C0020F43A00202DE9F0472C4D00242746A86B38B1FFF788
:204BE000FDFCA86B401EA863A86B40B146E0502080F31188BFF34F8FBFF36F8FFEE72969E3
:204C0000224E0120D1B3A6F5AA7980463068E8B1F068C46804F11800FFF7A8FC201DFFF76C
:204C2000A5FCE06AAA6908FA00F11143A96100EB800109EB8100211DFFF7C3FCE06A296876
:204C4000C96A8842E2D3C5F82480DFE70CB1FFF743FB2C6A44B14646FFF7CEFE00B16E6230
:204C6000641EF9D100202862686A38B10849012738070860BFF34F8FBFF36F8FFFF7CEFC63
:204C80003846BDE8F087000028000020483C002004ED00E0000000000000000001020304B3
:204CA000060708090000000001020304CC4C000800000020B8000000D0360008844D0008ED
:204CC000B8000020D06B0000E03600080100000000000000F0F0F0000000000000000000D2
:204CE000000000000100000010000000000000000024F4000000000000000000000000008B
:204D0000000000000000000000000000000000000000000000000000000000000000000093
:204D200000000000000000000000000000000000000000000000000000000000AAAAAAAACB
:204D40000000000080000000000000000000000000000000000000000000000000000000D3
:204D6000000000000000000000000000000000000000000000000000000000000000000033
:044D8000000000002F
:020000040802F0
:20000000E8FF002091020208A5710208B5020208396F0208D5130208DD9E02080000000032
:20002000000000000000000000000000C1010208C91A0208000000001D020208C18C020887
:20004000AB020208AB020208AB020208AB020208AB020208AB020208AB020208AB020208E8
:20006000AB020208AB020208191D0208AB020208AB020208AB020208AB020208AB0202083F
:20008000AB020208AB020208AB020208AB020208AB020208AB020208AB020208AB020208A8
:2000A000AB020208AB020208AB020208AB020208AD8D0208B98D0208AB020208AB02020862
:2000C000AB020208AB020208AB020208AB020208AB0202081D97020829970208359702082F
:2000E000111D0208AB020208AB020208AB020208AB020208AB020208AB020208AB020208C7
:20010000AB020208AB020208AB020208AB020208119402081D940208AB020208AB0202082B
:20012000AB020208AB020208AB020208AB020208AB020208D51B0208051D0208AB0202084F
:20014000AB020208AB020208AB020208AB020208AB020208AB020208AB02020841970208BC
:20016000AB020208AB020208AB020208AB020208AB020208AB020208AB020208000000007E
:20018000AB020208AB0202083D9402085D940208AB020208AB020208AB020208AB0202083F
:2001A0000000000000000000AB020208DFF80CD000F064FC00480047D9420308E8FF0020C9
:2001C0002C4B19680868B0E8F04F80F30988BFF36F8F4FF0000080F311887047000000002A
:2001E00008480068006880F308884FF0000080F3148862B661B6BFF34F8FBFF36F8F00DF40
:2002000000BF00BF08ED00E0DFF80C00016841F470010160704700BF88ED00E0EFF3098002
:20022000BFF36F8F134B1A681EF0100F08BF20ED108A20E9F04F106009B44FF0500080F31C
:200240001188BFF34F8FBFF36F8F20F0F5FA4FF0000080F3118809BC19680868B0E8F04FEE
:200260001EF0100F08BFB0EC108A80F30988BFF36F8F70475C000020EFF30580704700004F
:20028000EFF308807047EFF309807047684670470648804706480047FEE7FEE7FEE7FEE778
:2002A000FEE7FEE7FEE7FEE7FEE7FEE7918D0208AD010208704669460BF0BEF9FFF7FEFFF6
:2002C0002DE9F05F0546002092469B4688460646814640241BE0284641464746224600F07B
:2002E0001AFA53465A46C01A914110D311461846224600F001FA2D1A67EB01084F4622467B
:200300000120002100F0F8F917EB00094E41201EA4F10104DFDC484631462A464346BDE8EA
:20032000F09F000000487047307B04080649074A0868504343F239021044086040087047AA
:200340000149086070470000B00300206D4EC64110B5431A934209D28318881803E010F8A7
:20036000011D03F8011D521EF9D210BD40EA01039B0703D009E008C9121F08C0042AFAD2EE
:2003800003E011F8013B00F8013B521EF9D210BDD2B201E000F8012B491EFBD27047002263
:2003A000F6E710B513460A4604461946FFF7F0FF204610BD30B505462A460B4612F8010B2A
:2003C00013F8014B08B1A042F8D01CB1002802D06D1CF1E7284630BD10B5044604E00B786A
:2003E00000F8013B03B1491C521EF8D2204610BDCAB2401E10F8011F8A4202D00029F9D1B0
:2004000000207047421C10F8011B0029FBD1801A704710B5002200E0521C835C8C5CA3425C
:2004200001D1002BF8D1D8B2E1B2401A10BD30B504460020034600E05B1C934203D2E05CDD
:20044000CD5C401BF8D030BD034611F8012B00F8012B002AF9D11846704730B50546002068
:20046000034600E05B1C934205D2EC5CC85C201A01D1002CF6D130BD70B506460AF036FA3D
:20048000046805460A220021304600F054F92C6070BD2DE9FE4F81EA030404F0004421F0CE
:2004A000004100944FF0000B23F0004350EA01045ED052EA03045BD0C3F30A54C1F30A55C5
:2004C0002C44A4F2F3340194A0FB0254C1F3130141F48011C3F3130343F4801301FB024403
:2004E00000FB034E840A970A44EA815447EA8357A4FB076802958D0A05FB07854FEA932CB3
:2005000004FB0C542705029D4FEA065847EA1637B5EB08056EEB070C870E920E47EA811785
:2005200042EA8312A7FB0201B6EB0B0164EB00042B0D43EA0C335E1844EB1C50DA465146E9
:20054000E7FB0201C5F313044FEA0B3343EA14534FEA0432019C43EA0603A4F10C0402945F
:20056000009CCDE900B400F064F903B0BDE8F08F00200146F9E72DE9F04D81EA030404F051
:20058000004B21F0004514464FF0000A23F0004150EA050220D054EA01021DD0C5F30A574B
:2005A0000246C5F31303C1F31300C1F30A5640F4801543F48013A7EB0608101BD64608F2D6
:2005C000FD3873EB050002D308F1010801E092185B41B8F1000F03DA00200146BDE8F08D67
:2005E00000204FF48011064684460EE0171B73EB050705D3121B63EB050306434CEA010C80
:2006000049084FEA300092185B4150EA0107EDD152EA030012D082EA040083EA050108438B
:2006200005D0101BAB4106D20122002306E000224FF0004302E06FF0010253101AEB060074
:200640004CEB085110EB0A0041EB0B01BDE8F04D00F0E0B80EB540F2334102910021CDE990
:2006600000110A460B4600F0E4F803B000BD00F0004230F000400AD0C10D01F56071C0F3D8
:20068000160042EA0151C20840071143704700200146704701F0004330B421F0004150EAE8
:2006A000010206D00A0DA2F56072C1F31301002A02DC30BC00207047440F44EAC104C10047
:2006C000E01830BC00EBC25000F06DB830B50B46014600202022012409E021FA02F59D4246
:2006E00005D303FA02F5491B04FA02F52844151EA2F10102F1DC30BD202A04DB203A00FA69
:2007000002F1002070479140C2F1200320FA03F3194390407047202A04DB203A21FA02F0E5
:200720000021704721FA02F3D040C2F1200291400843194670472DE9F04791460F4680467B
:200740000446002614F8015B2DB1FFF7EBFD0068405DC007F6D12B2D02D02D2D18D0641E84
:200760004A463946204600F0ADF927B13968A14201D1C7F8008071054FF002040BD54042E4
:20078000002803DD0AF0B2F80460A007BDE8F08746F48066E4E70028F8DA0AF0A7F80460A4
:2007A0006FF00040F2E70029A8BF7047401C490008BF20F00100704710B4B0FA80FC00FA62
:2007C0000CF050EA010404BF10BC704749B1CCF1200421FA04F411FA0CF118BF0121214345
:2007E0000843A3EB0C01CB1D4FEA00614FEA102042BF002010BC704700EBC3501044002909
:20080000A4BF10BC7047401C490008BF20F0010010BC704710B5141E73F1000408DA401C55
:2008200041F1000192185B411A4301D120F0010010BD2DE9F04D92469B4611B1B1FA81F246
:2008400002E0B0FA80F220329046FFF755FF04460F4640EA0A0041EA0B0153465A4608439A
:2008600013D0114653EA010019D0C8F140025046FFF751FF05460E46504659464246FFF7EE
:200880003BFF084305D0012004E020463946BDE8F08D0020054346EAE0762C4337430A9879
:2008A0006305E40AA0EB08000022FD0A44EA47540A3002D500200146E9E70105101969413C
:2008C000DDE9084500196941BDE8F04DA2E72DE9FE4F804681EA0300C00F0C46009021F07E
:2008E000004123F00045B8EB0200A94105D24046214690461C460B46024623F00040104395
:2009000047D0270DC7F30A00C3F30A510290401A019040286BDAC3F3130040F4801B00985D
:20092000924620B10023D2EB030A63EB0B0B01985946C0F140025046FFF7DEFE06460D468B
:2009400050465946019A00F0ABF810EB08006141002487EA115284EAE7731A4340D0009AC8
:2009600062B3019A012A4FEA075215DC001B61EB02014FF0004202EA0752CDE90042001CD5
:2009800041F5801132462B46FFF753FF03B0BDE8F08F40462146F9E7001B61EB0201001C35
:2009A00041F5801300185B412018A2F5001747EB030140EAD570B6196D4111E06D084FEA13
:2009C000360645EAC0754FEA0752001B61EB0201001C41F5801149084FEA30000019514133
:2009E00032462B4603B0BDE8F04FFFF713BF0098012240000023D0EB020263EBE073009899
:200A000021464FEAE074B8EB000061EB0401E9E783F000435BE781F0004158E7C1F30A5225
:200A2000C1F3130140F2FF3341F480119A4202DA00200146704740F233439A42A2F2334261
:200A400002DC5242FFF767BEFFF756BE30B5041E71F1000404DB4FF00044404264EB01015D
:200A6000141E73F1000405DB1C464FF00043524263EB0403994208BF904230BD064C074D28
:200A800006E0E06840F0010394E8070098471034AC42F6D3FFF78EFB5C8704087C8704081A
:200AA000202A06DBCB17203A41FA02F043EAE07306E041FA02F3D040C2F12002914008430B
:200AC000194670472DE9F05F82460078002715468B460AF10104B946302801D09DB113E09F
:200AE00014F8010B0127782803D0582801D045B10AE00DB1102D07D10027102514F8010BCB
:200B000002E0082500E00A250026B0460EE005FB080005FB06F1012701EB10461FFA80F8B3
:200B2000B6F5803F00D3B94614F8010B294600F018F80028EBDABBF1000F05D00FB1641E33
:200B400000E05446CBF80040B9F1000F06D009F0CDFE02210160C81EBDE8F09F48EA0640AF
:200B6000FAE73A2800D2303820F02002412A01D3A2F13700884201D34FF0FF30704770B5D5
:200B80008C1810F8015B15F0070301D110F8013B2A1106D110F8012B03E010F8016B01F892
:200BA000016B5B1EF9D12B0705D40023521E0DD401F8013BFAE710F8013BCB1A921C03E037
:200BC00013F8015B01F8015B521EF9D5A142D8D3002070BD1CB507490720CDE900010648F3
:200BE000AA230268054801880548007806F08EFE1CBD000033020020DC010020DA0100207B
:200C0000E001002010B50E4C8AB003202070042060700020A0706946012001F049FF052075
:200C2000E0709DF81000207105A9022001F040FF062060719DF82400A0710AB010BD0000E6
:200C4000330200200178427811448278C07810440844C043C0B2704710B500240849012856
:200C600002D0022802D003E0064800E006484862152000F02FFA332800D00124204610BDCC
:200C8000B402002049940208E993020870B52F494FF49674012802D0022811D023E02C48AA
:200CA00048622C4E4FF4007500222946304603F038F80A2002F0CEF80122294630460DE057
:200CC00025484862254D00221021284603F029F80A2002F0BFF801221021284603F021F815
:200CE000204602F0B7F800231A4655213E2000F045FB012002F0AEF82023002201211420F2
:200D000000F03CFB012002F0A5F800231A463321152000F033FB012002F09CF800231A46A8
:200D20002021392000F02AFB012002F093F8012002F090F800231A4619463E2000F01EFB82
:200D4000BDE87040012002F085B80000B40200204994020800040240E9930208000C024017
:200D60002DE9F0410C462DED088B98B007469FED848A84480146021DD1ED000A92ED000A7B
:200D8000012F20EE801A02D0022F15D02CE07E494162D0ED031AF8EE611AC1EEA09AD0ED3C
:200DA000040AF8EE601AF8EE600A81EE80AAC0EE808A90ED050A13E074494162D0ED061A68
:200DC000F8EE611AC1EEA09AD0ED070AF8EE601AF8EE600A81EE80AAC0EE808A90ED080A6B
:200DE000B8EE400A80EE018A152000F073F9089033280BD0214606A800F0DAFA3846FFF75E
:200E000045FF18B0BDEC088BBDE8F0813A2000F061F917903E2000F05DF90690142000F0CB
:200E200059F90790392000F055F90990372000F051F90A90072000F04DF90C90052000F060
:200E400049F90D90062000F045F90E90132000F041F913900D2000F03DF916909DED0C0A28
:200E600018EE100AB8EE400A80EE299A9DED0D0AF8EE400A80EE8A0ADDED0E0AF8EE600A2C
:200E800080EEA8AA69EE009A69EE0A8AFFF7EFFB9FED3F1B53EC112BFFF7FBFA41EC1B0B37
:200EA0001698FFF7D7FB53EC1B2BFFF764FBFFF7F1FB9FED390A00EE900A00202AEE001A57
:200EC000BCEEC11A11EE101A0A2901D2206001E084ED001A29EE001A4FF47A71BCEEC11A8E
:200EE00011EE102A8A4201D2606001E084ED011A29EE801ABCEEC11A11EE102AB2EE041AC0
:200F00008A4201D2A06005E069EE811AFCEEE11AC4ED021A28EE800A8846BCEEC00A10EEC9
:200F2000102A424501D2A06005E028EE810ABCEEC00A84ED020A9FED190A10EE900A20EE51
:200F4000800ABCEEC08A84ED038AFFF790FB05460E4618EE900AFFF78AFB6368CDE90456FF
:200F6000B3FBF8F28DED028ACDE9000139460CA0236813F093FE214606A800F019FA40E793
:200F800000000000B402002049940208E993020800000000882AD14000007A440000C84283
:200FA0000D0A562564203D202564562C41203D2025646D412C50203D20252E3266572C4512
:200FC0003D202564A1E32065203D20253366A1E300000000F0B50F462DED028B83B0064643
:200FE00008232DA207F04EFE0446A0F57F40FF384ED001232BA23946304607F043FE054658
:20100000001B0838C1B230196A46083007F006FE00283DD0781B401EC1B2701901AA401CAD
:2010200007F0FCFD002833D01FF0F4F99DED000A1D489FED1E8AB8EE400A042280ED000ADF
:201040009DED010A001D011FB8EE400AC0EE080AC0ED000A164809F0ABFB1349144804227C
:20106000091D001D09F0A4FB1FF0F4F99DED010AF8EE400A80EE880A10EE100AFFF7F7FAD5
:2010800041EC100B0BA053EC102B009913F006FE03B0BDEC028BF0BD656C652063616C3AED
:2010A000000000002C000000B402002000007A4498000E080D0AD0A3D7BCB2CEBFBCB5E70E
:2010C000D1B93A2564562CB5E7C1F73A252E33664100000030B5A3B035218DF88410144D7E
:2010E0008DF800008DF8850000246A6A022121A890474FF496720DF10101A8681FF008FF35
:20110000012813D16846FFF79DFD9DF8041081420CD19DF803009DF8021044EA004040EA64
:2011200001219DF80100084323B030BD0020FBE7B4020020F0B506462DED048B93B04821CE
:201140006846FFF72CF90025574C012E02D0022E02D003E0554800E0554860624FF4C877BA
:2011600018E0BDB10720FFF7B5FF0699084406900520FFF7AFFF0799084407900620FFF74F
:20118000A9FF0899084408901320FFF7A3FF0D9908440D9038461FF007FA6D1CEDB2062DDF
:2011A000DFD306990520B1FBF0F106910799B1FBF0F107910899B1FBF0F108910D99B1FBB7
:2011C000F0F00D909DED060A3748B8EE400AD0ED000A001D012E80EE209A9DED080AB8EE0C
:2011E000401A90ED000A60EE800A81EE008A9DED0D0AB8EE400AC0EE208A02D0022E07D07B
:201200000CE00698E060089820610D98606105E00698A0610898E0610D98206225A013F029
:201220003DFD2FA0069913F039FD33A0089913F035FD37A00D9913F031FD3BA0109913F0EF
:201240002DFD19EE100AFFF712FA41EC100B3CA053EC102B13F022FD18EE100AFFF707FA6A
:2012600041EC100B39A053EC102B13F017FD18EE100AFFF7FCF941EC100B38A053EC102B17
:2012800013F00CFD18EE900AFFF7F1F941EC100B36A053EC102B13F001FD06A013F0FEFC86
:2012A00013B0BDEC048BF0BDB402002049940208E99302082D2D2D2D2D2D2D2D2D2D2D2D27
:2012C0002D2D2D2D2D2D2D2D2D2D2D2D2D2D2D2D2D2D2D2D2D2D2D2D2D2D0D0A0000000065
:2012E000424C3635323347315F565F524D53203D2025640D0A000000424C3635323347311F
:201300005F495F524D53203D2025640D0A000000424C3635323347315F57415454203D20C5
:2013200025640D0A00000000424C3635323347315F56414852203D2025640D0A000000008A
:20134000765F6B203D202532660D0A0069615F6B203D202532660D0A0000000069625F6B82
:20136000203D202532660D0A00000000776174745F6B203D202532660D0A00001CB5CA2482
:201380008DF800408DF801008DF802108DF803208DF804300DF10100FFF754FC034A8DF8F3
:2013A00005000621526A684690471CBDB40200208268332A03D0087C40F0010008E090F8D2
:2013C0004400800603D5087C40F0020000E0002008747047FEE770B505464FF6FF70002356
:2013E0004AF201040DE0EA5C50400022C60702D084EA500000E04008521CD2B2082AF5D356
:201400005B1C8B42EFD370BD10B500240120FFF723FC10B1012409A000E00EA013F03EFC20
:201420000220FFF719FC18B144F0020410A000E015A013F033FC204610BD00000D0AB5E71F
:20144000C1BFBCC6D2BB204552524F52A3A1A3A1A3A100000D0AB5E7C1BFBCC6D2BB2053D2
:20146000554343455353A3A1A3A1A3A1000000000D0AB5E7C1BFBCC6B6FE204552524F52C7
:20148000A3A1A3A1A3A100000D0AB5E7C1BFBCC6B6FE2053554343455353A3A1A3A1A3A112
:2014A0000000000070B50B4C0D4606464FF0FF3160691FF017FE4EB1287860706069BDE8D8
:2014C000704000231A4619461FF02CBB60782870F4E70000B80100201CB50EA013F0DEFB05
:2014E000FF2222211348FEF753FF13490A20CDE9000100234FF4807210A115481FF0E8FE4E
:201500000D4910390128C86003D012A013F0C6FBFEE71CBD0D0A204372656174456E76691C
:20152000726F6E6D656E745F446174615461736B0D0A0000A5D40020C8010020456E766911
:20154000726F6E6D656E745F4461746100000000F11F02080D0A456E7669726F6E6D656E5D
:20156000745F446174615F5461736B206372656174206572726F72001CB50AA013F08EFBAC
:201580000C490620CDE9000100234FF496720AA10A481FF09DFE012803D009A013F07EFBE3
:2015A000FEE71CBD0D0A2043726561744C65645461736B00F80100204C6564007D5F02088B
:2015C0000D0A204C65645F5461736B206372656174206572726F72001CB50AA013F05EFB7D
:2015E00000210420CDE900010B464FF4C8720BA10D481FF06DFE012803D00CA013F04EFBB2
:20160000FEE71CBD0D0A204372656174506C6174666F726D5461736B00000000506C61747D
:20162000666F726D00000000317902080D0A204372656174506C6174666F726D5461736B44
:20164000206372656174206572726F72000000001CB50BA013F022FB10490920CDE900013C
:2016600000234FF4C8720EA111481FF031FE012804D0BDE81C400FA013F010BB1CBD000030
:201680000D0A20437265617452656D6F74655570646174615461736B00000000A8020020FC
:2016A00052656D6F746555706461746100000000758902080D0A20437265617452656D6F9E
:2016C00074655570646174615461736B206372656174206572726F72000000001CB50849A4
:2016E0000120CDE900010202002306A107481FF0EFFD012803D006A013F0D0FAFEE71CBDCD
:20170000100000205374617274000000C18B02080D0A2053746172745F5461736B49442051
:201720006372656174206572726F72001CB50CA013F0B4FA0F490720CDE9000100234FF486
:2017400080720DA10E481FF0C3FD0A49091F0128086003D00BA013F0A1FAFEE71CBD0000DE
:201760000D0A204372656174556172745461736B00000000880200205561727441707000AD
:20178000919A02080D0A5463705F5461736B206372656174206572726F7200002DE9F04F16
:2017A00091B001257A4C069508954FF0FF3A099500265146206B1FF095FC0622012102205A
:2017C00012F08AFCA061002810DA72A013F066FAC8201EF0E9FE761CF6B2052EEDD30023CC
:2017E0001A461946206B1FF09DF9CFE0014600276CA013F053FA09AA6E49A06910F0AAFC68
:20180000002823D1002601960220039604968DF8050020690290A089ADF806004FF00409D5
:2018200040F6FF7BCDF8009006AB08225946A06912F092FA00280ADA5FA013F02FFAC82073
:201840001EF0B2FE7F1CFFB2052FEBD393E060A013F024FA102201A9A06910F0B3F900283F
:2018600007DA61A013F01AFA654800687328EDD102E064A013F012FACDF828A0CDE90B5668
:201880000D960796A0690DAE07AF042813D2C11700EB517306EBE30200F0070892F800C0D7
:2018A00005FA08F14CEA010C82F800C007EBE30213780B4313700BA9009100233A46314621
:2018C000401C11F0EBFE00284FDDA069042823D2C11700EB517206EBE20100F0070C0B7864
:2018E00005FA0CF10B4217D007EBE20212780A4212D00EA900910AAB41F20702594610F052
:2019000023FB002801DA46A019E0A069C8B14AA00A9913F0C3F914E0042812D2C11700EB32
:20192000517107EBE10200F00700127885402A4207D006EBE1000078284202D147A013F016
:20194000ADF9CDF8009008AB01220621A06912F003FA00280FDB00231A461946206B1FF0F9
:20196000E1F8002011B0BDE8F08F01D140A000E046A013F093F94CA013F090F900231A4687
:201980001946206B1FF0CEF817F018FA5046E9E7480200200D0A536F636B657420657272B6
:2019A0006F7200000D0A736F636B5F66643A2564000000007E6604800D0A736574206B65D8
:2019C0006570616C697665206661696C000000000D0A736574206B656570616C697665200C
:2019E00073756363657373000D0A20736F636B657420636F6E6E656374206572726F7200DA
:201A0000B00100200D0A20736F636B657420636F6E6E656374207375636365737300000012
:201A20000D0A676574736F636B6F7074206572726F722121210000000D0A636F6E6E656312
:201A40007420676574736F636B6F7074206572726F72212121202564000000000D0A73656A
:201A60006C656374206F6E6C79205744000000000D0A636F6E6E6563742073656C65637480
:201A80002074696D656F7574212121000D0A636F6E6E6563742073656C65637420657272B2
:201AA0006F722121210000000D0A20736F636B6574206572726F722C2077696C6C206265ED
:201AC00020636C6F73650000704700001CB50749C9680B0EC1F30742CDE90023CAB2C1F3A8
:201AE000072303A108F0BAFE1CBD00002808002025642E25642E25642E25640002490A68D4
:201B000002A108F0ABBE0000DC010020256400001CB5074949680B0EC1F30742CDE900237A
:201B2000CAB2C1F3072303A108F098FE1CBD00002808002025642E25642E25642E25640042
:201B40001CB5074989680B0EC1F30742CDE90023CAB2C1F3072303A108F080FE1CBD000037
:201B60002808002025642E25642E25642E25640002490A8802A108F071BE0000DA010020C5
:201B800025780000064908B509684FF4FA52B1FBF2F14143009100BF491E0091FBD208BDAF
