:020000040802F0
:10000000901201206D0202084D7C02089102020844
:100010008D7902085F130208C5B8020800000000CD
:100020000000000000000000000000009D01020828
:10003000BD1E020800000000F901020845A00208E8
:100040008702020887020208870202088702020864
:100050008702020887020208870202088702020854
:100060008702020887020208552002088702020858
:100070008702020887020208870202088702020834
:100080008702020887020208870202088702020824
:100090008702020887020208870202088702020814
:1000A0008702020887020208870202088702020804
:1000B00029A1020835A10208870202088702020866
:1000C00087020208870202088702020887020208E4
:1000D0008702020859AA020865AA020871AA020842
:1000E0004D200208870202088702020887020208E0
:1000F00087020208870202088702020887020208B4
:1001000087020208870202088702020887020208A3
:1001100079A7020885A70208870202088702020859
:100120008702020887020208870202088702020883
:1001300087020208111F02084120020887020208F4
:100140008702020887020208870202088702020863
:100150008702020887020208870202087DAA0208B5
:100160008702020887020208870202088702020843
:1001700087020208870202088702020800000000C6
:100180008702020887020208DFF80CD000F042FC68
:1001900000480047DD610308901201202C4B1968CC
:1001A0000868B0E8F04F80F30988BFF36F8F4FF015
:1001B000000080F3118870470000000008480068C4
:1001C000006880F308884FF0000080F3148862B65E
:1001D00061B6BFF34F8FBFF36F8F00DF00BF00BF6B
:1001E00008ED00E0DFF80C00016841F470010160E7
:1001F000704700BF88ED00E0EFF30980BFF36F8F19
:10020000134B1A681EF0100F08BF20ED108A20E96A
:10021000F04F106009B44FF0500080F31188BFF325
:100220004F8FBFF36F8F22F08BFA4FF0000080F3F7
:10023000118809BC19680868B0E8F04F1EF0100F6B
:1002400008BFB0EC108A80F30988BFF36F8F704746
:1002500028000010EFF3058070470000EFF30880DE
:100260007047EFF30980704768467047064880473B
:1002700006480047FEE7FEE7FEE7FEE7FEE7FEE78B
:10028000FEE7FEE7FEE7FEE70DA10208890102088E
:10029000704669460DF09EF9FFF7FEFF2DE9F05F0D
:1002A0000546002092469B468846064681464024E5
:1002B0001BE0284641464746224600F0DCFA5346FA
:1002C0005A46C01A914110D311461846224600F0F2
:1002D000C3FA2D1A67EB01084F4622460120002180
:1002E00000F0BAFA17EB00094E41201EA4F10104F8
:1002F000DFDC484631462A464346BDE8F09F000011
:1003000000487047FC9804080649074A08685043AB
:1003100043F2390210440860400870470149086000
:1003200070470000E40100106D4EC64110B5431A3D
:10033000934209D28318881803E010F8011D03F8CE
:10034000011D521EF9D210BD40EA01039B0703D0E4
:1003500009E008C9121F08C0042AFAD203E011F804
:10036000013B00F8013B521EF9D210BDD2B201E0B0
:1003700000F8012B491EFBD270470022F6E710B5AA
:1003800013460A4604461946FFF7F0FF204610BD03
:1003900030B505462A460B4612F8010B13F8014BFF
:1003A00008B1A042F8D01CB1002802D06D1CF1E7C2
:1003B000284630BD10B5044604E00B7800F8013B38
:1003C00003B1491C521EF8D2204610BDCAB2401ECD
:1003D00010F8011F8A4202D00029F9D1002070478D
:1003E000421C10F8011B0029FBD1801A704710B580
:1003F000002200E0521C835C8C5CA34201D1002BE4
:10040000F8D1D8B2E1B2401A10BD30B50446002090
:10041000034600E05B1C934203D2E05CCD5C401BD2
:10042000F8D030BD034611F8012B00F8012B002A4B
:10043000F9D11846704730B505460020034600E064
:100440005B1C934205D2EC5CC85C201A01D1002CE5
:10045000F6D130BD70B506460CF0D4F904680546F7
:100460000A220021304600F028FA2C6070BD2DE9E8
:10047000FE4F804681EA0300C00F0C46009021F039
:10048000004123F00045B8EB0200A94105D24046E7
:10049000214690461C460B46024623F0004010437E
:1004A00047D0270DC7F30A00C3F30A510290401A40
:1004B000019040286BDAC3F3130040F4801B0098CE
:1004C000924620B10023D2EB030A63EB0B0B019899
:1004D0005946C0F14002504600F0BEF906460D46AE
:1004E00050465946019A00F0D6F910EB08006141D8
:1004F000002487EA115284EAE7731A4340D0009A35
:1005000062B3019A012A4FEA075215DC001B61EB26
:1005100002014FF0004202EA0752CDE90042001CFE
:1005200041F5801132462B4600F00EFA03B0BDE8CB
:10053000F08F40462146F9E7001B61EB0201001CE9
:1005400041F5801300185B412018A2F5001747EB16
:10055000030140EAD570B6196D4111E06D084FEA0C
:10056000360645EAC0754FEA0752001B61EB0201EF
:10057000001C41F5801149084FEA30000019514133
:1005800032462B4603B0BDE8F04F00F0CEB90098DC
:10059000012240000023D0EB020263EBE0730098DD
:1005A00021464FEAE074B8EB000061EB0401E9E793
:1005B00083F000435BE781F0004158E72DE9FE4FEF
:1005C00081EA030404F0004421F0004100944FF05C
:1005D000000B23F0004350EA01045ED052EA03040A
:1005E0005BD0C3F30A54C1F30A552C44A4F2F3348C
:1005F0000194A0FB0254C1F3130141F48011C3F331
:10060000130343F4801301FB024400FB034E840AEE
:10061000970A44EA815447EA8357A4FB0768029586
:100620008D0A05FB07854FEA932C04FB0C54270524
:10063000029D4FEA065847EA1637B5EB08056EEB00
:10064000070C870E920E47EA811742EA8312A7FB36
:100650000201B6EB0B0164EB00042B0D43EA0C33F3
:100660005E1844EB1C50DA465146E7FB0201C5F325
:1006700013044FEA0B3343EA14534FEA0432019C4C
:1006800043EA0603A4F10C040294009CCDE900B4F3
:1006900000F05AF903B0BDE8F08F00200146F9E7F9
:1006A0002DE9F04D81EA030404F0004B21F00045F0
:1006B00014464FF0000A23F0004150EA050220D012
:1006C00054EA01021DD0C5F30A570246C5F31303CD
:1006D000C1F31300C1F30A5640F4801543F48013AC
:1006E000A7EB0608101BD64608F2FD3873EB050091
:1006F00002D308F1010801E092185B41B8F1000F44
:1007000003DA00200146BDE8F08D00204FF480118F
:10071000064684460EE0171B73EB050705D3121B34
:1007200063EB050306434CEA010C49084FEA30002D
:1007300092185B4150EA0107EDD152EA030012D052
:1007400082EA040083EA0501084305D0101BAB418F
:1007500006D20122002306E000224FF0004302E00F
:100760006FF0010253101AEB06004CEB085110EB2E
:100770000A0041EB0B01BDE8F04D00F0D6B80EB514
:1007800040F2334102910021CDE900110A460B46A7
:1007900000F0DAF803B000BD70B5C1F30A5201F001
:1007A00000450024C1F3130140F2FF3341F48011EE
:1007B0009A4201DA002070BD40F233439A42A2F21D
:1007C000334203DC524200F056F800E090402C43E4
:1007D000F1D0404270BD00F0004230F000400AD03D
:1007E000C10D01F56071C0F3160042EA0151C20863
:1007F00040071143704700200146704730B5041E82
:1008000071F1000404DB4FF00044404264EB01014D
:10081000141E73F1000405DB1C464FF000435242E6
:1008200063EB0403994208BF904230BD30B50B46DC
:10083000014600202022012409E021FA02F59D4210
:1008400005D303FA02F5491B04FA02F52844151EE4
:10085000A2F10102F1DC30BD202A04DB203A00FACB
:1008600002F1002070479140C2F1200320FA03F307
:10087000194390407047202A04DB203A21FA02F005
:100880000021704721FA02F3D040C2F120029140CA
:10089000084319467047202A06DBCB17203A41FA55
:1008A00002F043EAE07306E041FA02F3D040C2F1FD
:1008B000200291400843194670472DE9F0479146C0
:1008C0000F4680460446002614F8015B2DB1FFF761
:1008D00017FD0068405DC007F6D12B2D02D02D2DED
:1008E00018D0641E4A463946204600F0A5F827B1C4
:1008F0003968A14201D1C7F8008071054FF00204A8
:100900000BD54042002803DD0BF07CFF0460A007FC
:10091000BDE8F08746F48066E4E70028F8DA0BF0DB
:1009200071FF04606FF00040F2E710B5141E73F120
:10093000000408DA401C41F1000192185B411A439F
:1009400001D120F0010010BD2DE9F04D92469B46EB
:1009500011B1B1FA81F202E0B0FA80F22032904691
:10096000FFF77AFF04460F4640EA0A0041EA0B010E
:1009700053465A46084313D0114653EA010019D092
:10098000C8F140025046FFF776FF05460E46504636
:1009900059464246FFF760FF084305D0012004E0B6
:1009A00020463946BDE8F08D0020054346EAE07652
:1009B0002C4337430A986305E40AA0EB08000022A1
:1009C000FD0A44EA47540A3002D500200146E9E70F
:1009D000010510196941DDE9084500196941BDE8C3
:1009E000F04DA2E7C1F30A52C1F3130140F2FF3305
:1009F00041F480119A4202DA00200146704740F229
:100A000033439A42A2F2334202DC5242FFF733BF31
:100A1000FFF722BF064C074D06E0E06840F00103F7
:100A200094E8070098471034AC42F6D3FFF7B0FBC8
:100A3000E8A5040828A604082DE9F05F824600789E
:100A4000002715468B460AF10104B946302801D02B
:100A50009DB113E014F8010B0127782803D0582822
:100A600001D045B10AE00DB1102D07D100271025A6
:100A700014F8010B02E0082500E00A250026B04624
:100A80000EE005FB080005FB06F1012701EB10460F
:100A90001FFA80F8B6F5803F00D3B94614F8010B71
:100AA000294600F018F80028EBDABBF1000F05D05A
:100AB0000FB1641E00E05446CBF80040B9F1000FBE
:100AC00006D00BF09FFE02210160C81EBDE8F09F1A
:100AD00048EA0640FAE73A2800D2303820F02002EF
:100AE000412A01D3A2F13700884201D34FF0FF30F1
:100AF000704770B58C1810F8015B15F0070301D131
:100B000010F8013B2A1106D110F8012B03E010F870
:100B1000016B01F8016B5B1EF9D12B0705D4002393
:100B2000521E0DD401F8013BFAE710F8013BCB1A35
:100B3000921C03E013F8015B01F8015B521EF9D52A
:100B4000A142D8D3002070BD464910B54A6822F4AE
:100B500040324A604A6843681A434A6001684A68FA
:100B600022F480724A6001684A68036942EA0322FB
:100B70004A6001684A6822F040724A6001684A6827
:100B800083681A434A6001688A6822F400628A60B6
:100B900001688A68C3681A438A60816A6FF070626C
:100BA000D14201688A6822F070628A6001688A68AE
:100BB0000CD0836A1A438A6001688A6822F0405226
:100BC0008A6001688A68C36A1A4301E022F04052D1
:100BD0008A6001688A6822F002028A6001688A6875
:100BE000037E42EA43028A6090F8201000290168DF
:100BF0004A680FD042F400624A6001684A6822F4F1
:100C000060424A6001684A68174C436A04EB433308
:100C10001A4301E022F400624A600168CA6A22F4C1
:100C20007002CA620168CA6A838B104C04EB0353DA
:100C30001A43CA6201688A6822F400728A600168F5
:100C40008A6890F8303042EA43228A6001688A68F4
:100C500022F480628A6001688A68406942EA8020E2
:100C6000886010BD0023014000E0FFFF0000F0FF9E
:100C70001CB5482019F034FC04000CD0A11C002045
:100C800000F042F8218CA01C4ABA1A2A08D049BAAE
:100C9000152907D009E0BDE81C400EA015F090BF53
:100CA000002101E04FF48071C18301202070607049
:100CB0004820CDE900041148AE230268104801889D
:100CC0001048007807F0D6FB2046BDE81C4021F014
:100CD00059BB00000D0A5561727441707020616942
:100CE000725F7377697463685F64617461206D61BA
:100CF0006C6C6F63206572726F720000AC00002034
:100D0000AA0000205C01001070B50E4D0E4604468E
:100D10004FF0FF31E86A22F069F914B1012C04D0D8
:100D200008E046220849304602E04622314606489D
:100D3000FFF7FCFAE86ABDE8704000231A4619463E
:100D400021F074BE10010010880900101CB507497D
:100D50000720CDE900010648AA230268054801885A
:100D60000548007807F086FB1CBD0000F700002056
:100D7000AC000020AA0000205C01001010B50E4C51
:100D80008AB003202070042060700020A0706946A3
:100D9000012001F09BFF0520E0709DF810002071FC
:100DA00005A9022001F092FF062060719DF8240041
:100DB000A0710AB010BD0000F700002010B586B089
:100DC000062019F08DFB040031D001208DF80800B9
:100DD0008DF80B0000208DF80E00214600F044F83D
:100DE000208802A9000A8DF8090020788DF80A00F1
:100DF0006088AC23000A8DF80C00A0788DF80D00F7
:100E0000A088000A8DF80F0020798DF810000920C5
:100E1000CDE90001084802680848018808480078C0
:100E200007F028FB204621F0ADFA06B010BD05A062
:100E300015F0C6FEF9E70000AC000020AA00002073
:100E40005C0100100D0A5561727441707020616E72
:100E5000676C655F64617461206D616C6C6F6320A9
:100E60006572726F7200000070B5114E0C46054637
:100E70004FF0FF31F06A22F0B9F806F1300215B1F7
:100E8000012D07D00CE01088208050886080908869
:100E9000A08005E02088108060885080A088908025
:100EA000F06ABDE8704000231A46194621F0BEBD25
:100EB0001001001010B500231A4604E0845C521C97
:100EC0002344DBB2D2B28A42F8D3D843C0B210BDB9
:100ED00070B50025114E0446012802D0022C03D023
:100EE00007E00022402101E000228021304603F08B
:100EF0002FFA142000F0E4F8A02800D00125012CDE
:100F000002D0022C03D007E00122402101E001229F
:100F10008021304603F01CFA284670BD000C0240C8
:100F20002DE9F843DFF80C810646012802D0022E95
:100F300003D007E00022402101E00022802140464A
:100F400003F006FA3C4C002555276570A570E77044
:100F5000611C1D2000F0E4F95A206070A070E07060
:100F6000611C1C2000F0DCF9642021F0A1FA6570FE
:100F7000A570E770611C1D2000F0D2F96570A570A6
:100F8000A020E070611C142000F0CAF96570A57003
:100F9000E570611C1D2000F0C3F92848056045601C
:100FA0008560C56105624562142000F089F8A028BB
:100FB0002BD08DF800506946002000F0C7FB012EB1
:100FC00007D0022E13D06946012000F0BFFBBDE818
:100FD000F8839DF8000040F001008DF8000018A093
:100FE00015F0EEFD6946012000F0B0FB1EE09DF813
:100FF000000040F002008DF8000017A015F0E0FDA1
:101000006946012000F0A2FB06E0012E0BD0022E63
:10101000DDD117A015F0D4FD012280214046BDE8A6
:10102000F84303F095B919A015F0CAFD012240213B
:10103000F4E70000000C0240980100103C0E001084
:101040000D0AB5E7C1BFBCC6D2BB204552524F52B4
:10105000A3A1A3A1A3A100000D0AB5E7C1BFBCC60F
:10106000B6FE204552524F52A3A1A3A1A3A1000056
:101070000D0AB5E7C1BFBCC6B6FE20535543434574
:101080005353A3A1A3A1A3A1000000000D0AB5E73B
:10109000C1BFBCC6D2BB2053554343455353A3A144
:1010A000A3A1A3A10000000010B508F08DFA002450
:1010B000641CE0B2FFF734FFE4B2022CF8D310BD99
:1010C0002DE9F041074600263546822019F008FA3E
:1010D000044658202070677008F028FB384608F056
:1010E00025FB00BF08F01CFB61196D1CEDB2887078
:1010F000042DF7D305212046FFF7DCFE61798142FC
:1011000007D1A078E17846EA0040267940EA01203C
:101110000643204621F036F93046BDE8F081000054
:101120002DE9F047DFF8B8A10C462DED028B86B013
:101130000546012802D0022D05D00BE00022694EA1
:101140004021504604E0674E00221C368021504664
:1011500003F0FEF81420FFF7B3FFA02805D001200C
:1011600006B0BDEC028BBDE8F0870320FFF7A8FFB7
:101170004FF47A715C4F4843B0FBF7F030610520C3
:10118000FFF79EFF4FF47A714843B0FBF7F070838E
:101190000420FFF795FF4FF47A71484343F614316A
:1011A000B0FBF1F070610620FFF78AFFC0F3074142
:1011B0007F290AD9C243521C62F307006FEA10224A
:1011C00062F30F20C94361F317404FF47A7148432B
:1011D00040F2A771B0FBF1F0F0600820FFF770FF5C
:1011E0004249B1FBF0F030830720FFF769FF7168D7
:1011F000884201D3411A03E06FF07F42511A014443
:1012000001EB4102C2EBC111B268706002EBC10197
:1012100044F2AF10B1FBF0F233681A443260B1FB14
:10122000F0F200FB1210B060316900200A2901D2EF
:10123000206000E02160716941F28832914201D260
:10124000606000E06160F168B1F57A7F01D2A06072
:1012500000E0A16030680A21B0FBF1F0E06096ED9B
:10126000000A9FED238AF8EE400A80EE880A10EE0D
:10127000100AFFF7B0FA94ED020A80468946F8EEAC
:10128000400A80EE880A10EE100AFFF7A4FA94EDE7
:10129000010A06460F46F8EE400A80EE880A10EE74
:1012A000100AFFF798FA41EC100B02A853EC102B30
:1012B00080E8C0032068009029460EA015F080FC4D
:1012C000012D02D0022D03D007E00122402101E0D0
:1012D00001228021504603F03BF8002040E7000047
:1012E000000C02403C0E00104CA60C0000E1F5057D
:1012F00000007A440D0A562564203D20252E3366D1
:10130000562C41203D2025646D412C50203D202548
:101310002E3366572C45203D20252E3366A1E30051
:101320007CB5A8228DF800208DF8010008788DF892
:10133000020048788DF8030088788DF804000024B6
:1013400005216846FFF7B6FD8DF805006D46285D5E
:1013500008F0ECF9641CE4B2062CF8D37CBDFEE77F
:1013600070B505464FF6FF7000234AF201040DE008
:10137000EA5C50400022C60702D084EA500000E038
:101380004008521CD2B2082AF5D35B1C8B42EFD323
:1013900070BD00002DE9F04F9BB000241094119413
:1013A0001294139457A00B940C940D940E9400680F
:1013B0001A904FF47035172269464FF4806004F09C
:1013C00007FE51A00BF0F4FA68460BF005FB01AEE6
:1013D00096E80F0010AE86E80F000BAA2946012000
:1013E00000F0DCF88DF8504003208DF85100C0204B
:1013F0008DF852008DF853400BAC94E80F0015ACFB
:1014000084E80F0045A00BF0D3FA14A80BF0E4FA1F
:1014100010220BA910A808F0C5FD4FF6FF7A38B1CD
:1014200004231AAA102110A808F0D6FD504566D052
:10143000032001F093F93DA00BF0BAFA3C270026F7
:101440003246394643A00BF0B3FADFF81C91002472
:101450004FF480584FF0320B444802F0AEFF09EBD6
:101460000431424608EB043004F0BCFDB4FBFBF150
:101470000BFB114010B93EA00BF09AFA3DA00BF007
:1014800097FA641CBC42E7D336B1324609EB073108
:1014900008EB043004F0A6FD37A00BF089FA280E03
:1014A0008DF80000280C8DF80100280A8DF8020044
:1014B0000BAC8DF8035094E80F0001AC84E80F00EA
:1014C0004FF4806417226946204604F090FD1722ED
:1014D0006946204604F07CFD04231AAA10210BA8BB
:1014E00008F07AFD504504D017226946204604F0E2
:1014F0007EFD25A00BF05CFA68460BF06DFA1BB080
:10150000BDE8F08FFFFFFFFF0D0A20D4ADB1B8B7E3
:10151000DDC7F8D0C5CFA2A1FD0000000D0A20B3A1
:10152000CCD0F2C7F8D0C5CFA2A1FD000D0ACCE106
:10153000CABEA3BAB1B8B7DDC7F84D4435B2BBD502
:10154000FDC8B7D0E8D2AAD6D8D0C2B1B8B7DDB3FB
:10155000CCD0F2000D0A20B1B8B7DDC9C8C7F8CAAF
:10156000FD25642E2564000000000208FC05002013
:101570000D0A00003C0000000D0A20CAFDBEDDB8C7
:10158000B4D6C6CDEAB3C9000D0A20B5B1C7B0B113
:10159000B8B7DDC7F8D0C5CFA2A1FD002DE9F04F47
:1015A000C1F30B0493460D4606460F0B97B0224637
:1015B00039462DA00BF0FCF9684605F0A3FA4FF46C
:1015C0008020012E0DD0022E01D0032E49D185425C
:1015D00047D800254FF474384FF480594FF0320A41
:1015E00024E085423DD82A46244933E0022E02D029
:1015F000032E04D009E008EB05304A4602E04A46D3
:1016000009EB05301E4904F0E8FC4A461C496846CF
:1016100005F0E8FDB5FBFAF10AFB115010B919A06D
:101620000BF0C6F918A00BF0C3F96D1CBD42DDD359
:101630009CB1022E02D0032E04D009E0224608EB12
:10164000073002E0224609EB07300D4904F0C5FCE3
:101650000B492246684605F0C5FD5946684605F027
:101660002BFA17B0BDE8F08F0D0A20BCC6CBE3CA39
:10167000FDC1BF25642E25640000000000000208A3
:101680001CF500200D0A00002A00000008B500200B
:101690008DF80000694600F059F80120FFF718FCAA
:1016A00038B19DF8000040F001008DF800000DA059
:1016B00000E012A015F084FA0220FFF709FC38B10F
:1016C0009DF8000040F002008DF8000012A000E03C
:1016D00017A015F075FA6946012000F037F89DF85B
:1016E000000008BD0D0AB5E7C1BFBCC6D2BB20458E
:1016F00052524F52A3A1A3A1A3A100000D0AB5E726
:10170000C1BFBCC6D2BB2053554343455353A3A1CD
:10171000A3A1A3A1000000000D0AB5E7C1BFBCC68C
:10172000B6FE204552524F52A3A1A3A1A3A100008F
:101730000D0AB5E7C1BFBCC6B6FE205355434345AD
:101740005353A3A1A3A1A3A10000000070B50B4CAB
:101750000D4606464FF0FF31E06A21F047FC4EB1DE
:1017600028782070E06ABDE8704000231A461946C8
:1017700021F05CB920782870F4E700001001001017
:101780001CB52EA015F01CFAFF2224213348FEF7C9
:10179000EDFD01210022084621F0ACF8304C002874
:1017A000206139D003220021012021F0A3F86061DB
:1017B000002835D000231A46194621F037F90322B4
:1017C0000021012021F096F8A06100282CD00023F0
:1017D0001A46194621F02AF903220021012021F09E
:1017E00089F8E061002823D000231A46194621F029
:1017F0001DF904F128010A20CDE9000100234FF46E
:10180000807218A1194821F0E7FC6062012813D00A
:1018100017A015F0D5F9FEE71EA00BF0C9F8FEE7FA
:1018200024A015F0CDF9FEE729A015F0C9F9FEE7CF
:101830002DA015F0C5F9FEE71CBD00000D0A2043E0
:1018400072656174456E7669726F6E6D656E745FF8
:10185000446174615461736B0D0A000064090010E7
:1018600010010010456E764170700000D925020805
:101870000D0A456E7669726F6E6D656E745F4461B8
:1018800074615F5461736B2063726561742065726B
:10189000726F72000D0A20544D5F4169725377696F
:1018A0007463685F5175657565206572726F720D3E
:1018B0000A0000000D0A2041697253776974636859
:1018C00042696E617279206572726F720000000069
:1018D0000D0A20416E676C6542696E617279206500
:1018E00072726F72000000000D0A204D616E686F09
:1018F0006C65436F76657242696E617279206572BC
:10190000726F72001CB50AA015F05AF90C49062036
:10191000CDE9000100234FF496720AA10A4821F094
:101920005BFC012803D009A015F04AF9FEE71CBDB5
:101930000D0A2043726561744C65645461736B00D9
:10194000C80000204C656400B96702080D0A204CED
:1019500065645F5461736B206372656174206572A6
:10196000726F72001CB50DA015F02AF91149002004
:1019700003464860086108600872C8600421CDE928
:1019800000104FF4C8720CA10E4821F025FC01286C
:1019900003D00DA015F014F9FEE71CBD0D0A20437D
:1019A00072656174506C6174666F726D5461736BB3
:1019B00000000000D00D0010506C6174666F726DF5
:1019C00000000000B18402080D0A204372656174B2
:1019D000506C6174666F726D5461736B20637265D5
:1019E0006174206572726F72000000001CB50BA05C
:1019F00015F0E6F810490920CDE9000100234FF465
:101A0000C8720EA1114821F0E7FB012804D0BDE8FF
:101A10001C400FA015F0D4B81CBD00000D0A2043D7
:101A20007265617452656D6F74655570646174613F
:101A30005461736B000000002801002052656D6F37
:101A4000746555706461746100000000959402082B
:101A50000D0A20437265617452656D6F746555702F
:101A6000646174615461736B206372656174206595
:101A700072726F72000000001CB508490120CDE9A8
:101A800000010202002306A1074821F0A5FB01285E
:101A900003D006A015F094F8FEE71CBD100000105E
:101AA0005374617274000000F59E02080D0A205301
:101AB000746172745F5461736B4944206372656131
:101AC00074206572726F72001CB50CA015F078F866
:101AD0000F490720CDE9000100234FF480720DA1CA
:101AE0000E4821F079FB0A49091F0128086003D03C
:101AF0000BA015F065F8FEE71CBD00000D0A2043A1
:101B000072656174556172745461736B00000000FA
:101B1000940100105561727441707000ADB40208F8
:101B20000D0A5463705F5461736B20637265617456
:101B3000206572726F7200002DE9F04F91B001259F
:101B40007A4C069508954FF0FF3A099500265146C4
:101B5000606A21F04BFA06220121022014F03EFABD
:101B6000A061002810DA72A015F02AF8C82020F031
:101B70009FFC761CF6B2052EEDD300231A461946BB
:101B8000606A20F053FFCFE0014600276CA015F0FB
:101B900017F809AA6E49A06912F05EFA002823D14D
:101BA000002601960220039604968DF80500206910
:101BB00002906089ADF806004FF0040940F6FF7B03
:101BC000CDF8009006AB08225946A06914F046F8FB
:101BD00000280ADA5FA014F0F3FFC82020F068FCA8
:101BE0007F1CFFB2052FEBD393E060A014F0E8FF59
:101BF000102201A9A06911F067FF002807DA61A08F
:101C000014F0DEFF654800687328EDD102E064A09F
:101C100014F0D6FFCDF828A0CDE90B560D96079607
:101C2000A0690DAE07AF042813D2C11700EB5173A2
:101C300006EBE30200F0070892F800C005FA08F18D
:101C40004CEA010C82F800C007EBE30213780B4367
:101C500013700BA9009100233A463146401C13F043
:101C60009FFC00284FDDA069042823D2C11700EB98
:101C7000517206EBE20100F0070C0B7805FA0CF14B
:101C80000B4217D007EBE20212780A4212D00EA9DB
:101C900000910AAB41F20702594612F0D7F800282A
:101CA00001DA46A019E0A069C8B14AA00A9914F067
:101CB00087FF14E0042812D2C11700EB517107EB23
:101CC000E10200F00700127885402A4207D006EBB7
:101CD000E1000078284202D147A014F071FFCDF84E
:101CE000009008AB01220621A06913F0B7FF00287D
:101CF0000FDB00231A461946606A20F097FE002089
:101D000011B0BDE8F08F01D140A000E046A014F072
:101D100057FF4CA014F054FF00231A461946606A7E
:101D200020F084FE18F0CEFF5046E9E76401001071
:101D30000D0A536F636B6574206572726F720000D9
:101D40000D0A736F636B5F66643A256400000000E0
:101D50007E6604800D0A736574206B656570616C26
:101D6000697665206661696C000000000D0A736584
:101D700074206B656570616C69766520737563634B
:101D8000657373000D0A20736F636B657420636F56
:101D90006E6E656374206572726F7200A40000201D
:101DA0000D0A20736F636B657420636F6E6E6563DD
:101DB0007420737563636573730000000D0A6765B3
:101DC00074736F636B6F7074206572726F72212110
:101DD000210000000D0A636F6E6E656374206765F5
:101DE00074736F636B6F7074206572726F722121F0
:101DF00021202564000000000D0A73656C65637482
:101E0000206F6E6C79205744000000000D0A636F4C
:101E10006E6E6563742073656C6563742074696DA0
:101E2000656F7574212121000D0A636F6E6E656305
:101E3000742073656C656374206572726F72212102
:101E4000210000000D0A20736F636B6574206572BA
:101E5000726F722C2077696C6C20626520636C6FE6
:101E6000736500007FB504460FA00122D0E9001081
:101E7000CDE900100EA1104ED1E90001CDE902011B
:101E800015022946304602F063FA4FF008014CB1C2
:101E90000DF1080008F07CFC00222946304602F0D3
:101EA00057FA7FBD6846F5E70B06000455CCF7A44A
:101EB0000B06000455AA778E000802407047000008
:101EC000064908B509684FF4FA52B1FBF2F14143F3
:101ED000009100BF491E0091FBD208BD30000020D8
:101EE00038B50446006800F58050816941F48011DE
:101EF0008161206800F58050806900900120FFF723
:101F0000DFFF2068009900F58050816138BD000036
:101F1000014801F045BC0000E03600202DE9F04109
:101F2000044621B14FF40060E060C000A060E069A9
:101F30000025002861D028462368402619683A4ABF
:101F40001140D4E902273A43024342F400700843A7
:101F5000186020680768012001F0B0FA2068076067
:101F60002068466020684668012001F0A7FA2068D2
:101F70004660206885602068C560216888694FF6E2
:101F80004172104040F0800088612068866901201D
:101F900001F094FA206886612068C5612068C569EF
:101FA000012001F08BFA2068C561226802F5805299
:101FB00090691E4908401E4901439161206800F55F
:101FC00080508569012001F079FA206800F5805081
:101FD00085612068174900F580500160206800F590
:101FE00080500568012001F069FA206800F58050F2
:101FF0000560A069012803D009E04FF480609BE7E9
:10200000206800F58050C1690B4A1143C1616069C5
:102010000A4982880A640278D0F8010042EA002066
:102020004864BDE8F08100000F8120FF233FDEF807
:10203000040020028020C102400001000080024014
:10204000014801F0ADBB0000E03600204FF48040B5
:1020500002F08AB8102002F087B800002DE9F043A2
:1020600087B0142102A8FEF788F900241B2018F07D
:1020700037FA4FF00209054680F80090661C04EB21
:10208000840101EBC4014C19F0B2607002A9A41CD8
:1020900000F01CFE039800BA0390029800BA029068
:1020A000059800BA05900398206002986060059832
:1020B000A060F4B2022CE1D31B20CDE90005194E3B
:1020C000194FDFF86880B423398898F80000326827
:1020D00006F0D0F9284620F055F9082018F000FA4B
:1020E000054680F800900020441C00EB4000411998
:1020F000E3B24B70CA1C1846891C00F09DFEE0B28A
:102100000228F1D30720CDE90005B923398898F8D2
:102110000000326806F0AEF9284620F033F907B027
:10212000BDE8F083AC000020AA0000205C01001094
:1021300010B58CB0032018F0D3F9044602A9002092
:1021400000F028FA01202070002102A800EB810293
:10215000528C130A04EB4102537000EB4103491CFB
:1021600093F82230937011F0FF01EFD00320CDE9F6
:102170000004074881230268064801880648007861
:1021800006F078F9204620F0FDF80CB010BD0000F4
:10219000AC000020AA0000205C01001070B52DEDFD
:1021A000048B8CB0F048FEF71BF90146EE48FEF7B1
:1021B000E4F803A9002000F0EDF902A9002007F0DF
:1021C000E5F9BDF81A0001049FEDE88BE64C0CD54B
:1021D000C0F30E00ADF81A00FEF7D1FA41EC100B77
:1021E0009FEDE41B53EC112B05E0FEF7C8FA53EC0E
:1021F000182B41EC100B51EC100BFEF751FA41EC8F
:10220000100B204653EC102BDCA10AF0A1FA80B28F
:102210003B252554401C86B2BDF81C00FEF7AFFAE2
:1022200053EC182BFEF73CFA41EC100BA01953ECC1
:10223000102BD2A10AF08CFA304480B22554401CF5
:1022400086B2BDF81600FEF79AFA41EC100BA01901
:1022500053EC102BC9A10AF07BFA304480B225540C
:10226000401C86B2BDF81800FEF789FA41EC100B4D
:10227000A01953EC102BC1A10AF06AFA304480B2C5
:102280002554401C86B2BDF81E00FEF778FA9FED7B
:10229000BD9B53EC192BFEF703FA41EC100BA01970
:1022A00053EC102BB5A10AF053FA304480B22554F8
:1022B000401C86B2BDF82000FEF761FA53EC182BE3
:1022C000FEF7EEF941EC100BA01953EC102BABA16B
:1022D0000AF03EFA304480B22554401C86B2BDF864
:1022E0002200FEF74CFA53EC182BFEF7D9F941EC1B
:1022F000100BA01953EC102BA0A10AF029FA3044BE
:1023000080B22554401C86B2BDF80C00FEF737FAA7
:1023100053EC192BFEF7C4F941EC100BA01953EC48
:10232000102B96A10AF014FA304480B297A12554DC
:10233000401C86B2029800F00102A0190AF008FAC7
:10234000304480B291A12554401C86B20298C0F35B
:102350004002A0190AF0FCF9304480B28BA1255448
:10236000401C86B20298C0F38002A0190AF0F0F96E
:10237000304480B285A12554401C86B20298C0F337
:102380004022A0190AF0E4F9304480B27FA125541C
:10239000401C86B20298C0F38022A0190AF0D8F936
:1023A000304480B279A12554401C86B20298C0F313
:1023B000C022A0190AF0CCF9304480B273A1255490
:1023C000401C86B20298C0F30032A0190AF0C0F98E
:1023D000304480B26DA12554401C86B20298C0F3EF
:1023E0004032A0190AF0B4F9304480B2694625544D
:1023F000401C86B20020FEF737FDBDF90000B2EEAA
:10240000048A00EE100AF8EEC00A80EE880A10EE88
:10241000100AFEF7E0F941EC100BA01953EC102B59
:1024200056A10AF095F9304480B22554401C86B27A
:10243000BDF9020000EE100AF8EEC00A80EE880A2C
:1024400010EE100AFEF7C7F941EC100BA01953EC7F
:10245000102B4AA10AF07CF9304480B22554401C6C
:1024600086B2BDF9040000EE100AF8EEC00A80EE54
:10247000880A10EE100AFEF7AEF941EC100BA01915
:1024800053EC102B3DA10AF063F9304480B20021D7
:102490002554401C86B26A46084605F0EDF9BDF9A0
:1024A000000000EE100AF8EEC00A80EE880A10EE76
:1024B000100AFEF790F941EC100BA01953EC102B09
:1024C0002EA10AF045F9304480B22554401C86B252
:1024D000BDF9020000EE100AF8EEC00A80EE880A8C
:1024E00010EE100AFEF777F941EC100BA01953EC2F
:1024F000102B22A10AF02CF9304480B22554401C44
:1025000086B2BDF9040000EE100AF8EEC00A80EEB3
:10251000880A10EE100AFEF75EF941EC100BA019C4
:1025200053EC102B15A10AF013F9304480B20021AE
:102530002554401C86B26A46084605F09DF94FF4C2
:102540000041134801F0F8FE58B10022A0190FA174
:102550000AF0FEF8304480B225540CB0BDEC048B78
:1025600070BD0122F2E70000900C01200000000085
:102570000000594000000000000059C0252E3266BE
:10258000000000000000000000002440256400005E
:10259000000C024070B50E4D0E4604464FF0FF3160
:1025A000E86A20F023FD14B1012C04D008E02422B5
:1025B0000849304602E0242231460648FDF7B6FEBF
:1025C000E86ABDE8704000231A46194620F02EBA8A
:1025D000100100106409001088B0002080460546F4
:1025E00005AB06AA0190002119541154401CC0B239
:1025F0009A4693460228F6D301F0B0FECDF80000CB
:1026000007F02EFB01F0AAFE0099411A42488142D0
:1026100026D30024414E2746641CE0B2FEF780FC1E
:1026200007F008F9014608223C4809F021FA002089
:1026300056F82010491C01D146F82070401CC0B249
:102640000228F5D3E4B2022CE6D3FFF71FF88DF889
:10265000080002A90120FFF779F801F07FFE009041
:1026600001F07CFE01F07AFE019001F077FEA0EB14
:10267000080141F28830814202D2B8F1000F02D144
:1026800001F06CFE8046002403AF04AE04F10109A2
:102690003219391909F0FF0000F0CEFB1AF80400D6
:1026A000395D884204D11BF80400315D884214D0A2
:1026B00003980590049806904FF496601FF0F8FE7A
:1026C00000F050FA01F04AFE0546154800231A466C
:1026D0001946006820F0AAF903E009F0FF04022C73
:1026E000D4D301F03BFE411B41F28830814200D23D
:1026F00065B900F037FA30B1094800231A46194687
:10270000006820F093F901F029FE05464FF47A7035
:102710001FF0CEFE74E70000005C260538010020A3
:10272000EC00002070B50C4C0D4606464FF0FF3112
:10273000E06A20F05BFC16B1012E03D004E0607863
:10274000287001E028786070E06ABDE870400023DE
:102750001A46194620F06AB910010010012809D064
:1027600002280FD0032809D004280FD1012100200E
:1027700009F0AAB80649074805F009B93C214FF409
:102780008050F5E73C214FF47430F1E770470000CA
:10279000FFBF05080000020870470000002229B1B1
:1027A00001291AD002291BD04FF440720E490B6840
:1027B00023F440730B600B6813430B600A6822F02C
:1027C000F8020A600A68022303EBC00002430A60B1
:1027D000086840F48030086070474FF48072E5E785
:1027E0004FF40072E2E70000103C02401348016819
:1027F00089050FD5016821F400710160016841F479
:1028000000610160016821F400610160016841F428
:1028100000710160016849050FD5016821F48061EC
:102820000160016841F480510160016821F4805128
:102830000160016841F4806101607047003C024022
:1028400008490A6822F440720A600A6842F00402E9
:102850000A600A684FF4803343EA002002430A60AA
:1028600070470000103C0240064A136823F440738E
:10287000136013681360136843F001031360017061
:1028800070470000103C0240094910B50C6824F460
:1028900040740C600C6844F440740C600C6844F0A4
:1028A00001040C600260BFF36F8F436010BD000035
:1028B000103C0240074A136823F440731360136806
:1028C00043F480731360136843F0010313600180C5
:1028D00070470000103C0240074A136823F440731D
:1028E0001360136843F400731360136843F001032B
:1028F0001360016070470000103C024017490868EF
:10290000C206174805D5C26942F01002C261102202
:102910000A600A68920605D5C26942F00802C261DF
:1029200020220A600A68520605D5C26942F00402F4
:10293000C26140220A600A68120605D5C26942F0E7
:102940000202C26180220A600A68920705D5C26944
:1029500042F02002C2610220086070470C3C024035
:10296000D03F002070B5114904460020C86101F035
:10297000F5FC06460E4D09E0601C07D024B101F0BD
:10298000EDFC801BA04201D9032070BD2868C00364
:10299000F2D42868C00701D001202860286810F010
:1029A000F200F2D0FFF7AAFF012070BDD03F002057
:1029B0000C3C02402DE9F04115460E460746002426
:1029C00007E000BF56F824103846FDF710FD30B17F
:1029D000641CAC42F6DB4FF0FF30BDE8F0812046CE
:1029E000FBE7000010B586B004461FF097FC0022FC
:1029F0006946194802F04CF9002205A9164802F070
:102A000025F99DF81700154900F5FA6008809DF832
:102A100015208A709DF81620CA709DF800204A7112
:102A20009DF801208A719DF80220CA712080887863
:102A3000A070C878E070487960718879A071C87911
:102A4000E07145F251020121034802F0FAF81FF04B
:102A500085FC06B010BD0000F00100109C010010C4
:102A600010B586B00446012269460E4802F010F9FE
:102A7000012205A90B4802F0E9F89DF81700208013
:102A80009DF81500A0709DF81600E0709DF80000FC
:102A900060719DF80100A0719DF80200E07106B020
:102AA00010BD0000F00100100021A0F100634FF400
:102AB000804293423FD321490144914201D20121F6
:102AC00039E01F490144914201D2022133E01D49FE
:102AD0000144914201D203212DE01B490144B1F58B
:102AE000803F01D2042126E0184942184FF40031FA
:102AF0008A4201D205211EE0154A02448A4201D2CF
:102B0000062118E0134A02448A4201D2072112E04A
:102B1000114A02448A4201D208210CE00F4A0244C1
:102B20008A4201D2092106E00D4A1044884201D2AE
:102B30000A2100E00B2108467047000000C0FFF7A3
:102B40000080FFF70040FFF70000FFF70000FEF7EE
:102B50000000FCF70000FAF70000F8F70000F6F7B5
:102B60000000F4F72DE9F04F8FB0002004468246B4
:102B70000DAF0DF138080DF10C090290661C08EB41
:102B800004023919F0B200F057F904EB840B09EB99
:102B90008B05F0B2294600F099F8E9684DF8241049
:102BA000F0B22946FEF7BCFAE0B1641CE0B2FEF7D1
:102BB000B7F906F03FFE01460822384808F058FFF2
:102BC00036490020524600BF51F820305B1C01D12D
:102BD00041F82020401CC0B20228F5D300200FB0DD
:102BE000BDE8F08F385D012808D118F804000728E7
:102BF00004D3696881B359F82B0068B3287C20F0AE
:102C0000080028742946F0B209F0AEFCF4B2022C98
:102C1000B4D32248069902681144009A914205D122
:102C20000B9A43681A44019B9A4210D0009A914231
:102C30000DD30B9A40681044019A904207D3CDE916
:102C400000100821684606F0D7FD012002909DF88B
:102C50001C10134841B904E0FFE7287C40F008004D
:102C6000CFE79DF83020A2B1C278521CD2B2C27018
:102C7000032A10D380F803A09DF8302009A013F098
:102C80009FFF114800231A46194600681FF0CEFE28
:102C900001E080F803A00298A1E7000038010020BD
:102CA000100100100D0A426C3635323662537461E1
:102CB0007465313A25642C426C3635323662537471
:102CC000617465323A256400E800002070B5174E43
:102CD0000C4605464FF0FF31706920F087F9144823
:102CE00005EB850100EB810151F8100C6060114883
:102CF000284410F8010C60740E48801C28440023FE
:102D000010F8010CA07451F80C0CA06051F8080CDC
:102D1000E06051F8140D2060087C20747069BDE8F3
:102D200070401A4619461FF081BE0000B000002016
:102D3000140E001005FF001070B51D4C817A00259F
:102D40006170D0F80B104FF4FE7309BA21F0FF0246
:102D5000817B0A43B2FBF3F1B2FBF3F6626189B205
:102D600003FB1622A1800AB1491CA18000F10F01CA
:102D70001022104807F025F9607810B1012802D020
:102D800004E00DA000E016A013F01AFFA2881DA019
:102D9000616913F015FF22A013F012FF054C24A067
:102DA000615D13F00DFF6D1CEDB2102DF7D370BDFA
:102DB0000C010020C3E200200D0A20BFAACABCBD3E
:102DC000D3CAD5CEC4BCFEA3ACCEC4BCFEC0E0D03A
:102DD000CDA3BAD4B6B3CCC9FDBCB6CEC4BCFE003C
:102DE0000D0A20BFAACABCBDD3CAD5CEC4BCFEA39F
:102DF000ACCEC4BCFEC0E0D0CDA3BA4D5033CEC4DF
:102E0000BCFE00000D0A20CEC4BCFEB3A4B6C8A30D
:102E1000BA25642CB0FCCAFDA3BA256400000000EA
:102E20000D0A20CEC4BCFE4D4435A3BA00000000FC
:102E3000253032780000000070B515460E46044675
:102E40001FF06CFA0748204410F8010C3070054858
:102E5000801C204410F8010C2870BDE870401FF061
:102E60007DBA000005FF00107CB50BA10122D1E95D
:102E70000001CDE900010A4D14022146284601F067
:102E800067FA0821684607F083FC0022214628469D
:102E900001F05EFA7CBD00000A0300020004E4B207
:102EA000000802407CB50BA10122D1E90001CDE967
:102EB00000010A4D14022146284601F049FA082172
:102EC000684607F065FC00222146284601F040FADA
:102ED0007CBD00000C0300020004E4D400080240A2
:102EE0007CB50BA10122D1E90001CDE900010A4D19
:102EF00014022146284601F02BFA0821684607F003
:102F000047FC00222146284601F022FA7CBD000041
:102F1000010300000001840A000802407CB50BA1F7
:102F20000122D1E90001CDE900010A4D1402214638
:102F3000284601F00DFA0821684607F029FC002216
:102F40002146284601F004FA7CBD0000020300007F
:102F500000018439000802407CB50BA10122D1E9AF
:102F60000001CDE900010A4D14022146284601F076
:102F7000EFF90821684607F00BFC0022214628469D
:102F800001F0E6F97CBD000003030000000445EBFE
:102F9000000802407CB50BA10122D1E90001CDE976
:102FA00000010A4D14022146284601F0D1F90821FA
:102FB000684607F0EDFB00222146284601F0C8F9DB
:102FC0007CBD0000FF030001001F401C0008024000
:102FD0007CB50BA10122D1E90001CDE900010A4D28
:102FE00014022146284601F0B3F90821684607F08B
:102FF000CFFB00222146284601F0AAF97CBD000043
:103000000B0400000023B1790008024010B51D48F0
:1030100000F0CCF964211B4800F076F9194800F063
:1030200031F900EE100AB8EE400A10EE100AFDF772
:10303000D2FB9FED151B53EC112BFDF7BFFA9FED53
:10304000141B53EC112BFDF7B9FA9FED131B53EC36
:10305000112BFDF7ADFA9FED121B53EC112BFDF771
:103060001FFB9FED111B53EC112BFDF700FA9FED99
:10307000101B53EC112BFDF7A1FAFDF78DFB00B2ED
:1030800010BD0000D4F400206666666666660A40DD
:10309000000000000000303F52B81E85EB51E83FB1
:1030A0007B14AE47E17A643F000000000000394025
:1030B00000000000000059402DE9F0410D4D0F4681
:1030C00006460024611E28691FF090FF0A49C6EBDE
:1030D000C60001EB40010E2238460E39FDF726F9F5
:1030E00000231A46194628691FF0A0FC2046BDE8B7
:1030F000F0810000B000002087E000207CB50BA12B
:103100000122D1E90001CDE900010A4D1402214656
:10311000284601F01DF90821684607F039FB002216
:103120002146284601F014F97CBD0000150300007B
:10313000000306DF0008024078B50024009490F8F0
:103140003C20012A19D0012280F83C200A6807237C
:103150000568092A13D9EE680A3A02EB4202934045
:103160009E43EE600B788A680A3B03EB43039A4068
:103170000368DD682A43DA6010E0022078BD2E691A
:1031800002EB420293409E432E610B788A6803EB68
:1031900043039A4003681D692A431A614A681F2342
:1031A000072A13D205686E6B521E02EB820293400F
:1031B0009E436E630B790A885B1E92B203EB830316
:1031C0009A4003685D6B2A435A6327E005680D2A1D
:1031D00012D22E6BD21F02EB820293409E432E63CB
:1031E0000B790A88DB1F92B203EB83039A400368D2
:1031F0001D6B2A431A6311E0EE6A0D3A02EB82025C
:1032000093409E43EE620B790A880D3B92B203EB2A
:1032100083039A400368DD6A2A43DA62164B056825
:10322000144A9D4206D10D68122D03D1556845F40C
:103230008005556005689D4218D10B68102B01D0A0
:10324000112B13D1536843F400035360096810290C
:103250000CD10A490A4A0968B1FBF2F101EB81017C
:10326000490000E0491E00910029FBD180F83C4054
:10327000002078BD002301400020014030000020E4
:1032800040420F000068C06C704770B504004FF0FA
:10329000000503D0206C002610B107E0012070BDAE
:1032A000204600F01DF8666484F83C60206CC0067F
:1032B00010D4206C20F4885040F002002064204696
:1032C000FDF742FC6664206C20F0020040F0010033
:1032D000206400E0012584F83C60284670BD0000B1
:1032E00008B500680649884208D10648016841F4DB
:1032F00080710160006800F48070009008BD0000DB
:1033000000200140443802402DE9F04104460068A5
:103310000D4681684FF0000749050BD58068C00550
:1033200008D5206C40F02000206484F83C70012017
:10333000BDE8F08101F012F806460FE0681C0DD0E0
:1033400025B101F00BF8801BA84207D9206C40F092
:103350000400206484F83C700320E9E720680068DA
:103360008007EBD521686FF012000860206C40F4F4
:10337000007020642068816811F0405F13D1217EC5
:1033800089B9C16A11F4700F02D0806840050AD46F
:10339000206C20F480702064206CC00403D4206C66
:1033A00040F0010020640020C2E7000018B50021B1
:1033B000009190F83C20012A07D0012280F83C209F
:1033C00002689368DB0702D011E0022018BD936801
:1033D00043F0010393602A4A2A4B1268B2FBF3F2CE
:1033E00002EB420200E0521E0092002AFBD102686A
:1033F0009368DB0741D0036C40F20164A34343F4BC
:103400008073036453685B0505D5036C23F4005394
:1034100043F480530364036CDB0404D5436C23F052
:103420000603436400E0416480F83C1016496FF0E5
:103430002203136049680068CA06144906D088420E
:103440001BD1816811F0405F13D016E08842F8D09C
:103450000F4A904203D1D1F80423D206F1D00D4A8D
:1034600090420AD1D1F8041301F01F011029E8D3CA
:1034700003E0816841F080418160002018BD0000B8
:103480003000002040420F00002301400020014096
:10349000002101400022014090F83510022903D09C
:1034A0008021416501207047052180F835100068B2
:1034B000016821F0010101600020704770B50446E9
:1034C00000F04CFF0546601C02D00448007804441C
:1034D00000F044FF401BA042FAD370BD240000203E
:1034E0002DE9F041054690F845000C46012875D0BD
:1034F000012685F84560022085F84400002C70D034
:103500002A68116841480140D4E900031843D4E90E
:1035100002373B431843AB68184323691843636978
:103520001843EB681843A3691843E3691843236AF7
:103530001843636A1843A36A184308431060286855
:1035400007680120FFF7BAFF28680760D4E90B017C
:103550000843D4E90D1211430843E16B0843216C81
:103560000843616C0843A16C0843296848602868D7
:1035700047680120FFF7A2FF286847602968E06CD0
:1035800088602968206DC8602A6891694FF641708B
:103590000140D4E916031843B4F85470236E43EA8B
:1035A00007431843636E1843A36E184308439061A2
:1035B000286887690120FFF781FF28688761D4E9BF
:1035C0001B0108432968C8612868C4690120FFF706
:1035D00075FF2868C46114E000E002E00220BDE845
:1035E000F0812968086820F49042D5E90203184365
:1035F00010430860286804680120FFF75FFF28680F
:10360000046005F8446F00206870E8E70F8120FF30
:103610002DE9F04390F845400025012C0DD04FF0E6
:10362000010C80F845C0022480F8444044F2F4576D
:103630004FF000495E1E816217E00220BDE8F08372
:1036400001EB4514C4F80090C5EBC51808EB480819
:1036500002EB8808C4E90178B54204D204F12008DD
:10366000C4F80C8000E0E1606D1C9D42E8D3026864
:1036700002F58052D16080F844C0002180F84510E6
:103680000846DBE72DE9F043914690F845200024F9
:10369000012A0AD0012680F84560022280F84420E1
:1036A0004FF4801C5D1EC1621BE00220BDE8F08368
:1036B00001EB4412C2F800C0C4EBC41707EB470883
:1036C00009EB88079760C7691FB9176847F4400777
:1036D0001760AC4203D202F12007D76000E0D1604E
:1036E000641C9C42E4D3026802F58052116180F8A8
:1036F0004460002180F845100846D7E710B504461D
:10370000022084F84400204600F07EF9002004F8EE
:10371000440F607010BD704730B590F8451000231D
:10372000012908D0012280F84520022180F84410A8
:103730000024816A1AE0022030BD0D685B1CC5F3CD
:103740000125022D0AD00D6815F4407F09D0416390
:10375000836B5B1C8363012B12D012E082630163D5
:1037600002E0856B6D1C8563C96881620D68002D60
:1037700001DB042BE1D300F8442F4470012030BD5D
:1037800001630B68C3F30D431B1FC363036B9B688B
:103790000364C96840F8281F02774477002030BDD1
:1037A00070B50446006800F5805041694FF000058F
:1037B00049064FF0010608D5204600F029FA206896
:1037C000402100F58050416109E04069C0070AD0FE
:1037D000204600F02BFB206800F58050466184F8FD
:1037E000446084F8455020684FF4803100F58050E3
:1037F0004161206800F58050406900040CD52046E6
:10380000FFF789FF20684FF4004100F580504161C7
:1038100084F8446084F8455070BD00002DE9FC47F1
:103820004FF000060400B146009603D094F844001F
:1038300018B107E00120BDE8FC8784F84560204608
:1038400000F014F96648016841F4804101600068A5
:1038500000F4804001906348016821F40001016098
:103860000168226A11430160206800F580500168F8
:1038700041F00101016000F071FD05464FF4FA7757
:1038800009E000BF00F06AFD401BB84203D90320E5
:1038900004F8440F67E0206800F580500068C00716
:1038A000F0D12068006920F01C0500F0BFFF4E49F0
:1038B0004E4A0144914202D245F0080516E04C49B7
:1038C0004C4A0144914202D245F00C050EE04A49AF
:1038D0004A4A0144914209D3494908444949884226
:1038E00002D245F0040501E045F0100520680561AD
:1038F0004FF400420021204600F09AFA0125A8BBAF
:10390000FF20FFF7DBFD606888B300F027FD8046ED
:1039100041F288376A460121204600F037F900F06D
:103920001DFDA0EB0800B84217D800984007F1D55C
:103930004FF480520021204600F07AFAB0B900F02E
:103940000DFD80466A460121204600F01FF900F077
:1039500005FDA0EB0800B8420AD901212046FEF778
:10396000DDFA04F8445F0320667064E724E018E0A1
:1039700000988006E6D56A461F21204600F006F929
:10398000D0B90098C10603D54FF40061E16000E0B2
:10399000E660400701D5A66019E04FF48040A060C2
:1039A00015E0E068A168C00840EA510082B2002139
:1039B000204600F03DFA30B101212046FEF7AEFA74
:1039C00084F8445036E740F6FF70FFF777FD49462C
:1039D0002046FEF7A3FA84F8445000202BE70000AD
:1039E000443802400438014000D3CEFEC0E1E40078
:1039F00040F1E9FD40787D0100796CFC005A6202DB
:103A0000001F0AFA80F0FA0210B5006812498842D5
:103A100021D11248016821F080610160016821F024
:103A200000610160016821F00071016032210C48E1
:103A300000F0E4FA86210B4800F0E0FA4FF4605100
:103A4000094800F0DBFA3D2000F036FDBDE81040EB
:103A50003E2000F031BD10BD0080024030380240F1
:103A60000008024000000240000402402DE9F0413D
:103A700086B0044614216846FCF77FFC3E49206866
:103A8000884275D13D480024016841F00071016011
:103A9000016801F000710591016841F080610160E9
:103AA000016801F080610591016841F000610160E9
:103AB000016801F000610591016841F004010160B5
:103AC000016801F004010591016841F00101016004
:103AD000016801F001010591016841F002010160F6
:103AE0000068022500F0020005903220CDE90005B3
:103AF00002AA03260B27DFF8888082E8D0006946F7
:103B0000404600F03DFB8620CDE9000502AA69464B
:103B100082E8D0001B4800F033FB4FF46050CDE941
:103B2000000502AA694682E8D000174800F028FB89
:103B3000002205213D2000F0DDFC3D2000F0CDFC01
:103B4000002205213E2000F0D5FC3E2000F0C5FCFF
:103B500000220121404600F0FBFB3220FFF7AEFCC3
:103B600001221146404600F0F3FB3220FFF7A6FC8D
:103B700006B0BDE8F081000000800240303802400D
:103B80000008024000000240000402402DE9F04716
:103B9000044690F84400914682281DD0822084F883
:103BA0004400226810694FF6FF7500F01C03208A5C
:103BB00005EAC02018434FF4F86303EA811101437A
:103BC00021F0020040F00105156100F0C7FB064638
:103BD00001274FF4803810E00220BDE8F08700BFD5
:103BE00000F0BCFB801B404505D304F8447F002057
:103BF00060700320F1E720680569E807F0D12068CC
:103C0000406981B2C9F8001084F844700020E4E7EC
:103C10000148006814F076BF20000020F8B5044683
:103C200090F84500012839D0012584F8455002203C
:103C300084F8440020680026016841F00801016012
:103C40002068006800902846FEF73AF9216800983D
:103C500008602068016841F0040101602068006884
:103C600000900120FEF72CF921680098086020469A
:103C7000FEF736F9206800F58050816941F4005163
:103C80008161206800F58050816941F00201816105
:103C900084F8445084F845600020F8BD0220F8BD47
:103CA000F8B5044690F84500012839D0012584F87C
:103CB0004550022084F84400206800F58050816956
:103CC00021F400518161206800F58050816921F064
:103CD0000201816120680026016821F00401016071
:103CE0002068006800900120FEF7EAF8216800983B
:103CF00008602046FEF7F4F82068016821F008010A
:103D000001602068006800900120FEF7D9F8216862
:103D10000098086084F8445084F845600020F8BD9D
:103D20000220F8BDF0B590F845200023012A11D0FB
:103D3000012780F84570022280F84420002459B100
:103D4000C66A3268002A0ADA122100F8441F447059
:103D50000120F0BD0220F0BD00F8447FF7E740F2FB
:103D6000F455A9420BD9B1FBF5FCB1FBF5F205FB0B
:103D70001C1CBCF1000F00D0521C012A43D1326838
:103D800042F040523260C26AC1F30C015160C16A14
:103D90000A6842F000420A60C16AC968C16234E040
:103DA000D6F800C02CF0405CC6F800C033B9C66A33
:103DB000D6F800C04CF0805CC6F800C0C66A7560DA
:103DC000561EB34214D1C66AD6F800C04CF0005C4F
:103DD000C6F800C0C2F10106C6EBC61606EB4606E1
:103DE000D0F82CC001EB8606C6F30C06CCF80460B4
:103DF000C66AD6F800C04CF0004CC6F800C0C66ACF
:103E00005B1CF668C6629342CAD3016801F5805113
:103E10004A69520705D504224A61016801F58051BB
:103E20004C6000F8447F44700020F0BD70470000F3
:103E30002DE9F041044690F8440042281ED042206B
:103E400084F84400236818694FF6FF7600F01C05DB
:103E5000208A06EAC02028434FF4F86505EA81115C
:103E6000014390B241F0030558612068056100F0FC
:103E700075FA064601274FF4803810E00220BDE8AD
:103E8000F08100BF00F06AFA801B404505D304F8BA
:103E9000447F002060700320F1E720680569E8078F
:103EA000F0D184F84470EAE72DE9F047044622484F
:103EB0000F46017E01290AD00121804601764CF28D
:103EC00050394846FEF74EFD020003D02FE0022095
:103ED000BDE8F0874FF0FF3038602068174D0128AB
:103EE00001D0A6681CE0207C6168FEF7A9FC48466A
:103EF000FEF738FD0246286820F00400286014E030
:103F0000217C3046FEF74AFC4846FEF72BFD0200B6
:103F1000286820F0FA00286001D03E6005E0761C99
:103F2000D4E902100844B042EAD8FEF75FFC002151
:103F300088F818101046CBE7D03F0020103C024014
:103F40000348016841F00041016000207047000013
:103F5000103C02402DE9F0471B4E05461446307ECA
:103F60001F468946012808D0012030764CF250388F
:103F70004046FEF7F7FC18B114E00220BDE8F087D8
:103F80009DB1012D16D0022D19D022463B46484640
:103F9000FEF77AFC4046FEF7E5FC0C490A6822F081
:103FA00001020A6000213176E8E7E1B24846FEF7F7
:103FB0005BFCEFE7A1B24846FEF77CFCEAE721464E
:103FC0004846FEF789FCE5E7D03F0020103C024060
:103FD000074900200A68002A09DA054A054B0C3A0D
:103FE0001360054B13600968002900DA012070474F
:103FF000103C024023016745AB89EFCD2DE9F04F1E
:104000000022DFF838B101264FF00F0906FA02F45A
:1040100001EA0403A3427DD122F003075F44D7F8ED
:10402000088895074FEA157C09FA0CFA0AEA080590
:10403000DFF80C81404502D14FF0000832E0DFF894
:104040000481404502D14FF001082BE0DFF8F880F1
:10405000404502D14FF0020824E0DFF8F0804045EF
:1040600002D14FF003081DE0DFF8E480404502D1A3
:104070004FF0040816E0DFF8DC80404502D14FF035
:1040800005080FE0DFF8D080404502D14FF0060868
:1040900008E0DFF8C880404502D14FF0070801E092
:1040A0004FF0080808FA0CF8A84522D12C4DD5F895
:1040B00000C02CEA030CC5F800C005F1040CDCF8C4
:1040C00000509D43CCF800500CF10405D5F800C019
:1040D0002CEA030CC5F800C02D1DD5F800C02CEA51
:1040E000030CC5F800C0D7F8085825EA0A05C7F838
:1040F0000858056857000323BB409D430560D50859
:1041000000EB8505D5F820C057074FEAD76809FAB4
:1041100008F700E00CE02CEA070CC5F820C0C568E1
:104120009D43C5604568A543456084689C438460A1
:10413000521C102AFFF46AAFBDE8F08F0030014036
:10414000000002400004024000080240000C02404F
:10415000001002400014024000180240001C0240FF
:10416000003C014070470000044910B50A68024253
:1041700002D00860FFF7F6FF10BD0000143C0140BC
:104180002DE9F84F00224FF0010803254FF00F0EE4
:104190000B6808FA02F42340A3426ED14E68012E48
:1041A00005D0022E03D0112E01D0122E12D1866816
:1041B0004FEA420C05FA0CF7BE43CF6807FA0CF73A
:1041C000374387604668A6430C79C4F300149440D3
:1041D00034434460C668570005FA07FC8C6826EA39
:1041E0000C06BC403443C4604C68022C01D0122C35
:1041F00013D1D40800EB8404A346D4F820905407CC
:104200004FEAD46A0EFA0AF629EA06090E6906FA96
:104210000AF646EA0906CBF8206006680C7926EA19
:104220000C0604F00304BC40344304604C68E40012
:1042300065D5364C266846F480462660246822F010
:10424000030604F480440094314C3444A446D4F86A
:1042500008489607370F0EFA07F6B4432D4EB042C2
:1042600001D1002624E02C4EB04201D101261FE0EE
:104270002A4EB04202D102261AE040E0284EB04257
:1042800001D1032614E0274EB04201D104260FE0ED
:10429000254EB04201D105260AE0244EB04201D19C
:1042A000062605E0224EB04201D1072600E008268E
:1042B000BE402643CCF808681E4E34684F689C43C5
:1042C000FF0300D51C4334601A4C241D26684F6838
:1042D0009E43BF0300D51E432660164E0836346841
:1042E0004F689C43FF0200D51C433460114E0C36CE
:1042F00034684F689C43BF0200D51C433460521C95
:10430000102AFFF445AFBDE8F88F000044380240A2
:10431000003001400000024000040240000802405A
:10432000000C02400010024000140240001802403D
:10433000001C0240003C01400069084000D0012000
:104340007047426931EA020200D109048161704775
:104350000AB1816170470904FBE7000001488068E9
:10436000704700002400002070B5040011D02168BF
:104370004CF6CC400860216845F255500860D4E9FD
:10438000000141602168A0688860FFF7E7FF0546EB
:1043900009E0012070BD00BFFFF7E0FF401B30289F
:1043A00001D9032070BD2068C0680028F4D12168BD
:1043B0004AF6AA200860002070BD00684AF6AA21CB
:1043C00001600020704700000248816802781144B3
:1043D00081607047240000200B4810B5016841F44B
:1043E00000710160016841F480610160016841F47D
:1043F00080710160032000F09DF8002000F006F8B5
:1044000000F03EF8002010BD003C024010B501460F
:1044100088B000221C2000F06DF81C2000F05DF830
:1044200014480024016841F001010160006805A9F9
:1044300000F001000690684600F0D8F900F0FCF9A1
:104440000D494000B0FBF1F10C484FF08042491E8D
:10445000026040F2E732C0E90324C0E9011400F031
:1044600087FF10B1012008B010BD044800F0BAFF6A
:10447000F9E700004038024040420F0010020010EF
:104480000C4882B0016841F480410160006800F48A
:10449000804000900748001F016841F08051016092
:1044A0000068002200F0805000900F21901E02B0A2
:1044B00000F020B84438024000280DDB00F01F0255
:1044C000012191404009800000F1E020C0F88011F6
:1044D000BFF34F8FBFF36F8F7047002809DB00F0E9
:1044E0001F02012191404009800000F1E020C0F846
:1044F00000117047F0B40E4B1B680C46C3F3022347
:10450000C3F10705042D00D90425191D072901D27F
:10451000002300E0DB1E012606FA05F1491E2140BA
:1045200099409E40761E16403143F0BC08F036B9E3
:104530000CED00E0064900F0070208684FF6FF03A3
:10454000184040EA0220034A104308607047000008
:104550000CED00E00000FA05BFF34F8F054801683D
:10456000054A01F4E06111430160BFF34F8F00BFC2
:10457000FDE700000CED00E00400FA052DE9F8432A
:10458000054600684FF00109C1074FF0000601D150
:10459000400727D5DFF80C81C8F86860FFF7DEFE1A
:1045A0000746414C05E000BFFFF7D8FEC01B0228BC
:1045B00057D820680001F7D468688101287A41EA59
:1045C0000070394984310860C8F86890FFF7C6FE6A
:1045D000074604E0FFF7C2FEC01B022841D820684E
:1045E0000001F7D52878800752D52F484030016860
:1045F00041F08051016000682C4C00F08050009028
:10460000206840F480702060FFF7A8FE074604E0B1
:10461000FFF7A4FEC01B022823D82068C005F7D5E9
:10462000214C7034206810F4407020D0A98901F426
:10463000407181421BD020681D4920F44070C1F8B0
:1046400000900E6020602068C00710D0FFF786FE43
:10465000064641F2883707E0FFF780FE801BB8422C
:1046600002D90320BDE8F88320688007F4D5E96803
:104670000D48C1F301220830032A0BD0016821F450
:10468000F81101602068A989C1F30B01084320607B
:104690000020E7E70268074B22F4F81219400A43AA
:1046A0000260EFE70000474200380240007000401F
:1046B000400E4742FFFCFF0F2DE9F0470E46050074
:1046C00065D0DFF81481D8F80000F7B200F00F00D1
:1046D000B04207D288F80070D8F8000000F00F0050
:1046E000B04254D128683D4C810712D5400703D50C
:1046F000206840F4E05020602878000703D5206847
:1047000040F4604020602068A96820F0F000084371
:1047100020602878C0072DD0304968680839012802
:1047200012D0022813D0032811D009688907002964
:104730002DDA216821F0030101432160FFF70EFE0D
:10474000814641F2883A0EE009688903EFE709687B
:104750008901ECE7FFF702FEA0EB0901514502D900
:104760000320BDE8F0872068696800F00C00B0EB1A
:10477000810FEFD1D8F80010404601F00F01B1428F
:1047800007D90770006800F00F00B04201D0012087
:10479000E7E72878400705D52068E96820F4E0506D
:1047A000084320602878000706D52068296920F48E
:1047B000604040EAC100206000F05EF82168084ACD
:1047C000C1F30311515CC8400649086006480068FF
:1047D000FFF71CFE0020C4E7003C024008380240FE
:1047E0002836040830000020280000200F22026034
:1047F0000C4A136803F003034360136803F0F003EB
:104800008360136803F4E053C36012684FF4E0530D
:1048100003EAD20202610448006800F00F00086059
:104820007047000008380240003C02400148006820
:1048300070470000300000200448054900680968FE
:10484000044AC1F38221515CC84070473000002007
:1048500008380240383604080448054900680968E9
:10486000044AC1F34231515CC84070473000002017
:104870000838024038360408154810B5006810F0B2
:104880000C02144813D01449042A0FD0082A0ED160
:104890000F4C241F2268236802F03F025B0207D5F9
:1048A0002068C0F38810A0FB010106E0084610BD97
:1048B0002168C1F38811A1FB00010023FBF7EEFC86
:1048C0002168C1F30141491C4900B0FBF1F010BD62
:1048D000083802400024F40040787D012DE9F84FAB
:1048E00004006ED02078DFF83C93C007A9F10405DE
:1048F0004AD009F104000168C1F38101012908D0FF
:104900000068C0F3810002280AD1D9F800004002F3
:1049100006D52868800337D560680028E1D033E0E9
:104920006068B0F5803F10D0B0F5A02F286810D097
:1049300020F480302860286820F480202860606897
:10494000A8B1FFF70BFD06460DE0286840F4803063
:10495000F4E740F480202860F7E700BFFFF7FEFC93
:10496000801B642873D828688003F7D50CE0FFF714
:10497000F5FC064605E000BFFFF7F0FC801B64284D
:10498000F0D828688003F7D42078DFF89C8280076D
:104990004FF0000A3ED5A348001D016811F00C0F2E
:1049A00008D00068C0F3810002280BD1D9F80000BC
:1049B000400207D42868800716D5E068012800D196
:1049C00012E02BE1E068B8B10120C8F80000FFF761
:1049D000C5FC064605E000BFFFF7C0FC801B0228AF
:1049E000C0D828688007F7D52868216920F0F8002A
:1049F00040EAC10028600DE0C8F800A0FFF7AEFC57
:104A0000064604E0FFF7AAFC801B02281FD828688E
:104A10008007F7D42078000722D5824E8348616949
:104A2000703671B101210160FFF798FC074604E080
:104A3000FFF794FCC01B022809D830688007F7D51F
:104A40000EE0C0F800A0FFF789FC074605E082E011
:104A5000FFF784FCC01B02287DD830688007F7D49C
:104A60002078400768D5DFF8BCB100270BF13C0B7C
:104A7000DBF80000C0000BD4DBF8001041F08051DF
:104A8000CBF80010DBF80000012700F08050009008
:104A9000674E3068C00510D4306840F480703060D4
:104AA000FFF75CFC009005E0FFF758FC0099401A06
:104AB000022850D83068C005F6D55A4EA0686C362A
:104AC00001280FD00528306810D020F00100306098
:104AD000306820F004003060A068B8B1FFF73EFCF9
:104AE00000900FE0306840F00100F4E740F004006F
:104AF0003060F7E7FFF732FC0099411A41F2883045
:104B0000814266D830688007F4D50EE0FFF726FCB6
:104B1000009007E0FFF722FC0099411A41F288302B
:104B2000814256D830688007F4D42FB1DBF80010EA
:104B300021F08051CBF80010A069C8B33949091D94
:104B40000968C1F3810102294AD00228504607D0E2
:104B5000C8F8600000E03CE0FFF700FC04463BE0E2
:104B60004746C8F86000FFF7F9FB064605E000BFBE
:104B7000FFF7F4FB801B02282BD828688001F7D4AC
:104B8000D4E907010843A16A2A4A490802EB014116
:104B9000626A41EA8211084394F82C1040EA0161EC
:104BA000C9F8001001203866FFF7D8FB044606E07C
:104BB00036E000BFFFF7D2FB001B022809D82868A7
:104BC0008001F7D52CE000BFFFF7C8FB001B0228CF
:104BD00002D90320BDE8F88F28688001F4D41FE0D3
:104BE0000128F7D0D9F80000E26900F48001914271
:104BF00014D1226A00F03F0191420FD147F6C071F3
:104C0000626A0140914209D1A26A00F440319142A6
:104C100004D1E16A00F07060884201D00120D9E738
:104C20000020D7E70438024000004742800E474288
:104C3000007000400000FFFF0068503050F8210075
:104C400070470068503040F82120704710B5006868
:104C50000B4641680D480140080CD870C1F304248C
:104C60005C7001F03F049C70C1F34231197052B97D
:104C700003F04CFFD870587803F048FF58709878CC
:104C800003F044FF9870002010BD00003FFFFF00BC
:104C900010B50B460168896A596001680969C1F35A
:104CA0000E019960006801680E480140C1F305409B
:104CB0001870C1F306245C7001F07F049C704024DE
:104CC00004EA1141D97052B903F020FF18705878E6
:104CD00003F01CFF5870987803F018FF98700020BC
:104CE00010BD00007F7F7F0070B5040002D0607FA0
:104CF00010B106E0012070BD00202077204600F0B2
:104D000049F8022060772168CA2048622168532050
:104D10004862204603F00EFFFF25042618BB2068DA
:104D200081681B4A1140816021688868626810436D
:104D3000D4E904231A43104388602168E0680861BD
:104D400020680169228941EA024101612068C16845
:104D500021F08001C16020688068800607D4204669
:104D600000F0FEF818B1206845626677C2E7206857
:104D7000016C21F4802101642068016CA269114357
:104D800001642068456201206077002070BD00004A
:104D9000BFFF8FFF00680349884202D1024901200A
:104DA00008607047002800403C0E47422DE9F0475C
:104DB0000446007F0B4601281FD04FF0010984F8FC
:104DC0001C9002206077DAB19878D97840EA0145E2
:104DD00058781978000240EA413005432168CA201A
:104DE0004862216853204862204603F0A3FE002653
:104DF000FF274FF0040860BB1AE00220BDE8F087EF
:104E00005878C10603D500F0EF000A305870D87802
:104E100003F085FE0204587803F081FE42EA002286
:104E2000987803F07CFE0243187842EA4035D5E7D3
:104E30000F480540206845602068C16821F0800166
:104E4000C1602068806880060AD4204600F088F897
:104E500030B12068476284F81D8026770120CDE7B5
:104E60002068476284F81D9026770020C6E700007E
:104E70003FFFFF002DE9F0470446007F0D46012863
:104E800027D04FF0010A84F81CA002206077206828
:104E9000002680684FEA4060F2B1002800DBEE7027
:104EA000A878297840EA01476878E978000240EA62
:104EB000014007432168CA204862216853204862A4
:104EC000204603F037FE4FF0FF084FF00409A0BB67
:104ED00016E00220BDE8F087002800DBEE7028789D
:104EE00003F01DFE0204687803F019FE42EA002276
:104EF000A87803F014FE0243E87842EA0047D9E7B5
:104F000016480740206807602068816821F48021E6
:104F10008160D5E90301084321688A6810438860ED
:104F20002068C16821F08001C16020688068800627
:104F30000BD4204600F014F838B12168C1F8248061
:104F400084F81D9026770120C4E72168C1F82480E9
:104F500084F81DA026770020BCE700007F7F7F003B
:104F600070B504460068C16821F0A001C160FFF778
:104F7000F5F905464FF47A7607E000BFFFF7EEF942
:104F8000401BB04201D9032070BD2068C068800674
:104F9000F4D5002070BD70B5040005D00025A562D1
:104FA00094F8510010B106E0012070BD84F8505013
:104FB000204600F031F8022084F851002068016892
:104FC00021F040010160D4E901010843D4E9031252
:104FD0001143084361690843218B01F400710843C0
:104FE000E1690843216A0843A16A0843216808600F
:104FF000A069042101EA1040616A08432168486001
:105000002068C16921F40061C1616565012084F8EF
:105010005100002070BD00002DE9F04387B0074625
:1050200014216846FBF7A9F92E49386800262E4C52
:105030000225884228D12C481430016841F480515F
:105040000160006800F480500590206840F0020084
:10505000206020684FF0050800F00200059028202D
:105060008DE861000320CDE90308DFF880906946F0
:105070004846FFF785F81020CDF810808DE86100D4
:1050800069464846FFF77CF819493868884225D1B7
:1050900015481030016841F400410160006800F4D7
:1050A00000400590206840F004002060206806243D
:1050B00000F0040005904FF4A050CDE900050D4F1D
:1050C000CDE9035469463846FFF75AF8F8140494BA
:1050D0008DE8610069463846FFF752F807B0BDE831
:1050E000F0830000003001403038024000040240EC
:1050F000003C0040000802402DE9F84F044690F8BB
:10510000500000270A9E1D4692468B464FF001092B
:1051100001280ED0012084F85000FFF71FF98046C7
:1051200094F85100616801280CD0B1F5827F07D155
:1051300002E00220BDE8F88FA16809B9042801D077
:105140000227C2E0BBF1000F27D0BAF1000F24D034
:105150001DB394F85100042802D0052084F85100B2
:1051600000206065C4F838A0E587A587C4F830B092
:10517000E586A5862064606420680168490603D43A
:10518000016841F040010160E068B0F5006F6068BF
:1051900005D0E8B3012D46D07FE0012795E008B1A6
:1051A000012D39D1206B21680088C860206B801CDC
:1051B0002063E08E401EE0862EE02068816889072B
:1051C0000FD5E18E69B1B9F1010F0AD1216B0988C0
:1051D000C160206B801C2063E08E401EE0864FF093
:1051E000000920688168C9070CD0E18F51B1C068FF
:1051F000A16B0880A06B801CA063E08F401EE0873D
:105200004FF00109FFF7AAF8A0EB0800B04200E058
:1052100009E001D3701C50D1E08E0028CDD1E08F81
:105220000028CAD13FE0206B216800780873206B0A
:10523000401C2063E08E401EE0862EE020688168DE
:1052400089070FD5E18E69B1B9F1010F0AD1216B40
:1052500009780173206B401C2063E08E401EE086BD
:105260004FF0000920688168C9070CD0E18F51B167
:10527000C068A16B0870A06B401CA063E08F401E4B
:10528000E0874FF00109FFF769F8A0EB0800B04292
:1052900002D3701C01D010E07EB1E08E0028CDD189
:1052A000E08F0028CAD142463146204604F0FEF97C
:1052B00028B101272020606507E0032705E0A068EA
:1052C00018B92068C16880680090012084F85100F6
:1052D000002084F8500038462CE7704770470000E3
:1052E00070B590F83C20012A32D0012480F83C406F
:1052F000022280F83D2003685A689D6822F07006FB
:105300000A6832435A60134B02689A4214D0B2F1D1
:10531000804F11D0104B9A420ED0104B9A420BD0B6
:105320000F4B9A4208D00F4B9A4205D00E4B9A422F
:1053300002D00E4B9A4204D1496825F080031943EC
:10534000916080F83D40002180F83C10084670BD17
:10535000022070BD00000140000400400008004031
:10536000000C0040000401400040014000180040D3
:1053700010B5040003D094F83D0010B107E00120FF
:1053800010BD002084F83C00204600F00DF80220FB
:1053900084F83D00211D206804F0D2FE012084F82D
:1053A0003D00002010BD000008B500680B49884290
:1053B00012D10B48016841F002010160006800222F
:1053C00000F00200009005211D20FFF793F8BDE8D2
:1053D00008401D20FFF781B808BD00000004004010
:1053E000403802400168CA6842F00102CA600068A1
:1053F000816801F00701062903D0016841F001012D
:1054000001600020704770B5044690F83C00012808
:1054100017D0012584F83C50022084F83D00206814
:10542000826822F0770222F47F4282600868502866
:1054300030D00DDC20284DD005DC98B310283BD1AE
:1054400048E0022070BD302844D0402834D139E0F3
:10545000602828D0702806D0B0F5805F2CD0B0F539
:10546000005F29D10AE0CB68D1E90121206804F06E
:10547000CBFE2068816841F0770109E0CB68D1E973
:105480000121206804F0C0FE2068816841F4804159
:10549000816011E0CA684968206804F0C7FE5021A5
:1054A000206807E016E0CA684968206804F0CFFE6B
:1054B0006021206804F0B2FE84F83D50002084F89A
:1054C0003C0070BDCA684968206804F0AFFE402106
:1054D0002068EFE7226801461046EBE7704770B599
:1054E0000446006801694FF00005C943890715D4D7
:1054F000C168C943890711D4E91E016101202077E1
:10550000206880698007204602D0FFF7E7FF04E0AB
:1055100000F098F8204600F096F825772068016999
:10552000C943490717D4C168C943490713D46FF069
:1055300004010161022020772068806910F4407F17
:10554000204602D0FFF7CAFF04E000F07BF82046B7
:1055500000F079F8257720680169C943090716D456
:10556000C168C943090712D46FF008010161042022
:1055700020772068C0698007204602D0FFF7AEFF81
:1055800004E000F05FF8204600F05DF82577206821
:105590000169C943C90617D4C168C943C90613D4F0
:1055A0006FF010010161082020772068C06910F4B5
:1055B000407F204602D0FFF791FF04E000F042F860
:1055C000204600F040F8257720680169C943C907E3
:1055D00008D1C168C943C90704D1891E01612046A9
:1055E00000F032F820680169C943090609D4C1688E
:1055F000C943090605D46FF0800101612046FFF719
:105600006CFE20680169C943490609D4C168C943D1
:10561000490605D46FF040010161204600F048F8CA
:1056200020680169C94389060BD4C168C94389064A
:1056300007D46FF0200101612046BDE87040FFF7FC
:105640004DBE70BD7047704770B504460068B0F13C
:10565000804F01D1FEF7B8FE13492068884222D15D
:10566000124C2068401C20606068401C606000F0A4
:105670005FFF60680A2816D3A0680025401CC4E9B3
:10568000015005F0DBFE06F045FFA0680A21B0FBE3
:10569000F1F201FB120008B907F0ECFEA068B0F5CA
:1056A0007A7F00D3A56070BD0004004000000010A8
:1056B0007047704770B5026804461068D168536936
:1056C00010F00F0F52D003F0010501F490762E4335
:1056D0005FD0C20705D0CA0503D5E26B42F00102D4
:1056E000E263420705D5DA0703D0E26B42F002021B
:1056F000E263820705D5DA0703D0E26B42F00402C9
:10570000E263020707D501F020022A4303D0E26BCF
:1057100042F00802E263E26B002A33D0800604D52F
:10572000880602D5204605F053F820684069E16BF1
:10573000C0F38010090700D428B3204605F03AF8DA
:105740002068416949061AD5416921F0400141614B
:10575000606BA0B11B490165606BFDF79DFE0028E1
:1057600010D0606B016DBDE870400847830610D50E
:105770008B060ED52046BDE8704005F029B82046BE
:10578000FFF797FF70BD2046FFF793FF0020E0630F
:1057900070BD030606D50B0604D52046BDE8704053
:1057A00005F0F6B84006F3D54806F1D5D168204695
:1057B00021F04001D160202184F8391000F08DFAE9
:1057C00070BD0000A5A7020870B5040004D094F8CD
:1057D0003900002510B106E0012070BD84F8385072
:1057E000204600F023F8242084F839002068C1689E
:1057F00021F40051C160204605F036F820680169A7
:1058000021F4904101612068416921F02A01416140
:105810002068C16841F40051C160E563202084F82C
:10582000390084F83A00002070BD00002DE9F04FE7
:1058300087B0804614216846FAF79FFD664C65499B
:10584000D8F800000027DFF89091143C02250326C9
:10585000DFF888B14FF0080A884230D1D9F800103B
:1058600041F02001C9F80010D9F8000000F0200034
:105870000590206840F004002060206802AA00F033
:10588000040005904020CDE90005012082E8410494
:1058900069465846FEF774FC8020CDE9000502AA4F
:1058A000012082E8410469465846FEF769FC00225F
:1058B00005214720FEF71EFE4720FEF70EFE484951
:1058C000D8F8002047484FF007088A4222D1D9F87B
:1058D000002042F01002C9F80020D9F8001001F0B1
:1058E00010010591216841F001012160216801F05A
:1058F000010105914FF4C0618DE8A200CDE9036874
:105900006946FEF73DFC002205212520FEF7F2FD49
:1059100025202CE03049344B091F9A422CD10A68CB
:1059200042F400320A60096801F4003105912168EF
:1059300041F0080121602168CDF800A001F00801C4
:10594000CDE904810396CDE901576946FEF718FCBD
:1059500020208DE8A100CDE9036869462348FEF7C1
:105960000FFC002205212620FEF7C4FD2620FEF7AD
:10597000B4FD07B0BDE8F08F1D488242F9D1086838
:1059800040F480200860086800F4802005902068BA
:1059900040F0040020602068694600F00400059093
:1059A00010158DE8A100CDE903685846FEF7E8FB25
:1059B0004FF400608DE8A100CDE9036869465846C0
:1059C000FEF7DEFB002205212720FEF793FD2720AE
:1059D000CDE70000001401404438024000080240B6
:1059E000001001400000024000440040000C024052
:1059F0000048004090F83A30202B22D1F9B1F2B1A2
:105A000090F83830012B1CD081628285C28500213C
:105A1000C163222280F83A2080F838100168CA68F1
:105A200042F48072CA6001684A6942F001024A6128
:105A30000068C16841F02001C1600020704701206A
:105A400070470220704700002DE9F84306460068C1
:105A500068492027684C00254FF4807888422BD174
:105A60002078FE2811D02570E088FF2808D9E5802D
:105A700041466248FAF781FC61A006F099FF04E014
:105A80005E4A21791154401CE0805B490122091DC6
:105A90005E48FFF7AFFF78B102280DD1306801688A
:105AA00040680090594880F83A70534980F838505F
:105AB0000122091DFFF79EFF5549306888422DD10C
:105AC0006078FE2811D065702089802808D3258150
:105AD00080215048FAF751FC49A006F069FF04E024
