:020000040800F2
:20000000082B00209D010008C12D0008A7010008C92C000855070008B935000800000000EA
:20002000000000000000000000000000AF0100084908000800000000B3010008B501000835
:20004000B7010008B7010008B7010008B7010008B7010008B7010008B7010008B7010008A0
:20006000B7010008B701000857080008B7010008B7010008B7010008B7010008B7010008D9
:20008000B7010008B7010008B7010008B7010008B7010008B7010008B7010008B701000860
:2000A000B7010008B7010008B7010008B7010008B92F0008C52F0008B7010008B7010008D4
:2000C000B7010008B7010008B7010008B7010008B701000869330008753300088133000850
:2000E0004F080008B7010008B7010008B7010008B7010008B7010008B7010008B701000861
:20010000B7010008B7010008B7010008B7010008A5300008A9300008B7010008B7010008A1
:20012000B7010008B7010008B7010008B7010008B70100084B0800084D080008B701000887
:20014000B7010008B7010008B7010008B7010008B7010008B7010008B7010008B70100089F
:20016000B7010008B7010008B7010008B7010008B7010008B7010008B7010008000000003F
:20018000B7010008B7010008DFF80CD000F0BEFA004800471D440008082B00200648804724
:2001A00006480047FEE7FEE7FEE7FEE7FEE7FEE7FEE7FEE7FEE7FEE79D2F00088901000852
:2001C0002DE9F05F0546002092469B4688460646814640241BE0284641464746224600F07C
:2001E00051F953465A46C01A914110D311461846224600F038F92D1A67EB01084F46224610
:200200000120002100F02FF917EB00094E41201EA4F10104DFDC484631462A464346BDE8B4
:20022000F09F40EA01039B0703D009E008C9121F08C0042AFAD203E011F8013B00F8013B83
:20024000521EF9D27047D2B201E000F8012B491EFBD270470022F6E710B513460A46044681
:200260001946FFF7F0FF204610BD421C10F8011B0029FBD1801A70472DE9FE4F81EA03046A
:2002800004F0004421F0004100944FF0000B23F0004350EA01045ED052EA03045BD0C3F30F
:2002A0000A54C1F30A552C44A4F2F3340194A0FB0254C1F3130141F48011C3F3130343F489
:2002C000801301FB024400FB034E840A970A44EA815447EA8357A4FB076802958D0A05FB84
:2002E00007854FEA932C04FB0C542705029D4FEA065847EA1637B5EB08056EEB070C870E8D
:20030000920E47EA811742EA8312A7FB0201B6EB0B0164EB00042B0D43EA0C335E1844EBC5
:200320001C50DA465146E7FB0201C5F313044FEA0B3343EA14534FEA0432019C43EA060399
:20034000A4F10C040294009CCDE900B400F0B9F803B0BDE8F08F00200146F9E72DE9F04D4A
:2003600081EA030404F0004B21F0004514464FF0000A23F0004150EA050220D054EA01020D
:200380001DD0C5F30A570246C5F31303C1F31300C1F30A5640F4801543F48013A7EB060833
:2003A000101BD64608F2FD3873EB050002D308F1010801E092185B41B8F1000F03DA0020B1
:2003C0000146BDE8F08D00204FF48011064684460EE0171B73EB050705D3121B63EB0503C5
:2003E00006434CEA010C49084FEA300092185B4150EA0107EDD152EA030012D082EA0400E0
:2004000083EA0501084305D0101BAB4106D20122002306E000224FF0004302E06FF0010246
:2004200053101AEB06004CEB085110EB0A0041EB0B01BDE8F04D00F035B830B50B46014645
:2004400000202022012409E021FA02F59D4205D303FA02F5491B04FA02F52844151EA2F1E4
:200460000102F1DC30BD202A04DB203A00FA02F1002070479140C2F1200320FA03F3194365
:2004800090407047202A04DB203A21FA02F00021704721FA02F3D040C2F12002914008435C
:2004A0001946704710B5141E73F1000408DA401C41F1000192185B411A4301D120F00100D0
:2004C00010BD2DE9F04D92469B4611B1B1FA81F202E0B0FA80F220329046FFF7C4FF04463A
:2004E0000F4640EA0A0041EA0B0153465A46084313D0114653EA010019D0C8F140025046C6
:20050000FFF7C0FF05460E46504659464246FFF7AAFF084305D0012004E020463946BDE87C
:20052000F08D0020054346EAE0762C4337430A986305E40AA0EB08000022FD0A44EA4754EA
:200540000A3002D500200146E9E7010510196941DDE9084500196941BDE8F04DA2E72DE923
:20056000FE4F804681EA0300C00F0C46009021F0004123F00045B8EB0200A94105D24046B3
:20058000214690461C460B46024623F00040104347D0270DC7F30A00C3F30A510290401A71
:2005A000019040286BDAC3F3130040F4801B0098924620B10023D2EB030A63EB0B0B01983A
:2005C0005946C0F140025046FFF74DFF06460D4650465946019A00F0ABF810EB080061410A
:2005E000002487EA115284EAE7731A4340D0009A62B3019A012A4FEA075215DC001B61EB6F
:2006000002014FF0004202EA0752CDE90042001C41F5801132462B46FFF753FF03B0BDE8AD
:20062000F08F40462146F9E7001B61EB0201001C41F5801300185B412018A2F5001747EB53
:20064000030140EAD570B6196D4111E06D084FEA360645EAC0754FEA0752001B61EB02016F
:20066000001C41F5801149084FEA30000019514132462B4603B0BDE8F04FFFF713BF009852
:20068000012240000023D0EB020263EBE073009821464FEAE074B8EB000061EB0401E9E724
:2006A00083F000435BE781F0004158E7C1F30A52C1F3130140F2FF3341F480119A4202DA97
:2006C00000200146704740F233439A42A2F2334202DC5242FFF7D6BEFFF7C5BE30B5041EF3
:2006E00071F1000404DB4FF00044404264EB0101141E73F1000405DB1C464FF0004352426D
:2007000063EB0403994208BF904230BD064C074D06E0E06840F0010394E807009847103475
:20072000AC42F6D3FFF734FDE846000808470008202A06DBCB17203A41FA02F043EAE0733A
:2007400006E041FA02F3D040C2F120029140084319467047FEE700002DE9F04FC1F30B046F
:2007600093460D4606460F0B97B0224639462DA003F038FA684601F0A5FE4FF48020012E73
:200780000DD0022E01D0032E49D1854247D800254FF474384FF480594FF0320A24E08542D4
:2007A0003DD82A46244933E0022E02D0032E04D009E008EB05304A4602E04A4609EB0530F1
:2007C0001E4901F061FD4A461C49684602F0EAF9B5FBFAF10AFB115010B919A003F002FA79
:2007E00018A003F0FFF96D1CBD42DDD39CB1022E02D0032E04D009E0224608EB073002E06D
:20080000224609EB07300D4901F03EFD0B492246684602F0C7F95946684601F02DFE17B077
:20082000BDE8F08F0D0A20BCC6CBE3CAFDC1BF25642E25640000000000000208AC160020BA
:200840000D0A00002A0000007047704770474FF4804000F02BBB102000F028BB012809D054
:2008600002280FD0032809D004280FD10121002002F0A4BE0649074802F027BA3C214FF4B8
:200880008050F5E73C214FF47430F1E770470000FFBF05080000020870470000002229B151
:2008A00001291AD002291BD04FF440720E490B6823F440730B600B6813430B600A6822F062
:2008C000F8020A600A68022303EBC00002430A60086840F48030086070474FF48072E5E74C
:2008E0004FF40072E2E70000103C02401348016889050FD5016821F400710160016841F4C8
:2009000000610160016821F400610160016841F400710160016849050FD5016821F480616B
:200920000160016841F480510160016821F480510160016841F4806101607047003C0240C1
:2009400008490A6822F440720A600A6842F004020A600A684FF4803343EA002002430A602A
:2009600070470000103C0240064A136823F44073136013681360136843F0010313600170A6
:2009800070470000103C0240094910B50C6824F440740C600C6844F440740C600C6844F0DB
:2009A00001040C600260BFF36F8F436010BD0000103C0240074A136823F440731360136832
:2009C00043F480731360136843F001031360018070470000103C0240074A136823F44073F9
:2009E0001360136843F400731360136843F001031360016070470000103C02401749086851
:200A0000C206174805D5C26942F01002C26110220A600A68920605D5C26942F00802C26139
:200A200020220A600A68520605D5C26942F00402C26140220A600A68120605D5C26942F053
:200A40000202C26180220A600A68920705D5C26942F02002C2610220086070470C3C024011
:200A60008C06002070B5114904460020C86100F011FB06460E4D09E0601C07D024B100F00E
:200A800009FB801BA04201D9032070BD2868C003F2D42868C00701D001202860286810F031
:200AA000F200F2D0FFF7AAFF012070BD8C0600200C3C02400021A0F100634FF4804293426A
:200AC0003FD321490144914201D2012139E01F490144914201D2022133E01D49014491426D
:200AE00001D203212DE01B490144B1F5803F01D2042126E0184942184FF400318A4201D218
:200B000005211EE0154A02448A4201D2062118E0134A02448A4201D2072112E0114A024451
:200B20008A4201D208210CE00F4A02448A4201D2092106E00D4A1044884201D20A2100E060
:200B40000B2108467047000000C0FFF70080FFF70040FFF70000FFF70000FEF70000FCF724
:200B60000000FAF70000F8F70000F6F70000F4F790F83510022903D08021416501207047D3
:200B8000052180F835100068016821F001010160002070470B4A10B54FF0FF30106000213D
:200BA0001160121D10601160064A103A10601160121D10601160121D1060116000F0FCFA33
:200BC000002010BD2038024070B5044600F062FA0546601C02D004480078044400F05AFAEA
:200BE000401BA042FAD370BD040000202DE9F047044622480F46017E01290AD001218046D9
:200C000001764CF250394846FFF72CFF020003D02FE00220BDE8F0874FF0FF303860206837
:200C2000174D012801D0A6681CE0207C6168FFF787FE4846FFF716FF0246286820F00400E7
:200C4000286014E0217C3046FFF728FE4846FFF709FF0200286820F0FA00286001D03E60CA
:200C600005E0761CD4E902100844B042EAD8FFF73DFE002188F818101046CBE78C0600207A
:200C8000103C02400348016841F000410160002070470000103C02402DE9F0471B4E0546D9
:200CA0001446307E1F468946012808D0012030764CF250384046FFF7D5FE18B114E002203C
:200CC000BDE8F0879DB1012D16D0022D19D022463B464846FFF758FE4046FFF7C3FE0C4929
:200CE0000A6822F001020A6000213176E8E7E1B24846FFF739FEEFE7A1B24846FFF75AFE19
:200D0000EAE721464846FFF767FEE5E78C060020103C0240074900200A68002A09DA054A68
:200D2000054B0C3A1360054B13600968002900DA01207047103C024023016745AB89EFCD4D
:200D40002DE9F04F0022DFF838B101264FF00F0906FA02F401EA0403A3427DD122F00307A7
:200D60005F44D7F8088895074FEA157C09FA0CFA0AEA0805DFF80C81404502D14FF00008FE
:200D800032E0DFF80481404502D14FF001082BE0DFF8F880404502D14FF0020824E0DFF86F
:200DA000F080404502D14FF003081DE0DFF8E480404502D14FF0040816E0DFF8DC80404598
:200DC00002D14FF005080FE0DFF8D080404502D14FF0060808E0DFF8C880404502D14FF09B
:200DE000070801E04FF0080808FA0CF8A84522D12C4DD5F800C02CEA030CC5F800C005F130
:200E0000040CDCF800509D43CCF800500CF10405D5F800C02CEA030CC5F800C02D1DD5F85E
:200E200000C02CEA030CC5F800C0D7F8085825EA0A05C7F80858056857000323BB409D431F
:200E40000560D50800EB8505D5F820C057074FEAD76809FA08F700E00CE02CEA070CC5F8A4
:200E600020C0C5689D43C5604568A543456084689C438460521C102AFFF46AAFBDE8F08F9F
:200E800000300140000002400004024000080240000C0240001002400014024000180240BF
:200EA000001C0240003C014070470000044910B50A68024202D00860FFF7F6FF10BD0000E6
:200EC000143C01402DE9F84F00224FF0010803254FF00F0E0B6808FA02F42340A3426ED144
:200EE0004E68012E05D0022E03D0112E01D0122E12D186684FEA420C05FA0CF7BE43CF6853
:200F000007FA0CF7374387604668A6430C79C4F30014944034434460C668570005FA07FC0F
:200F20008C6826EA0C06BC403443C4604C68022C01D0122C13D1D40800EB8404A346D4F82B
:200F4000209054074FEAD46A0EFA0AF629EA06090E6906FA0AF646EA0906CBF8206006687E
:200F60000C7926EA0C0604F00304BC40344304604C68E40065D5364C266846F48046266090
:200F8000246822F0030604F480440094314C3444A446D4F808489607370F0EFA07F6B44380
:200FA0002D4EB04201D1002624E02C4EB04201D101261FE02A4EB04202D102261AE040E0E5
:200FC000284EB04201D1032614E0274EB04201D104260FE0254EB04201D105260AE0244EAA
:200FE000B04201D1062605E0224EB04201D1072600E00826BE402643CCF808681E4E34680A
:201000004F689C43FF0300D51C4334601A4C241D26684F689E43BF0300D51E432660164EC1
:20102000083634684F689C43FF0200D51C433460114E0C3634684F689C43BF0200D51C43AF
:201040003460521C102AFFF445AFBDE8F88F0000443802400030014000000240000402408A
:2010600000080240000C0240001002400014024000180240001C0240003C0140426931EA35
:20108000020200D10904816170470AB1816170470904FBE701488068704700000400002086
:2010A00070B5040011D021684CF6CC400860216845F255500860D4E9000141602168A0682A
:2010C0008860FFF7E7FF054609E0012070BD00BFFFF7E0FF401B302801D9032070BD2068D1
:2010E000C0680028F4D121684AF6AA200860002070BD00684AF6AA210160002070470000E8
:20110000024881680278114481607047040000200B4810B5016841F400710160016841F4EB
:2011200080610160016841F480710160032000F09FF8002000F006F800F040F8002010BDB0
:20114000003C024010B5014688B000221C2000F06FF81C2000F05FF814480024016841F07B
:2011600001010160006805A900F001000690684600F02AF900F048F90D494000B0FBF1F15A
:201180000C484FF08042491E026040F2E732C0E90324C0E9011400F0A6FC10B1012008B02C
:2011A00010BD044800F0BBFCF9E700004038024040420F004C060020704700000C4882B095
:2011C000016841F480410160006800F4804000900748001F016841F08051016000680022DF
:2011E00000F0805000900F21901E02B000F020B84438024000280DDB00F01F020121914075
:201200004009800000F1E020C0F88011BFF34F8FBFF36F8F7047002809DB00F01F02012195
:2012200091404009800000F1E020C0F800117047F0B40E4B1B680C46C3F30223C3F1070536
:20124000042D00D90425191D072901D2002300E0DB1E012606FA05F1491E214099409E408A
:20126000761E16403143F0BC02F0DABB0CED00E0064900F0070208684FF6FF03184040EA83
:201280000220034A10430860704700000CED00E00000FA052DE9F0470E46050065D0DFF8E3
:2012A0001481D8F80000F7B200F00F00B04207D288F80070D8F8000000F00F00B04254D180
:2012C00028683D4C810712D5400703D5206840F4E05020602878000703D5206840F4604020
:2012E00020602068A96820F0F000084320602878C0072DD0304968680839012812D00228E7
:2013000013D0032811D00968890700292DDA216821F0030101432160FFF7BCFE814641F2A0
:20132000883A0EE009688903EFE709688901ECE7FFF7B0FEA0EB0901514502D90320BDE8EA
:20134000F0872068696800F00C00B0EB810FEFD1D8F80010404601F00F01B14207D9077025
:20136000006800F00F00B04201D00120E7E72878400705D52068E96820F4E05008432060AB
:201380002878000706D52068296920F4604040EAC100206000F058F82168084AC1F30311AF
:2013A000515CC8400649086006480068FFF7CAFE0020C4E7003C024008380240D046000864
:2013C00010000020080000200F2202600C4A136803F003034360136803F0F00383601368F6
:2013E00003F4E053C36012684FF4E05303EAD20202610448006800F00F00086070470000BA
:2014000008380240003C02400448054900680968044AC1F38221515CC84070471000002018
:2014200008380240E04600080448054900680968044AC1F34231515CC84070471000002078
:2014400008380240E0460008154810B5006810F00C02144813D01449042A0FD0082A0ED18A
:201460000F4C241F2268236802F03F025B0207D52068C0F38810A0FB010106E0084610BDDC
:201480002168C1F38811A1FB00010023FEF798FE2168C1F30141491C4900B0FBF1F010BDA5
:2014A000083802400024F40040787D012DE9F84F04006ED02078DFF83C93C007A9F1040515
:2014C0004AD009F104000168C1F38101012908D00068C0F3810002280AD1D9F8000040029F
:2014E00006D52868800337D560680028E1D033E06068B0F5803F10D0B0F5A02F286810D04E
:2015000020F480302860286820F4802028606068A8B1FFF7BFFD06460DE0286840F4803033
:20152000F4E740F480202860F7E700BFFFF7B2FD801B642873D828688003F7D50CE0FFF7FF
:20154000A9FD064605E000BFFFF7A4FD801B6428F0D828688003F7D42078DFF89C8280077D
:201560004FF0000A3ED5A348001D016811F00C0F08D00068C0F3810002280BD1D9F8000037
:20158000400207D42868800716D5E068012800D112E02BE1E068B8B10120C8F80000FFF764
:2015A00079FD064605E000BFFFF774FD801B0228C0D828688007F7D52868216920F0F800FC
:2015C00040EAC10028600DE0C8F800A0FFF762FD064604E0FFF75EFD801B02281FD8286829
:2015E0008007F7D42078000722D5824E83486169703671B101210160FFF74CFD074604E0E3
:20160000FFF748FDC01B022809D830688007F7D50EE0C0F800A0FFF73DFD074605E082E0B4
:20162000FFF738FDC01B02287DD830688007F7D42078400768D5DFF8BCB100270BF13C0B71
:20164000DBF80000C0000BD4DBF8001041F08051CBF80010DBF80000012700F08050009015
:20166000674E3068C00510D4306840F480703060FFF710FD009005E0FFF70CFD0099401ABE
:20168000022850D83068C005F6D55A4EA0686C3601280FD00528306810D020F00100306030
:2016A000306820F004003060A068B8B1FFF7F2FC00900FE0306840F00100F4E740F0040042
:2016C0003060F7E7FFF7E6FC0099411A41F28830814266D830688007F4D50EE0FFF7DAFC42
:2016E000009007E0FFF7D6FC0099411A41F28830814256D830688007F4D42FB1DBF8001031
:2017000021F08051CBF80010A069C8B33949091D0968C1F3810102294AD00228504607D065
:20172000C8F8600000E03CE0FFF7B4FC04463BE04746C8F86000FFF7ADFC064605E000BF46
:20174000FFF7A8FC801B02282BD828688001F7D4D4E907010843A16A2A4A490802EB01413C
:20176000626A41EA8211084394F82C1040EA0161C9F8001001203866FFF78CFC044606E002
:2017800036E000BFFFF786FC001B022809D828688001F7D52CE000BFFFF77CFC001B02287B
:2017A00002D90320BDE8F88F28688001F4D41FE00128F7D0D9F80000E26900F480019142D3
:2017C00014D1226A00F03F0191420FD147F6C071626A0140914209D1A26A00F44031914249
:2017E00004D1E16A00F07060884201D00120D9E70020D7E70438024000004742800E474291
:20180000007000400000FFFF70B5040005D00025A56294F8510010B106E0012070BD84F8A2
:201820005050204600F030F8022084F851002068016821F040010160D4E901010843D4E930
:2018400003121143084361690843218B01F400710843E1690843216A0843A16A0843216818
:201860000860A069042101EA1040616A0843216848602068C16921F40061C161656501201B
:2018800084F85100002070BDF0B587B0044614216846FEF7DFFC17492068884228D116484C
:2018A0000025016841F400410160006800F40040059011481038016841F004010160006889
:2018C000022400F0040005904FF4A050CDE9000406260A4FCDE9034669463846FFF7F2FAD9
:2018E000A00204968DE8310069463846FFF7EAFA07B0F0BD003C004040380240000802401B
:201900002DE9F84F044690F8500000270A9E1D4692468B464FF0010901280ED0012084F880
:201920005000FFF7B7FB804694F85100616801280CD0B1F5827F07D102E00220BDE8F88F8F
:20194000A16809B9042801D00227C2E0BBF1000F27D0BAF1000F24D01DB394F851000428BB
:2019600002D0052084F8510000206065C4F838A0E587A587C4F830B0E586A5862064606418
:2019800020680168490603D4016841F040010160E068B0F5006F606805D0E8B3012D46D01C
:2019A0007FE0012795E008B1012D39D1206B21680088C860206B801C2063E08E401EE0869A
:2019C0002EE02068816889070FD5E18E69B1B9F1010F0AD1216B0988C160206B801C20630E
:2019E000E08E401EE0864FF0000920688168C9070CD0E18F51B1C068A16B0880A06B801C7B
:201A0000A063E08F401EE0874FF00109FFF742FBA0EB0800B04200E009E001D3701C50D144
:201A2000E08E0028CDD1E08F0028CAD13FE0206B216800780873206B401C2063E08E401EE4
:201A4000E0862EE02068816889070FD5E18E69B1B9F1010F0AD1216B09780173206B401CA7
:201A60002063E08E401EE0864FF0000920688168C9070CD0E18F51B1C068A16B0870A06B23
:201A8000401CA063E08F401EE0874FF00109FFF701FBA0EB0800B04202D3701C01D010E0D1
:201AA0007EB1E08E0028CDD1E08F0028CAD142463146204601F086F928B1012720206065B6
:201AC00007E0032705E0A06818B92068C16880680090012084F85100002084F850003846B6
:201AE0002CE77047704710B5040003D094F83D0010B107E0012010BD002084F83C0020462C
:201B000000F00CF8022084F83D00211D206801F05BFA012084F83D00002010BD7047016803
:201B2000CA6842F00102CA600068816801F00701062903D0016841F00101016000207047F4
:201B4000704770B50446006801694FF00005C943890715D4C168C943890711D4E91E0161B1
:201B600001202077206880698007204602D0FFF7E7FF04E000F098F8204600F096F82577BD
:201B800020680169C943490717D4C168C943490713D46FF0040101610220207720688069B0
:201BA00010F4407F204602D0FFF7CAFF04E000F07BF8204600F079F8257720680169C943C3
:201BC000090716D4C168C943090712D46FF008010161042020772068C0698007204602D0EB
:201BE000FFF7AEFF04E000F05FF8204600F05DF8257720680169C943C90617D4C168C943E3
:201C0000C90613D46FF010010161082020772068C06910F4407F204602D0FFF791FF04E067
:201C200000F042F8204600F040F8257720680169C943C90708D1C168C943C90704D1891E28
:201C40000161204600F032F820680169C943090609D4C168C943090605D46FF08001016159
:201C60002046FFF73EFF20680169C943490609D4C168C943490605D46FF0400101612046DC
:201C800000F01BF820680169C94389060BD4C168C943890607D46FF0200101612046BDE849
:201CA0007040FFF71FBF70BD704770470068B0F1804F01D1FFF724BA7047704710B5040050
:201CC00013D0242084F839002068C16821F40051C160204600F0C8F80020E06384F83900C2
:201CE00084F83A0084F8380010BD012010BD704770B5026804461068D168536910F00F0FA4
:201D000052D003F0010501F490762E435FD0C20705D0CA0503D5E26B42F00102E2634207B8
:201D200005D5DA0703D0E26B42F00202E263820705D5DA0703D0E26B42F00402E263020763
:201D400007D501F020022A4303D0E26B42F00802E263E26B002A33D0800604D5880602D548
:201D6000204601F0BDF920684069E16BC0F38010090700D428B3204601F0A4F920684169B1
:201D800049061AD5416921F040014161606BA0B11B490165606BFEF7EBFE002810D0606B05
:201DA000016DBDE870400847830610D58B060ED52046BDE8704001F093B92046FFF797FF45
:201DC00070BD2046FFF793FF0020E06370BD030606D50B0604D52046BDE8704001F060BAC4
:201DE0004006F3D54806F1D5D168204621F04001D160202184F8391000F04BF970BD000038
:201E0000B530000870B5040004D094F83900002510B106E0012070BD84F83850204600F09F
:201E20003FF8242084F839002068C16821F40051C160204601F0A0F92068016921F4904172
:201E400001612068416921F02A0141612068C16841F40051C160E563202084F8390084F8FF
:201E60003A00002070BD000010B50068094988420ED10948016821F0100101604FF4C06112
:201E80000648FEF75DFFBDE810402520FFF7B2B910BD0000001001404438024000040240E6
:201EA00010B586B0044614216846FEF7D3F918492068884229D117480021026842F010025E
:201EC0000260006800F01000059012481438026842F001020260006800F0010005904FF4CB
:201EE000C06000900220CDE90101032003900720049069460848FEF7E5FF00220521252082
:201F0000FFF796F92520FFF786F906B010BD000000100140443802400000024090F83A30BC
:201F2000202B22D1F9B1F2B190F83830012B1CD081628285C2850021C163222280F83A2082
:201F400080F838100168CA6842F48072CA6001684A6942F001024A610068C16841F02001F5
:201F6000C160002070470120704702207047000010B50068114988421FD111480178FE297E
:201F800013D0002202704188FF2909D942804FF480710C48FEF75EF90BA001F023FE04E0C0
:201FA000084B42785A54491C418005490122BDE81040491C0748FFF7B1BF10BD00100140A2
:201FC0000000002064000020CAFDBEDDD2E7B3F600000000640100202DE9F843044690F8F1
:201FE00039001F4616460D46202850D1B5B1AEB194F8380001284AD0012084F838004FF04B
:202000000008C4F83C80212084F83900FFF742F8A6848146E68484F8388026E00120BDE8BF
:20202000F883E08C401EE084A0684B46B0F5805F4FF000024FF080012046009703D001F018
:2020400060F9E8B90DE001F05CF9C8B928882168C0F308004860206908B16D1C05E0AD1CBD
:2020600003E0216815F8010B4860E08C0028D8D14B46002240212046009701F042F908B100
:202080000320CCE7202084F839000020C7E70220C5E7704710B541680822B2EB116F39D163
:2020A00001681D4A1140B1F1005F33D14468006880F3088819A001F095FD1C48FFF7FEFD52
:2020C000FEF768FD1A48016821F001010160016821F002010160016821F004010160016840
:2020E00021F008010160016821F010010160016821F020010160016821F0800101600C48CD
:202100001430016821F01001016072B6A446BDE81040604710BD00000000F02F0D0A6A75FF
:202120006D7020746F206170700D0A00640100203038024070B586B04FF40065172269462D
:20214000284600F09CF836A001F04CFD684601F05DFD9DF8140000246E10012807D034A065
:2021600001F040FD9DF81500012831D04EE033A001F038FD01F00AF910B101280CD01CE080
:202180008DF814408DF815408DF8164017226946002000F07EF817E002F0A4F917226946D5
:2021A000304600F06CF817226946002000F071F817226946284600F062F801208DF8150099
:2021C0008DF814408DF816401722694628461BE09DF816000A281ED31CA001F003FD02F08D
:2021E00081F98DF815408DF814408DF8164017226946284600F04DF817226946304600F0FE
:202200003EF817226946002000F043F815A001F0E9FC06B070BD401C8DF81600D4E7000035
:202220000D0A20B8FCD0C2C7F8D0C5CFA20000000D0A20CEDEB8FCD0C2A3A1000D0A20D3E5
:20224000D0B8FCD0C2CAFDBEDDA3A1000D0A20B8FCD0C2CAA7B0DC20CDCBBBD8B8FCD0C2B7
:20226000A3A100000D0A20CCF8D7AAB5BDD6F7B3CCD0F2000B460146184601F05DBA0B46CF
:202280000146184601F058BA0B460146184601F053BA2DE9F04192B017468846044617226B
:2022A00069460020FFF7EBFF4FF48065172206A92846FFF7E4FF6E0017220CA93046FFF750
:2022C000DEFF0420FEF7CAFA2CB1AC4207D13A46414606A808E03A464146684604E0B44275
:2022E00004D13A4641460CA800F015FE17220021684601F0BDFA1722294606A801F0B8FAA2
:20230000172231460CA801F0B3FA12B0BDE8F08102F068B810B5174C2068800102D516A013
:2023200001F060FC2068400102D51BA001F05AFC2068000102D51FA001F054FC2068C00006
:2023400002D521A001F04EFC2068800001D522A008E02068400001D526A003E0206800282B
:2023600002DA2AA001F03EFC206840F08070206010BD0000743802400D0AB7A2C9FA205006
:202380004F522F50445220B8B4CEBBBBF220424F5220B8B4CEBB00000D0AB7A2C9FAC0B406
:2023A000D7D4204E52535420D2FDBDC5B5C4B8B4CEBB00000D0AB7A2C9FA20504F522F5069
:2023C000445220B8B4CEBB000D0AB7A2C9FAC8EDBCFEB8B4CEBB00000D0AB7A2C9FAC0B414
:2023E000D7D4B6C0C1A2BFB4C3C5B9B7B8B4CEBB000000000D0AB7A2C9FAB4B0BFDABFB456
:20240000C3C5B9B7B8B4CEBB000000000D0AB7A2C9FAB5CDB9A6BAC4B9DCC0EDB8B4CEBB06
:202420000000000070B50024234608E0CD181B1DEE782D6866F31F6540F82450641C93420C
:20244000F4D370BD70B500231C4611E011F82350055531F823502E0A05196E7051F823607B
:20246000360CAE7051F823605B1C360EEE70241D9442EBD370BD00007CB5044600880E46BE
:20248000C0F3C500382802D2C0F1380501E0C0F17805082221466846FFF7D4FF2A460849CA
:2024A000204600F07FFB08226946204600F07AFB102204F108013046FFF7C4FF7CBD000010
:2024C00016000020002101604160054981600549C1600349C94301610249C943416170479B
:2024E0000123456789ABCDEF2DE9F0410446C0B054F8048B402294E8E0006846241FFFF79B
:2025000091FF05EA060027EA05010843FE49009A014402EB0800084405EB706000EA0501BD
:2025200026EA00021143F94A1144019A3A44114400EB315303EA000125EA03021143F44A2C
:202540001144029A3244114403EBF13101EA030220EA01063243EF4E3244039E35442A44FE
:2025600001EBB22202EA010523EA02063543EA4E3544049E3044284402EB706000EA02053B
:2025800021EA00063543E54E3544059E33442B4400EB335303EA000522EA03063543E04E5F
:2025A0003544069E3144294403EBF13101EA030520EA01063543DB4E3544079E32442A4465
:2025C00001EBB22202EA010523EA02063543D64E3544089E3044284402EB706505EA0200E6
:2025E00021EA05063043D14E3044099E3344184405EB305000EA050322EA000633430A9EB3
:20260000A3F5244331444F3B194400EBF13303EA000125EA03063143C54E31440B9E32442F
:20262000114403EBB12101EA030220EA01063243C04E32440C9E35442A4401EB726202EA4E
:20264000010523EA02063543BB4E35440D9E3044284402EB305505EA020021EA05063043EE
:20266000B64E30440E9E3344184405EBF03000EA050322EA00063343B14E33440F9E314441
:20268000194400EBB12101EA050320EA05063343AC4E3344019E32441A4401EBF26202EA92
:2026A000000321EA00063343A74E3344069E35442B4402EBF35303EA010522EA01063543E7
:2026C000A24E35440B9E3044284403EBB04000EA020523EA020635439D4E3544009E314435
:2026E000294400EB313101EA030520EA03063543984E3544059E32442A4401EBF26202EA90
:20270000000521EA00063543934E35440A9E33442B4402EBF35303EA010522EA0106354392
:202720008E4E35440F9E3044284403EBB04000EA020523EA02063543894E3544049E3144F4
:20274000294400EB313101EA030520EA03063543844E3544099E32442A4401EBF26202EA3F
:20276000000521EA000635437F4E35440E9E33442B4402EBF35303EA010522EA0106354342
:202780007A4E3544039E3044284403EBB04000EA020523EA02063543754E3544089E3144C4
:2027A000294400EB313101EA030520EA03063543704E35440D9E32442A4401EBF26202EAEF
:2027C000000521EA000635436B4E3544029E33442B4402EBF35303EA010522EA0106354302
:2027E000664E3544079E3044284403EBB04000EA020523EA02063543614E35440C9E314484
:202800002944059D00EB3131154481EA00025D4E5A4032442A44089D01EB32721D4482EA6B
:2028200001034340584E33442B440B9D02EB7353054483EA0200554E48403044284403EB79
:2028400030450E98524E014485EA030050403044084405EB70260198811886EA05004D4AF2
:2028600058401044084406EB30720498C11882EA0600494B684018440844079902EB705075
:202880004B1980EA0201454D7140294419440A9B00EB31419D1981EA0003414E534033449B
:2028A0002B440D9D01EB7323154483EA01023D4E424032442A44009D03EB3272054482EADF
:2028C0000300394E48403044284402EB70550398364E014485EA020058403044084405EB37
:2028E00030410698324E034481EA0500504030441844099B01EB7020134480EA01022D4ED3
:202900006A4032441A4457E078A46AD756B7C7E8DB702024EECEBDC1AF0F7CF52AC6874733
:20292000134630A8019546FDD8988069AFF7448BBED75C892211906B937198FD8E4379A68E
:202940002108B44962251EF640B340C0515A5E26AAC7B6E95D102FD65314440281E6A1D885
:20296000C8FBD3E7E6CDE121D60737C3870DD5F4ED145A4505E9E3A9F8A3EFFCD9026F67A0
:202980008A4C2A8D4239FAFF81F6718722619D6D0C38E5FD44EABEA4A9CFDE4B604BBBF687
:2029A00070BCBFBEC67E9B28FA27A1EA8530EFD4051D880439D0D4D90C9B00EB32721D4448
:2029C00082EA0003644E4B4033442B440F9D02EB73530D4483EA0201604E41403144294434
:2029E000029D03EB3141054481EA03005C4E50403044284401EB702500985A4E024465EAB1
:202A00000300484030441044079A05EBB060134460EA0102544E6A4032441A440E9B00EB6A
:202A2000B2520B4462EA0501504E414031441944059B02EB71411D4461EA00034C4E5340E5
:202A400033442B4401EBF3250C9B4A4E034465EA020048403044184405EBB0660398464B2B
:202A6000024466EA010068401844104406EBB0530A98014463EA0500404A70401044084460
:202A8000019903EB70404A1960EA06013C4D594029441144089A00EBF121951961EA0302C9
:202AA000384E424032442A440F9D01EBB2621D4462EA0003344E4B4033442B44069D02EB4B
:202AC000B353054463EA0100304E50403044284403EB70450D982E4E014465EA0200584079
:202AE00030440844049905EBF0200A4460EA0301284E6940314411440B9A00EBB1611344FB
:202B000061EA0502244E424032441A4401EBB253029A224E154463EA00024A4032442A4488
:202B2000099D03EB7242054462EA01001C4E584030442844256802EBF02029442160616894
:202B400008446060A0681044A060E0681844E06040B0BDE8F0810000E599DBE6F87CA21FAF
:202B60006556ACC4442229F497FF2A43A72394AB39A093FCC3595B6592CC0C8F7DF4EFFFFF
:202B8000D15D84854F7EA86FE0E62CFE144301A3A111084E827E53F735F23ABDBBD2D72A31
:202BA00091D386EB2DE9F047054616462A680F46C2F3C50102EBC60200202A60B2EBC60F19
:202BC0006A68C1F1400401D2521C6A6002EB56726A60A64218D36818224639461830FDF72D
:202BE00020FB05F1080005F118018146FFF77CFC204604E039184846FFF776FC404600F170
:202C00004008B045F6D90021321A3B186818BDE8F04719461830FDF704BB0000094810B51C
:202C2000074901600421416040F6FF718160FEF737FA002803D0BDE81040FDF72DBE10BDD4
:202C40000030004058000020104810B50E4901604FF482714160002102228160C0E90312FC
:202C600001224261520282613822C0E90721416281620721C162FEF7C7FD002803D0BDE802
:202C80001040FDF709BE10BD003C0040AC2600200C4810B50A4901604FF4E131416000210A
:202CA00081600C22C160C0E904128161C161FFF7A9F8002803D0BDE81040FDF7EDBD10BD2F
:202CC0000010014064010020FEE730B5044687B00D46012080F3108800F022F82046FDF7F0
:202CE000E9FE04460020009002942846FDF7E2FE001B401C03900220049005A96846FDF70B
:202D000075FF38B1FDF7BEFF002080F31088012007B030BDFDF7B6FF002080F31088F7E703
:202D200010B5FDF7F7FF0249F320086010BD00000C3C02402DE9F05F904600268B4605464A
:202D40003746044600EB080A35E000BFAAEB0400012815D0022819D003281ED0601B1BF87A
:202D600000205844D0F8010042EA002081460246A91900230220FDF78FFFA8B101271CE06D
:202D8000611B1BF8010060F0FF00EFE7611B01EB0B000088A0F58030E8E7611B01EB0B00FC
:202DA000006840F07F40E1E7A959494501D0022703E0241D361D4645C8D33846BDE8F09F1B
:202DC0007047000038B504461248134B0068B0FBF3F04FF47A73584300906068B0F5827F8E
:202DE0000DD10B46009200228021204600F03AF870B1606D40F020006065032038BD009814
:202E000030B1401E009020688068C0430006F6D5002038BD1000002000366E010EB50123CE
:202E20008DF808104FF47A71009101AA02A9FEF767FD9DF804000EBD10B50268136823F066
:202E400040031360026813684FF6C77423401360026813680B4313600068016841F0400198
:202E6000016010BD2DE9F0411D4617460E460446DDF8188008E0681C06D0FEF70BF9A0EB4C
:202E80000800A8420BD255B12068806836EA000030D00020B842EED10020BDE8F081206836
:202EA000416821F0E00141606068B0F5827F0BD1A068B0F5004F02D0B0F5806F04D12068CD
:202EC000016821F040010160A06AB0F5005F09D12068016821F4005101602068016841F410
:202EE00000510160012084F85100002084F850000320D2E70120CDE730B5002307E0C45C86
:202F0000CD5CAC4201D0002030BD5B1C9BB29342F5D3012030BD10B5002303E0CC5CC45442
:202F20005B1C9BB29342F9D310BD000010B592B030216846FDF78EF914210CA8FDF78AF97E
:202F400014480024016841F080510160006800F0805011901048016841F4804101600068DC
:202F6000069400F4804011900220009001200390102004906846FEF799FA0F20CDE90C040D
:202F80000E940F9400210CA81094FEF783F912B010BD000040380240007000400548016853
:202FA00041F47001016003494FF00060803908607047000088ED00E00148FEF7C2BD000035
:202FC0004C06002070470000F0B50268254C264D264E274F274B4FF0804CA04209D060450E
:202FE00007D0A84205D0B04203D0B84201D0984204D122F0700E4A6842EA0E02A0421BD0B1
:20300000604519D0A84217D0B04215D0B84213D0984211D0184DA8420ED0184DA8420BD08B
:20302000174DA84208D0174DA84205D0164DA84202D0164DA84203D122F44075CA682A439D
:203040004D6922F080022A4302608A68C2620A688262A04201D0984201D109690163012194
:203060004161F0BD000001400004004000080040000C00400004014000400140004401409D
:203080000048014000180040001C0040002000400A4601464FF47A730148FEF79DBF000032
:2030A00064010020704700000148FEF721BE00008C05002010B5806B0021C185C184FEF7B5
:2030C00016FE10BD0168CA6822F49072CA6001684A6922F001024A61202180F83A1070479C
:2030E00010B590F83A10222901D0022010BD8168B1F5805F11D00169002901681FD0496843
:2031000001F07F03816A4A1C82620B70C18D491E0904090CC18518D02BE00269816A002AFC
:203120000268526805D0D2B20A80816A491C8162ECE7C2F308020A80816A891CF7E74A6819
:20314000816A4B1C83620A70E0E70168CA6822F02002CA600168CA6822F48072CA600168C8
:203160004A6922F001024A61202180F83A10FEF7FFFE002010BD00002DE9F0410446006801
:203180000169E26821F44051114301612169A068E26908436169114308432168CA6849F298
:2031A0000C639A430243CA6020684169A26921F4407111434161E069192764253226B0F54C
:2031C000004F354A354920684FF0000806D0884201D0904236D1FEF727F935E0884201D0C5
:2031E000904202D1FEF720F901E0FEF70DF961684A18A0FB070148EB0803FCF7E1FF01461A
:20320000B0FBF5F00201B1FBF5F06FF01803584301EB800006EBC000B0FBF5F000F0F800E0
:2032200002EB4002B1FBF5F0584301EB800006EBC000B0FBF5F000F00700216810448860CA
:20324000BDE8F081FEF7E0F861688B0F8A00A0FB0701FCF7B5FF0146B0FBF5F06FF0180204
:20326000504301EB800006EB0010B0FBF5F000F0F002B1FBF5F002EB0012B1FBF5F06FF05C
:203280001803584301EB800006EB0010B0FBF5F000F00F00D1E7000000140140001001401E
:2032A00090F83910212901D0022070478168B1F5805F016A0BD04A1C02620268097851602F
:2032C000C18C491E0904090CC1840ED017E009880268C1F30801516001690029016A02D0C5
:2032E000491C0162ECE7891CFBE70168CA6822F08002CA600068C16841F04001C16000200F
:2033000070472DE9F041984617460E460446069D1DE0681C1BD02DB1FDF7BCFEA0EB0800A8
:20332000A84214D92068C16821F4D071C1602068416921F001014161202084F8390084F836
:203340003A00002084F838000320BDE8F0812068006836EA000004D00020B842D9D000205F
:20336000F3E70120F9E700000148FEF7C1BC0000640100200148FEF7BBBC0000CC0500208C
:203380000148FEF7B5BC00000C0600202DE9F04F93B000270D970E970F97109703970497C2
:2033A0000597172207A94FF400600697FEF76CFF44A000F017FC07A800F028FC079808ACEB
:2033C00000BA20F0FF059DF81F00054394E80F000DAC84E80F00681C34D03EA000F002FC10
:2033E00003AA29460220FDF7B7F9002403AE3EA0315D00F0F7FB641CA4B2102CF7D31022BA
:2034000003A90DA8FFF778FD002820D038A000F0E9FB0120FDF722FAC5F30F36280501D0F0
:20342000761CB6B2C5F30B02314638A000F0DAFB00244FF474384FF48059DFF8E4A04FF0F0
:20344000320B27E0294637A000F0CCFB02E03EA000F0C8FB022013B0BDE8F08F4748FDF72C
:2034600048FE08EB04304A464549FEF70DFF0AEB04304A464249FEF74BFFB4FBFBF10BFB9C
:20348000114010B93FA000F0ADFB3FA000F0AAFB641CA4B2B442E1D303970497059703AA29
:2034A000294601200697FDF757F9102203A90DA8FFF722FD08B10020CDE734A000F092FB15
:2034C0000120C8E70D0A20B8FCD0C2C7F8D0C5CFA2A1FD000D0A20B8FCD0C2C7F8BCC6CBB3
:2034E000E36D64353A00000025303278000000000D0A20D5FDD4DAB2C1B3FDD5FBB8F64111
:203500005050B3CCD0F2C7F8000000000D0A20D0B4C8EBB0FCCAFD25642E256400000000EA
:20352000000002080D0A204552524F523AB8FCD0C2C7F8CAFDBEDDB3A4B6C8B2BBB6D43A19
:2035400030782530387800000D0A204552524F523AB8FCD0C2D0C5CFA2C7F8C0EF6D643503
:20356000BACD464C415348B6C1B3F6BCC6CBE3B5C46D6435B2BBCFE0CDAC0000580000207A
:20358000AC1600200D0A00003E0000000D0A204552524F523AB8FCD0C2BAF3B5C46D643587
:2035A000BACDB8FCD0C2D0C5CFA2C7F8C0EF6D6435B2BBCDAC000000FEE7000070B50D4681
:2035C0000646002406E000BF06EB043000F006F8641CE4B2AC42F7D370BD000070B5040B94
:2035E000240300F093F900F03BF9154D002201212846FDF74AFD20211248FFF70FFC1248BF
:203600000088A0F56F41183903D1210E0D48FFF705FCC4F307410B48FFF700FCC4F307211A
:203620000848FFF7FBFBE1B20648FFF7F7FB012211462846FDF729FDBDE8704000F010B975
:20364000000C0240AC26002014000020F0B5304887B00026016841F00801016000680124EB
:20366000022700F0080000942A4DCDE902470590694601942846FDF725FCCDE90074CDE9E3
:20368000024669462846FDF71DFC0420CDE90004CDE9024669462846FDF714FC0122022175
:2036A0002846FDF7F2FC012204212846FDF7EDFC012211462846FDF7E8FCFFF7C5FA002191
:2036C0001548FFF7B9FB00F077F814490880A0F56F41133918D0A0F56F41183912D103208A
:2036E00000F098F8C0070DD1002201212846FDF7CCFCB7210848FFF791FB012211462846A5
:20370000FDF7C3FC07B0F0BD05A000F06BFAF9E730380240000C0240AC260020140000209A
:203720000D0A2057323551585820496E69742D3E73756363657373002DE9F0411B4F15466F
:203740000C460646002201213846FDF79EFC03211748FFF763FB17480088A0F56F41183927
:2037600003D1210E1248FFF759FBC4F307411048FFF754FBC4F307210D48FFF74FFBE1B2FF
:203780000B48FFF74BFB002406E0FF210848FFF745FB3055641CA4B2AC42F6D33846BDE8B5
:2037A000F04101221146FDF770BC0000000C0240AC2600201400002070B5144D00242246B8
:2037C00001212846FDF761FC90211148FFF726FB00210F48FFF722FB00210D48FFF71EFBD7
:2037E00000210B48FFF71AFBFF210948FFF716FB44EA0024FF210648FFF710FB04430122A7
:2038000011462846FDF741FC204670BD000C0240AC26002070B5012803D0022803D0032896
:2038200003D0052402E0352400E015240A4D002201212846FDF729FC21460848FFF7EEFA81
:20384000FF210648FFF7EAFA0446012211462846FDF71BFC204670BD000C0240AC26002010
:2038600010B50120FFF7D6FFC007FAD110BD00002DE9F05FC1F30B06DFF88C800F0BC6F556
:203880008054894682461546A24200D8144639038B464FF480524046FFF74EFF002006E05B
:2038A000321818F80210FF2903D1401C80B2A042F6D3A04222D23846FFF790FE002006E089
:2038C0001AF800208319401C08F8032080B2A042F6D359464FF480524FEA080000F02CF8B5
:2038E000A5420FD0281BA244A144002685B24FF480547F1CA542CAD82C46C8E72246494644
:203900005046EBE7BDE8F09FAC06002010B5084C002201212046FDF7B8FB06210548FFF765
:203920007DFA20460122BDE810401146FDF7ADBB000C0240AC2600202DE9F0410746C8B291
:20394000C0F580740E461546A24200D814464FF4807822463146384600F00EF8A54208D0AC
:20396000281B2744264485B24446A542F1D82C46EFE7BDE8F08100002DE9F04115460C466C
:203980000646FFF7C3FF1A4F002201213846FDF77CFB02211748FFF741FA17480088A0F55E
:2039A0006F41183903D1210E1248FFF737FAC4F307411048FFF732FAC4F307210D48FFF7DF
:2039C0002DFAE1B20B48FFF729FA002405E0315D0848FFF723FA641CA4B2AC42F7D3012216
:2039E00011463846FDF751FBBDE8F041FFF738BF000C0240AC2600201400002037B5144635
:203A00000846064B6A46214600F050F904466946002000F0E2FC20463EBD0000DB43000849
:203A20000907090E002804DB00F1E02080F80014704700F00F0000F1E02080F8141D7047D4
:203A400002E008C8121F08C1002AFAD170477047002001E001C1121F002AFBD170470000B6
:203A60002DE9FF5F82B00021DDE90430020DDDF840B0034318D044F61050A2F2FF3242439F
:203A80001514119801281FD0A5EB0B00401C5FEA000A4FF000064E4FDFF83891B0465046E4
:203AA00015D5CAF1000413E0119801244AA3012801D16FEA0B010298119AC0E90031C0E987
:203AC000024206B0BDE8F09FCBF10000DFE704460021404A491842EB0450CDE9001012E0A7
:203AE000E00707D032463B4640464946FCF7C4FB8046894632463B4610461946FCF7BCFB5B
:203B000006460F466410002CEAD1DDE90401DDE90023BAF1000F06DAFCF7AEFB42464B46A6
:203B2000FCF7AAFB05E0FCF719FC42464B46FCF715FC04460E460022284BFCF7CFFD03D816
:203B40004FF0FF30014607E00022254B20463146FCF705FDFCF7AAFD102409E0002C0ADB9D
:203B60000A220023FCF72CFB039B30321A55641E50EA0102F2D1641C039AC4F111031444AD
:203B8000119A012A03D0012208430DD10AE0084304D000204FF0110B119072E7A3EB0B0514
:203BA0006D1E0DE05B4504DD4FF0000205F1010504E003DA4FF00002A5F10105002AECD04B
:203BC00002981199C0E90231C0E9004579E70000000014400000F03F300000000000F04391
:203BE0000000E03F0FB4084810B503AA0299FFF705FF0548FCF739FB81B20348FFF748FA62
:203C000010BC5DF814FB0000A401002070B50546006801BA0EA0FFF7E5FF11A0FFF7E2FF0C
:203C200000242819017911A0FFF7DCFF641CE4B2102CF6D3297D0FA0FFF7D4FF697D11A053
:203C4000FFF7D0FFA97DBDE8704013A0FFF7CABF0D0A20CEC4BCFEB3A4B6C83A25750000C6
:203C60000D0A20CEC4BCFE4D44353A0025303278000000000D0A20B8FCD0C2B1EACAB63AF0
:203C8000257500000D0A20B8FCD0C2CAA7B0DCB1EACAB63A257500000D0A20B8B4CEBBB441
:203CA000CECAFDA3BA25750D0A0000002DE9FF4F95B09B468946064600250FE2252877D111
:203CC00000242746F84A0121059400E0044316F8013F203B01FA03F01042F7D130782A2884
:203CE00011D06FF02F033078A0F13002092A16D8059A44F0020402EB820203EB42021044F6
:203D0000761C0590EFE759F8042B0592002A03DA504244F40054059044F00204761C307861
:203D20002E2816D116F8010F44F004042A280DD06FF02F023078A0F13003092B09D807EBBA
:203D4000870302EB4303C718761CF3E759F8047B761C30786C280FD006DC4C2817D0682811
:203D60000DD06A2814D104E0742810D07A280FD10DE044F400140AE044F4801401E044F405
:203D800040147278824202D104F58014761C761C307866280BD013DC582877D009DC0028C9
:203DA00075D04528F6D04628F4D047281AD19DE118E0632835D0642879D0652812D195E13E
:203DC000702873D008DC6728F1D069286FD06E280DD06F2806D1B5E073282CD0752875D015
:203DE000782874D05A46179990476D1C75E1C4F30250022809D003280DD0D9F800100428B8
:203E00000DD00D6009F1040967E1D9F80010EA17C1E90052F6E7D9F800100D80F2E70D708A
:203E2000F0E719F8041B8DF8001000208DF80100EA46012003E059F804AB4FF0FF30610736
:203E40004FF0000102D40DE008F101018846B9420FDA8045F8DB1AF808100029F4D108E01A
:203E600008F1010188468142FADB1AF808100029F6D105985B46A0EB080721463846179A59
:203E800000F094FA284400EB080507E04DE029E10DE01AF8010B5A4617999047B8F101083E
:203EA000F7D25B4621463846179A13E142E00A220092C4F302524FF0000A022A08D059F885
:203EC00004CB032A4FEAEC710AD00DE029E02AE009F1070121F00702F2E802C1914609E0FD
:203EE0000FFA8CFC4FEAEC71042A03D14FFA8CFC4FEAEC71002907DA0A460021DCF1000CDE
:203F000061EB02012D2202E0220504D52B228DF80420012203E0E20701D02022F7E7904675
:203F200059E00A2102E010220DE010214FF0000A00910BE010224FF0000A44F00404082740
:203F4000009203E008224FF0000A0092C4F30252022A05D059F804CB0021032A08D009E0AC
:203F600009F1070121F00702F2E802C1914605E01FFA8CFC042A01D10CF0FF0C4FF00008DD
:203F8000220728D5702806D0009B83F0100353EA0A0305D00EE040228DF80420012208E049
:203FA0005CEA010206D030228DF804208DF8050002229046009B83F0080353EA0A030AD125
:203FC0005CEA010201D1620705D530228DF804204FF001087F1E582804D034A003900EA832
:203FE00002900DE036A0F9E753466046009AFCF7E7F884460398825C0298401E02900270A2
:204000005CEA0100F0D1029806A9081A00F1200A600702D524F4803400E00127574502DD85
:20402000A7EB0A0000E0002000EB0A01009005984144401A0590E00306D45B462146179AD7
:20404000059800F0B3F90544002706E001A85A46C05D179990476D1C7F1C4745F6DBE00380
:204060000CD55B462146179A059800F09FF9054404E030205A46179990476D1C0099481E55
:2040800000900029F5DC08E0029802995A460078491C0291179990476D1CBAF10001AAF112
:2040A000010AF1DC65E100000928010030313233343536373839616263646566000000004E
:2040C000303132333435363738394142434445460000000000F058F90544761C3078002852
:2040E0007FF4ECAD19B02846BDE8F08F620700D4062709F1070222F0070CFCE80223E14697
:2041000003F000485FEA080C02D00FF2702C0DE05FEA045C02D50FF2682C07E05FEAC47C26
:2041200002D00FF2602C01E0AFF2700C4FF0FF3823F00043CDF850C065280CD006DC4528C9
:2041400009D046281DD047283DD13DE0662818D067287ED138E00021112F01DB112000E0D7
:20416000781CCDE9000106A90EA8FFF779FCDDE90F010E9A03910021009207F1010A0491C7
:204180004DE04FF000400097CDE9011006A90EA8FFF766FCDDE90F0203920E9B1199002277
:2041A000DDF80CA00093049211B9791C00EB010AB7EB0A0004D4C0F1FF3007F1010A049005
:2041C000AAEB0700019044E0012F00DA01270021112F01DD112000E03846CDE9000106A928
:2041E0000EA8FFF73DFCDDE90F010E9A0391002104910092BA4621070CD40399514500DA6C
:204200008A46BAF1010F05DD009AAAF10101515C302908D0B84202DA10F1040F06DA012130
:20422000CDE9011015E0AAF10101E9E7002805DC049901440491AAEB000102E0411C51456A
:2042400000DD8A460499401A401C01904FF000400290200704D40198504501DBCDF804806A
:2042600000208DF84F0002980DF14F07B0F1004F25D02B200E9002984FF0020800280CDA9D
:20428000404202902D200E9007E00A210298FCF7D4F83031029007F8011DB8F10001A8F161
:2042A0000108F2DC02980028EFD1791E0E980870307800F0200040F0450007F8020D12A8FB
:2042C000C01B00F107081498007800B1012000EB0A01019801EBE07105984144401A401E67
:2042E0000590E00306D45B462146179A059800F05DF805441498007818B15A461799904774
:204300006D1CE00324D55B462146179A059800F04DF805441CE00498002807DBDDE90301F8
:20432000884203DD0098405C179901E0179930205A469047049805F10105401C0490019876
:20434000401E019004D12E205A46179990476D1CBAF10001AAF1010ADDDC05E017F8010B90
:204360005A46179990476D1CB8F10001A8F10108F4DC5B462146179A0598ABE62D0000005D
:204380002B000000200000002DE9F041044600251E461746880404D405E039462020B0475C
:2043A0006D1C641EF9D52846BDE8F0812DE9F041044600251E469046C80301D5302700E0D8
:2043C0002027880404D505E041463846B0476D1C641EF9D52846BDE8F0810A68531C0B60A7
:2043E0001070704770B51446054620440E46B0F1016F01D9012070BD74B1012080F310887A
:20440000FEF78EFC224631462846FEF793FCFCF739FC002080F31088002070BD86B0142141
:204420006846FBF717FFFCF773FEFEF77FFD1C480024016841F002010160006800F0020011
:204440000590FEF7EBFB4FF4007501200095CDE901040394134C69462046FCF733FD002273
:2044600029462046FCF711FEFEF712FCFDF752FFFFF7ECF80CA0FFF7B5FBFDF75BFE154E41
:204480003046FDF707FE6420FCF79EFB29462046FCF7F4FD10A0FFF7A5FB00F023F8EFE7BD
:2044A00030380240000402400D0A2A2A2A2A2A2A2A2A2A2A2A2A2A2A2A2A2A2A2A2A426FFC
:2044C0006F742A2A2A2A2A2A2A2A2A2A2A2A2A2A2A2A0000000002080D0A41505020457280
:2044E000720000002DE9F04198B0002013901490159012900E900F9010901190172208A9A5
:204500004FF48060FDF7BBFE3DA0FFF76BFB08A8FFF77CFB09AC94E80F0012AC84E80F00FC
:20452000089800BA20F0FF049DF823000443601C10D00822560202A93046FDF79BFE0299E8
:2045400035480140B1F1005F07D00299014033A0FFF748FB18B0BDE8F08139A0FFF742FBF3
:204560000EAA21460320FCF7F7F800250EAF3BA0795DFFF737FB6D1CADB2102DF7D310223B
:204580000EA912A8FEF7B8FC0128E3D135A0FFF729FB3EA0FFF726FB0120FCF75FF9C4F31D
:2045A0000F35C4F30B02200501D06D1CADB229463DA0FFF717FB0024404F4FF032081BE09A
:2045C0003F48FCF796FD06EB043032463D49FDF751FE07EB043032463A49FDF799FEB4FB0D
:2045E000F8F108FB114010B937A0FFF7FBFA37A0FFF7F8FA641CA4B2AC42E1D3AAE700002B
:204600000D0A20B1B8B7DDC7F8C4DAB5C4CAFDBEDDD0C5CFA2A1FD000000F02F0D0A20B183
:20462000B8B7DDC7F8C4DAB2BBCAC7D5FDC8B7B5C4B3CCD0F23A30782530387800000000E1
:204640000D0A20BCC6CBE3B1B8B7DDC7F8C4DAB5C4B3CCD0F24D4435A3BA000025303278BD
:20466000000000000D0A20637263D5FDC8B7B8B4D6C6B1B8B7DDC7F8C4DAB3CCD0F2B5BD65
:20468000B3CCD0F2D4CBD0D0C7F800000D0A20D5FDD4DAB2C1B3FDD5FBB8F6415050B3CC23
:2046A000D0F2C7F8000000000D0A20D0B4C8EBB0FCCAFD25642E256400000000000002084E
:2046C00058000020AC1600200D0A00003E0000000000000000000000010203040607080903
:2046E0000000000001020304084700080000002058000000403A0008604700085800002038
:20470000B02A0000503A0008F00000000100000010000000000000000024F40013EF800092
:20472000000000000000000000000000000000000000000000000000000000000000000079
:20474000000000000000000000000000000000000000000000000000000000000000000059
:020000040802F0
:20000000901201206D020208B579020891020208F5760208471302085DB5020800000000DA
:200020000000000000000000000000009D010208891E020800000000F9010208DD9C0208E0
:20004000870202088702020887020208870202088702020887020208870202088702020808
:20006000870202088702020821200208870202088702020887020208870202088702020830
:200080008702020887020208870202088702020887020208870202088702020887020208C8
:2000A00087020208870202088702020887020208C19D0208CD9D02088702020887020208F2
:2000C0008702020887020208870202088702020887020208F1A60208FDA6020809A7020839
:2000E0001920020887020208870202088702020887020208870202088702020887020208B8
:200100008702020887020208870202088702020811A402081DA402088702020887020208E3
:200120008702020887020208870202088702020887020208DD1E02080D2002088702020811
:200140008702020887020208870202088702020887020208870202088702020815A70208D4
:2001600087020208870202088702020887020208870202088702020887020208000000007A
:200180008702020887020208DFF80CD000F042FC00480047595E0308901201202C4B19684C
:2001A0000868B0E8F04F80F30988BFF36F8F4FF0000080F31188704700000000084800688A
:2001C000006880F308884FF0000080F3148862B661B6BFF34F8FBFF36F8F00DF00BF00BF9A
:2001E00008ED00E0DFF80C00016841F470010160704700BF88ED00E0EFF30980BFF36F8FF1
:20020000134B1A681EF0100F08BF20ED108A20E9F04F106009B44FF0500080F31188BFF3A1
:200220004F8FBFF36F8F22F0C9F84FF0000080F3118809BC19680868B0E8F04F1EF0100F58
:2002400008BFB0EC108A80F30988BFF36F8F704728000010EFF3058070470000EFF3088076
:200260007047EFF309807047684670470648804706480047FEE7FEE7FEE7FEE7FEE7FEE738
:20028000FEE7FEE7FEE7FEE7A59D020889010208704669460CF0DCFFFFF7FEFF2DE9F05F56
:2002A0000546002092469B4688460646814640241BE0284641464746224600F0DCFA534691
:2002C0005A46C01A914110D311461846224600F0C3FA2D1A67EB01084F4622460120002144
:2002E00000F0BAFA17EB00094E41201EA4F10104DFDC484631462A464346BDE8F09F0000FB
:2003000000487047049204080649074A0868504343F23902104408604008704701490860BC
:2003200070470000E40100106D4EC64110B5431A934209D28318881803E010F8011D03F83E
:20034000011D521EF9D210BD40EA01039B0703D009E008C9121F08C0042AFAD203E011F83B
:20036000013B00F8013B521EF9D210BDD2B201E000F8012B491EFBD270470022F6E710B5CD
:2003800013460A4604461946FFF7F0FF204610BD30B505462A460B4612F8010B13F8014B95
:2003A00008B1A042F8D01CB1002802D06D1CF1E7284630BD10B5044604E00B7800F8013BAD
:2003C00003B1491C521EF8D2204610BDCAB2401E10F8011F8A4202D00029F9D1002070472D
:2003E000421C10F8011B0029FBD1801A704710B5002200E0521C835C8C5CA34201D1002B57
:20040000F8D1D8B2E1B2401A10BD30B504460020034600E05B1C934203D2E05CCD5C401B76
:20042000F8D030BD034611F8012B00F8012B002AF9D11846704730B505460020034600E0E3
:200440005B1C934205D2EC5CC85C201A01D1002CF6D130BD70B506460CF012F804680546F3
:200460000A220021304600F028FA2C6070BD2DE9FE4F804681EA0300C00F0C46009021F095
:20048000004123F00045B8EB0200A94105D24046214690461C460B46024623F000401043F9
:2004A00047D0270DC7F30A00C3F30A510290401A019040286BDAC3F3130040F4801B0098C2
:2004C000924620B10023D2EB030A63EB0B0B01985946C0F14002504600F0BEF906460D461B
:2004E00050465946019A00F0D6F910EB08006141002487EA115284EAE7731A4340D0009A01
:2005000062B3019A012A4FEA075215DC001B61EB02014FF0004202EA0752CDE90042001C39
:2005200041F5801132462B4600F00EFA03B0BDE8F08F40462146F9E7001B61EB0201001CE9
:2005400041F5801300185B412018A2F5001747EB030140EAD570B6196D4111E06D084FEA77
:20056000360645EAC0754FEA0752001B61EB0201001C41F5801149084FEA30000019514197
:2005800032462B4603B0BDE8F04F00F0CEB90098012240000023D0EB020263EBE07300984E
:2005A00021464FEAE074B8EB000061EB0401E9E783F000435BE781F0004158E72DE9FE4F37
:2005C00081EA030404F0004421F0004100944FF0000B23F0004350EA01045ED052EA03043B
:2005E0005BD0C3F30A54C1F30A552C44A4F2F3340194A0FB0254C1F3130141F48011C3F3B2
:20060000130343F4801301FB024400FB034E840A970A44EA815447EA8357A4FB076802958A
:200620008D0A05FB07854FEA932C04FB0C542705029D4FEA065847EA1637B5EB08056EEB5A
:20064000070C870E920E47EA811742EA8312A7FB0201B6EB0B0164EB00042B0D43EA0C337F
:200660005E1844EB1C50DA465146E7FB0201C5F313044FEA0B3343EA14534FEA0432019CE7
:2006800043EA0603A4F10C040294009CCDE900B400F05AF903B0BDE8F08F00200146F9E782
:2006A0002DE9F04D81EA030404F0004B21F0004514464FF0000A23F0004150EA050220D0B8
:2006C00054EA01021DD0C5F30A570246C5F31303C1F31300C1F30A5640F4801543F480134F
:2006E000A7EB0608101BD64608F2FD3873EB050002D308F1010801E092185B41B8F1000FCB
:2007000003DA00200146BDE8F08D00204FF48011064684460EE0171B73EB050705D3121BDA
:2007200063EB050306434CEA010C49084FEA300092185B4150EA0107EDD152EA030012D0B6
:2007400082EA040083EA0501084305D0101BAB4106D20122002306E000224FF0004302E0F5
:200760006FF0010253101AEB06004CEB085110EB0A0041EB0B01BDE8F04D00F0D6B80EB5B9
:2007800040F2334102910021CDE900110A460B4600F0DAF803B000BD70B5C1F30A5201F03F
:2007A00000450024C1F3130140F2FF3341F480119A4201DA002070BD40F233439A42A2F2C2
:2007C000334203DC524200F056F800E090402C43F1D0404270BD00F0004230F000400AD0F8
:2007E000C10D01F56071C0F3160042EA0151C20840071143704700200146704730B5041EDC
:2008000071F1000404DB4FF00044404264EB0101141E73F1000405DB1C464FF0004352424B
:2008200063EB0403994208BF904230BD30B50B46014600202022012409E021FA02F59D4224
:2008400005D303FA02F5491B04FA02F52844151EA2F10102F1DC30BD202A04DB203A00FA07
:2008600002F1002070479140C2F1200320FA03F3194390407047202A04DB203A21FA02F084
:200880000021704721FA02F3D040C2F120029140084319467047202A06DBCB17203A41FAB7
:2008A00002F043EAE07306E041FA02F3D040C2F1200291400843194670472DE9F047914675
:2008C0000F4680460446002614F8015B2DB1FFF717FD0068405DC007F6D12B2D02D02D2D26
:2008E00018D0641E4A463946204600F0A5F827B13968A14201D1C7F8008071054FF0020464
:200900000BD54042002803DD0BF0BAFD0460A007BDE8F08746F48066E4E70028F8DA0BF0B4
:20092000AFFD04606FF00040F2E710B5141E73F1000408DA401C41F1000192185B411A43BC
:2009400001D120F0010010BD2DE9F04D92469B4611B1B1FA81F202E0B0FA80F220329046D5
:20096000FFF77AFF04460F4640EA0A0041EA0B0153465A46084313D0114653EA010019D019
:20098000C8F140025046FFF776FF05460E46504659464246FFF760FF084305D0012004E085
:2009A00020463946BDE8F08D0020054346EAE0762C4337430A986305E40AA0EB08000022AC
:2009C000FD0A44EA47540A3002D500200146E9E7010510196941DDE9084500196941BDE8AB
:2009E000F04DA2E7C1F30A52C1F3130140F2FF3341F480119A4202DA00200146704740F227
:200A000033439A42A2F2334202DC5242FFF733BFFFF722BF064C074D06E0E06840F0010342
:200A200094E8070098471034AC42F6D3FFF7B0FBF09E0408309F04082DE9F05F824600789E
:200A4000002715468B460AF10104B946302801D09DB113E014F8010B0127782803D05828A7
:200A600001D045B10AE00DB1102D07D10027102514F8010B02E0082500E00A250026B04644
:200A80000EE005FB080005FB06F1012701EB10461FFA80F8B6F5803F00D3B94614F8010B1A
:200AA000294600F018F80028EBDABBF1000F05D00FB1641E00E05446CBF80040B9F1000FD2
:200AC00006D00BF0DDFC02210160C81EBDE8F09F48EA0640FAE73A2800D2303820F02002A7
:200AE000412A01D3A2F13700884201D34FF0FF30704770B58C1810F8015B15F0070301D11C
:200B000010F8013B2A1106D110F8012B03E010F8016B01F8016B5B1EF9D12B0705D400231E
:200B2000521E0DD401F8013BFAE710F8013BCB1A921C03E013F8015B01F8015B521EF9D59A
:200B4000A142D8D3002070BD464910B54A6822F440324A604A6843681A434A6001684A6803
:200B600022F480724A6001684A68036942EA03224A6001684A6822F040724A6001684A689D
:200B800083681A434A6001688A6822F400628A6001688A68C3681A438A60816A6FF07062BD
:200BA000D14201688A6822F070628A6001688A680CD0836A1A438A6001688A6822F040528F
:200BC0008A6001688A68C36A1A4301E022F040528A6001688A6822F002028A6001688A6821
:200BE000037E42EA43028A6090F82010002901684A680FD042F400624A6001684A6822F4CB
:200C000060424A6001684A68174C436A04EB43331A4301E022F400624A600168CA6A22F4E5
:200C20007002CA620168CA6A838B104C04EB03531A43CA6201688A6822F400728A6001680B
:200C40008A6890F8303042EA43228A6001688A6822F480628A6001688A68406942EA802032
:200C6000886010BD0023014000E0FFFF0000F0FF1CB5482019F072FA04000CD0A11C002023
:200C800000F042F8218CA01C4ABA1A2A08D049BA152907D009E0BDE81C400EA015F0CEBD61
:200CA000002101E04FF48071C1830120207060704820CDE900041148AE23026810480188A2
:200CC0001048007807F036FA2046BDE81C4021F097B900000D0A5561727441707020616997
:200CE000725F7377697463685F64617461206D616C6C6F63206572726F720000AC000020EA
:200D0000AA0000205C01001070B50E4D0E4604464FF0FF31E86A21F0A7FF14B1012C04D040
:200D200008E046220849304602E0462231460648FFF7FCFAE86ABDE8704000231A46194618
:200D400021F0B2BC10010010880900101CB507490720CDE900010648AA23026805480188F8
:200D60000548007807F0E6F91CBD0000F7000020AC000020AA0000205C01001010B50E4CC6
:200D80008AB003202070042060700020A0706946012001F0C7FE0520E0709DF81000207111
:200DA00005A9022001F0BEFE062060719DF82400A0710AB010BD0000F70000201CB5062060
:200DC00019F0CCF9040026D00146002000F040F82088AC23C0F3072141EA00202080608897
:200DE000C0F3072141EA00206080A088C0F3072141EA0020A0800620CDE9000408480268E5
:200E0000084801880848007807F094F92046BDE81C4021F0F5B8BDE81C4004A015F00EBD13
:200E2000AC000020AA0000205C0100100D0A5561727441707020616E676C655F64617461BB
:200E4000206D616C6C6F63206572726F7200000070B5114E0C4605464FF0FF31F06A21F0B5
:200E600003FF06F1300215B1012D07D00CE010882080508860809088A08005E0208810804B
:200E800060885080A0889080F06ABDE8704000231A46194621F008BC1001001010B50023F3
:200EA0001A4604E0845C521C2344DBB2D2B28A42F8D3D843C0B210BD70B50025114E044644
:200EC000012802D0022C03D007E00022402101E000228021304603F062F9142000F0E4F844
:200EE000A02800D00125012C02D0022C03D007E00122402101E001228021304603F04FF973
:200F0000284670BD000C02402DE9F843DFF80C810646012802D0022E03D007E0002240217F
:200F200001E000228021404603F039F93C4C002555276570A570E770611C1D2000F0E4F971
:200F40005A206070A070E070611C1C2000F0DCF9642021F0EBF86570A570E770611C1D20F6
:200F600000F0D2F96570A570A020E070611C142000F0CAF96570A570E570611C1D2000F06F
:200F8000C3F92848056045608560C56105624562142000F089F8A0282BD08DF80050694616
:200FA000002000F0C7FB012E07D0022E13D06946012000F0BFFBBDE8F8839DF8000040F0E7
:200FC00001008DF8000018A015F038FC6946012000F0B0FB1EE09DF8000040F002008DF8E5
:200FE000000017A015F02AFC6946012000F0A2FB06E0012E0BD0022EDDD117A015F01EFC0E
:20100000012280214046BDE8F84303F0C8B819A015F014FC01224021F4E70000000C0240B8
:20102000980100103C0E00100D0AB5E7C1BFBCC6D2BB204552524F52A3A1A3A1A3A10000F5
:201040000D0AB5E7C1BFBCC6B6FE204552524F52A3A1A3A1A3A100000D0AB5E7C1BFBCC6FC
:20106000B6FE2053554343455353A3A1A3A1A3A1000000000D0AB5E7C1BFBCC6D2BB205302
:20108000554343455353A3A1A3A1A3A10000000010B508F0E5F80024641CE0B2FFF734FFC5
:2010A000E4B2022CF8D310BD2DE9F041074600263546822019F052F8044658202070677081
:2010C00008F080F9384608F07DF900BF08F074F961196D1CEDB28870042DF7D3052120466E
:2010E000FFF7DCFE6179814207D1A078E17846EA0040267940EA01200643204620F080FFA2
:201100003046BDE8F08100002DE9F047DFF8B8A10C462DED028B86B00546012802D0022D22
:2011200005D00BE00022694E4021504604E0674E00221C368021504603F031F81420FFF795
:20114000B3FFA02805D0012006B0BDEC028BBDE8F0870320FFF7A8FF4FF47A715C4F4843F3
:20116000B0FBF7F030610520FFF79EFF4FF47A714843B0FBF7F070830420FFF795FF4FF465
:201180007A71484343F61431B0FBF1F070610620FFF78AFFC0F307417F290AD9C243521C60
:2011A00062F307006FEA102262F30F20C94361F317404FF47A71484340F2A771B0FBF1F07E
:2011C000F0600820FFF770FF4249B1FBF0F030830720FFF769FF7168884201D3411A03E02E
:2011E0006FF07F42511A014401EB4102C2EBC111B268706002EBC10144F2AF10B1FBF0F255
:2012000033681A443260B1FBF0F200FB1210B060316900200A2901D2206000E0216071690D
:2012200041F28832914201D2606000E06160F168B1F57A7F01D2A06000E0A16030680A214B
:20124000B0FBF1F0E06096ED000A9FED238AF8EE400A80EE880A10EE100AFFF7BCFA94ED87
:20126000020A80468946F8EE400A80EE880A10EE100AFFF7B0FA94ED010A06460F46F8EED2
:20128000400A80EE880A10EE100AFFF7A4FA41EC100B02A853EC102B80E8C00320680090A9
:2012A00029460EA015F0CAFA012D02D0022D03D007E00122402101E001228021504602F0AE
:2012C0006EFF002040E70000000C02403C0E00104CA60C0000E1F50500007A440D0A562589
:2012E00064203D20252E3366562C41203D2025646D412C50203D20252E3366572C45203DA0
:2013000020252E3366A1E3007CB5A8228DF800208DF8010008788DF8020048788DF80300C8
:2013200088788DF80400002405216846FFF7B6FD8DF805006D46285D08F044F8641CE4B277
:20134000062CF8D37CBDFEE770B505464FF6FF7000234AF201040DE0EA5C50400022C60738
:2013600002D084EA500000E04008521CD2B2082AF5D35B1C8B42EFD370BD00002DE9F04F41
:201380009BB00024109411941294139457A00B940C940D940E9400681A904FF4703517229C
:2013A00069464FF4806004F027FD51A00BF03EF968460BF04FF901AE96E80F0010AE86E8C7
:2013C0000F000BAA2946012000F0DCF88DF8504003208DF85100C0208DF852008DF8534018
:2013E0000BAC94E80F0015AC84E80F0045A00BF01DF914A80BF02EF910220BA910A808F005
:201400001DFC4FF6FF7A38B104231AAA102110A808F02EFC504566D0032001F0CBF83DA097
:201420000BF004F93C2700263246394643A00BF0FDF8DFF81C9100244FF480584FF0320B22
:20144000444802F0E0FE09EB0431424608EB043004F0DCFCB4FBFBF10BFB114010B93EA0F3
:201460000BF0E4F83DA00BF0E1F8641CBC42E7D336B1324609EB073108EB043004F0C6FC44
:2014800037A00BF0D3F8280E8DF80000280C8DF80100280A8DF802000BAC8DF8035094E876
:2014A0000F0001AC84E80F004FF4806417226946204604F0B0FC17226946204604F09CFC06
:2014C00004231AAA10210BA808F0D2FB504504D017226946204604F09EFC25A00BF0A6F8D5
:2014E00068460BF0B7F81BB0BDE8F08FFFFFFFFF0D0A20D4ADB1B8B7DDC7F8D0C5CFA2A18E
:20150000FD0000000D0A20B3CCD0F2C7F8D0C5CFA2A1FD000D0ACCE1CABEA3BAB1B8B7DD4D
:20152000C7F84D4435B2BBD5FDC8B7D0E8D2AAD6D8D0C2B1B8B7DDB3CCD0F2000D0A20B1CE
:20154000B8B7DDC9C8C7F8CAFD25642E2564000000000208FC0500200D0A00003C0000006A
:201560000D0A20CAFDBEDDB8B4D6C6CDEAB3C9000D0A20B5B1C7B0B1B8B7DDC7F8D0C5CF63
:20158000A2A1FD002DE9F04FC1F30B0493460D4606460F0B97B0224639462DA00BF046F82D
:2015A000684605F0C1F94FF48020012E0DD0022E01D0032E49D1854247D800254FF4743899
:2015C0004FF480594FF0320A24E085423DD82A46244933E0022E02D0032E04D009E008EBC1
:2015E00005304A4602E04A4609EB05301E4904F008FC4A461C49684605F006FDB5FBFAF1F6
:201600000AFB115010B919A00BF010F818A00BF00DF86D1CBD42DDD39CB1022E02D0032E6F
:2016200004D009E0224608EB073002E0224609EB07300D4904F0E5FB0B492246684605F05D
:20164000E3FC5946684605F049F917B0BDE8F08F0D0A20BCC6CBE3CAFDC1BF25642E25644E
:2016600000000000000002081CF500200D0A00002A00000008B500208DF80000694600F0ED
:2016800059F80120FFF718FC38B19DF8000040F001008DF800000DA000E012A015F0CEF890
:2016A0000220FFF709FC38B19DF8000040F002008DF8000012A000E017A015F0BFF8694624
:2016C000012000F037F89DF8000008BD0D0AB5E7C1BFBCC6D2BB204552524F52A3A1A3A1FC
:2016E000A3A100000D0AB5E7C1BFBCC6D2BB2053554343455353A3A1A3A1A3A1000000005F
:201700000D0AB5E7C1BFBCC6B6FE204552524F52A3A1A3A1A3A100000D0AB5E7C1BFBCC635
:20172000B6FE2053554343455353A3A1A3A1A3A10000000070B50B4C0D4606464FF0FF3166
:20174000E06A21F091FA4EB128782070E06ABDE8704000231A46194620F0A6BF207828704E
:20176000F4E70000100100101CB527A015F066F8FF2224212C48FEF7F9FD0121002208461B
:2017800020F0F6FE294C206168B303220021012020F0EEFE6061002829D0002121F064FA5F
:2017A00003220021012020F0E3FEA061002822D003220021012020F0DBFEE06100281ED00F
:2017C00004F128010A20CDE9000100234FF4807217A1194821F03EFB6062012813D017A0CA
:2017E00015F02CF8FEE71EA00AF020FFFEE724A015F024F8FEE729A015F020F8FEE72DA0BD
:2018000015F01CF8FEE71CBD0D0A204372656174456E7669726F6E6D656E745F446174615D
:201820005461736B0D0A00006409001010010010456E764170700000312402080D0A456EED
:201840007669726F6E6D656E745F446174615F5461736B206372656174206572726F720062
:201860000D0A20544D5F4169725377697463685F5175657565206572726F720D0A000000DE
:201880000D0A2041697253776974636842696E617279206572726F72000000000D0A20415C
:2018A0006E676C6542696E617279206572726F72000000000D0A204D616E686F6C65436F26
:2018C00076657242696E617279206572726F72001CB50AA014F0B2FF0C490620CDE90001AA
:2018E00000234FF496720AA10A4821F0B3FA012803D009A014F0A2FFFEE71CBD0D0A20433D
:20190000726561744C65645461736B00C80000204C656400DD6502080D0A204C65645F542B
:2019200061736B206372656174206572726F72001CB50DA014F082FF114900200346486081
:20194000086108600872C8600421CDE900104FF4C8720CA10E4821F07DFA012803D00DA078
:2019600014F06CFFFEE71CBD0D0A204372656174506C6174666F726D5461736B000000003C
:20198000D00D0010506C6174666F726D00000000598102080D0A204372656174506C61747A
:2019A000666F726D5461736B206372656174206572726F72000000001CB50BA014F03EFFAA
:2019C00010490920CDE9000100234FF4C8720EA1114821F03FFA012804D0BDE81C400FA02F
:2019E00014F02CBF1CBD00000D0A20437265617452656D6F74655570646174615461736B9B
:201A0000000000002801002052656D6F7465557064617461000000002D9102080D0A204370
:201A20007265617452656D6F74655570646174615461736B206372656174206572726F7223
:201A4000000000001CB508490120CDE900010202002306A1074821F0FDF9012803D006A0C6
:201A600014F0ECFEFEE71CBD1000001053746172740000008D9B02080D0A20537461727415
:201A80005F5461736B4944206372656174206572726F72001CB50CA014F0D0FE0F49072080
:201AA000CDE9000100234FF480720DA10E4821F0D1F90A49091F0128086003D00BA014F0AA
:201AC000BDFEFEE71CBD00000D0A204372656174556172745461736B000000009401001093
:201AE000556172744170700045B102080D0A5463705F5461736B2063726561742065727261
:201B00006F7200002DE9F04F91B001257A4C069508954FF0FF3A099500265146606A21F07C
:201B2000A3F806220121022014F096F8A061002810DA72A014F082FEC82020F0F7FA761CE8
:201B4000F6B2052EEDD300231A461946606A20F0ABFDCFE0014600276CA014F06FFE09AA39
:201B60006E49A06912F0B6F8002823D1002601960220039604968DF8050020690290608939
:201B8000ADF806004FF0040940F6FF7BCDF8009006AB08225946A06913F09EFE00280ADA1B
:201BA0005FA014F04BFEC82020F0C0FA7F1CFFB2052FEBD393E060A014F040FE102201A958
:201BC000A06911F0BFFD002807DA61A014F036FE654800687328EDD102E064A014F02EFE79
:201BE000CDF828A0CDE90B560D960796A0690DAE07AF042813D2C11700EB517306EBE30219
:201C000000F0070892F800C005FA08F14CEA010C82F800C007EBE30213780B4313700BA91F
:201C2000009100233A463146401C13F0F7FA00284FDDA069042823D2C11700EB517206EBB4
:201C4000E20100F0070C0B7805FA0CF10B4217D007EBE20212780A4212D00EA900910AAB60
:201C600041F20702594611F02FFF002801DA46A019E0A069C8B14AA00A9914F0DFFD14E095
:201C8000042812D2C11700EB517107EBE10200F00700127885402A4207D006EBE100007807
:201CA000284202D147A014F0C9FDCDF8009008AB01220621A06913F00FFE00280FDB002396
:201CC0001A461946606A20F0EFFC002011B0BDE8F08F01D140A000E046A014F0AFFD4CA067
:201CE00014F0ACFD00231A461946606A20F0DCFC18F026FE5046E9E7640100100D0A536FC3
:201D0000636B6574206572726F7200000D0A736F636B5F66643A2564000000007E660480B7
:201D20000D0A736574206B656570616C697665206661696C000000000D0A736574206B655B
:201D40006570616C6976652073756363657373000D0A20736F636B657420636F6E6E65632E
:201D600074206572726F7200A40000200D0A20736F636B657420636F6E6E6563742073750F
:201D800063636573730000000D0A676574736F636B6F7074206572726F722121210000002B
:201DA0000D0A636F6E6E65637420676574736F636B6F7074206572726F7221212120256469
:201DC000000000000D0A73656C656374206F6E6C79205744000000000D0A636F6E6E656342
:201DE000742073656C6563742074696D656F7574212121000D0A636F6E6E6563742073654C
:201E00006C656374206572726F722121210000000D0A20736F636B6574206572726F722C37
:201E20002077696C6C20626520636C6F736500007FB504460FA00122D0E90010CDE90010CE
:201E40000EA1104ED1E90001CDE9020115022946304602F0A4F94FF008014CB10DF108002B
:201E600008F0E2FA00222946304602F098F97FBD6846F5E70B06000455CCF7A40B06000458
:201E800055AA778E0008024070470000064908B509684FF4FA52B1FBF2F14143009100BFCE
:201EA000491E0091FBD208BD3000002038B50446006800F58050816941F4801181612068CA
:201EC00000F58050806900900120FFF7DFFF2068009900F58050816138BD0000014801F0D8
:201EE0008BBB0000E03600202DE9F041044621B14FF40060E060C000A060E06900250028CA
:201F000061D028462368402619683A4A1140D4E902273A43024342F4007008431860206842
:201F20000768012001F0F6F9206807602068466020684668012001F0EDF920684660206830
:201F400085602068C560216888694FF64172104040F08000886120688669012001F0DAF938
:201F6000206886612068C5612068C569012001F0D1F92068C561226802F5805290691E4951
:201F800008401E4901439161206800F580508569012001F0BFF9206800F58050856120689C
:201FA000174900F580500160206800F580500568012001F0AFF9206800F580500560A0696C
:201FC000012803D009E04FF480609BE7206800F58050C1690B4A1143C16160690A4982880F
:201FE0000A640278D0F8010042EA00204864BDE8F08100000F8120FF233FDEF80400200215
:202000008020C1024000010000800240014801F0F3BA0000E03600204FF4804001F0D0BFBA
:20202000102001F0CDBF00002DE9F04387B0142102A8FEF7A2F900241B2018F08FF84FF0D7
:202040000209054680F80090661C04EB840101EBC4014C19F0B2607002A9A41C00F062FDEA
:20206000039800BA0390029800BA0290059800BA059003982060029860600598A060F4B2EE
:20208000022CE1D31B20CDE90005194E194FDFF86880B423398898F80000326806F04AF8E0
:2020A00028461FF0ADFF082018F058F8054680F800900020441C00EB40004119E3B24B70CF
:2020C000CA1C1846891C00F0E3FDE0B20228F1D30720CDE90005B923398898F8000032681E
:2020E00006F028F828461FF08BFF07B0BDE8F083AC000020AA0000205C01001010B58CB0F0
:20210000032018F02BF8044602A9002000F06EF901202070002102A800EB8102528C130A20
:2021200004EB4102537000EB4103491C93F82230937011F0FF01EFD00320CDE9000407484A
:2021400081230268064801880648007805F0F2FF20461FF055FF0CB010BD0000AC000020D0
:20216000AA0000205C01001070B52DED048B8AB09448FEF735F901469248FEF7FEF801A96B
:20218000002000F033F96946002007F04BF8BDF812008C4C01049FED8C8B0CD5C0F30E0011
:2021A000ADF81200FEF7EBFA41EC100B9FED881B53EC112B05E0FEF7E2FA53EC182B41EC37
